{
	"contracts/Creating_Token-ERC20/token_mint.sol": {
		"CreateToken": {
			"abi": [
				{
					"inputs": [],
					"stateMutability": "nonpayable",
					"type": "constructor"
				},
				{
					"inputs": [
						{
							"internalType": "address",
							"name": "_addr",
							"type": "address"
						}
					],
					"name": "balanceOf",
					"outputs": [
						{
							"internalType": "uint256",
							"name": "",
							"type": "uint256"
						}
					],
					"stateMutability": "view",
					"type": "function"
				},
				{
					"inputs": [
						{
							"internalType": "uint256",
							"name": "_noOfTokens",
							"type": "uint256"
						}
					],
					"name": "createMint",
					"outputs": [
						{
							"internalType": "string",
							"name": "",
							"type": "string"
						}
					],
					"stateMutability": "nonpayable",
					"type": "function"
				},
				{
					"inputs": [
						{
							"internalType": "address payable",
							"name": "_addr",
							"type": "address"
						},
						{
							"internalType": "uint256",
							"name": "_amount",
							"type": "uint256"
						}
					],
					"name": "mintTo",
					"outputs": [
						{
							"internalType": "string",
							"name": "",
							"type": "string"
						}
					],
					"stateMutability": "nonpayable",
					"type": "function"
				},
				{
					"inputs": [],
					"name": "owner",
					"outputs": [
						{
							"internalType": "address",
							"name": "",
							"type": "address"
						}
					],
					"stateMutability": "view",
					"type": "function"
				},
				{
					"inputs": [],
					"name": "supply",
					"outputs": [
						{
							"internalType": "uint256",
							"name": "",
							"type": "uint256"
						}
					],
					"stateMutability": "view",
					"type": "function"
				},
				{
					"inputs": [
						{
							"internalType": "address",
							"name": "_toAddress",
							"type": "address"
						},
						{
							"internalType": "uint256",
							"name": "_amount",
							"type": "uint256"
						}
					],
					"name": "transfer",
					"outputs": [
						{
							"internalType": "string",
							"name": "",
							"type": "string"
						}
					],
					"stateMutability": "nonpayable",
					"type": "function"
				}
			],
			"devdoc": {
				"kind": "dev",
				"methods": {},
				"version": 1
			},
			"evm": {
				"assembly": "    /* \"contracts/Creating_Token-ERC20/token_mint.sol\":60:1295  contract CreateToken {... */\n  mstore(0x40, 0x80)\n    /* \"contracts/Creating_Token-ERC20/token_mint.sol\":184:185  0 */\n  0x00\n    /* \"contracts/Creating_Token-ERC20/token_mint.sol\":163:185  uint public supply = 0 */\n  0x02\n  sstore\n    /* \"contracts/Creating_Token-ERC20/token_mint.sol\":194:245  constructor() {... */\n  callvalue\n  dup1\n  iszero\n  tag_1\n  jumpi\n  0x00\n  dup1\n  revert\ntag_1:\n  pop\n    /* \"contracts/Creating_Token-ERC20/token_mint.sol\":227:237  msg.sender */\n  caller\n    /* \"contracts/Creating_Token-ERC20/token_mint.sol\":219:224  owner */\n  0x00\n  dup1\n    /* \"contracts/Creating_Token-ERC20/token_mint.sol\":219:237  owner = msg.sender */\n  0x0100\n  exp\n  dup2\n  sload\n  dup2\n  0xffffffffffffffffffffffffffffffffffffffff\n  mul\n  not\n  and\n  swap1\n  dup4\n  0xffffffffffffffffffffffffffffffffffffffff\n  and\n  mul\n  or\n  swap1\n  sstore\n  pop\n    /* \"contracts/Creating_Token-ERC20/token_mint.sol\":60:1295  contract CreateToken {... */\n  dataSize(sub_0)\n  dup1\n  dataOffset(sub_0)\n  0x00\n  codecopy\n  0x00\n  return\nstop\n\nsub_0: assembly {\n        /* \"contracts/Creating_Token-ERC20/token_mint.sol\":60:1295  contract CreateToken {... */\n      mstore(0x40, 0x80)\n      callvalue\n      dup1\n      iszero\n      tag_1\n      jumpi\n      0x00\n      dup1\n      revert\n    tag_1:\n      pop\n      jumpi(tag_2, lt(calldatasize, 0x04))\n      shr(0xe0, calldataload(0x00))\n      dup1\n      0x047fc9aa\n      eq\n      tag_3\n      jumpi\n      dup1\n      0x449a52f8\n      eq\n      tag_4\n      jumpi\n      dup1\n      0x70a08231\n      eq\n      tag_5\n      jumpi\n      dup1\n      0x8da5cb5b\n      eq\n      tag_6\n      jumpi\n      dup1\n      0xa9059cbb\n      eq\n      tag_7\n      jumpi\n      dup1\n      0xbf35a18c\n      eq\n      tag_8\n      jumpi\n    tag_2:\n      0x00\n      dup1\n      revert\n        /* \"contracts/Creating_Token-ERC20/token_mint.sol\":163:185  uint public supply = 0 */\n    tag_3:\n      tag_9\n      tag_10\n      jump\t// in\n    tag_9:\n      mload(0x40)\n      tag_11\n      swap2\n      swap1\n      tag_12\n      jump\t// in\n    tag_11:\n      mload(0x40)\n      dup1\n      swap2\n      sub\n      swap1\n      return\n        /* \"contracts/Creating_Token-ERC20/token_mint.sol\":670:950  function mintTo(address payable _addr, uint _amount) public isOwner returns (string memory) {... */\n    tag_4:\n      tag_13\n      0x04\n      dup1\n      calldatasize\n      sub\n      dup2\n      add\n      swap1\n      tag_14\n      swap2\n      swap1\n      tag_15\n      jump\t// in\n    tag_14:\n      tag_16\n      jump\t// in\n    tag_13:\n      mload(0x40)\n      tag_17\n      swap2\n      swap1\n      tag_18\n      jump\t// in\n    tag_17:\n      mload(0x40)\n      dup1\n      swap2\n      sub\n      swap1\n      return\n        /* \"contracts/Creating_Token-ERC20/token_mint.sol\":560:662  function balanceOf(address _addr) public view returns (uint) {... */\n    tag_5:\n      tag_19\n      0x04\n      dup1\n      calldatasize\n      sub\n      dup2\n      add\n      swap1\n      tag_20\n      swap2\n      swap1\n      tag_21\n      jump\t// in\n    tag_20:\n      tag_22\n      jump\t// in\n    tag_19:\n      mload(0x40)\n      tag_23\n      swap2\n      swap1\n      tag_12\n      jump\t// in\n    tag_23:\n      mload(0x40)\n      dup1\n      swap2\n      sub\n      swap1\n      return\n        /* \"contracts/Creating_Token-ERC20/token_mint.sol\":88:108  address public owner */\n    tag_6:\n      tag_24\n      tag_25\n      jump\t// in\n    tag_24:\n      mload(0x40)\n      tag_26\n      swap2\n      swap1\n      tag_27\n      jump\t// in\n    tag_26:\n      mload(0x40)\n      dup1\n      swap2\n      sub\n      swap1\n      return\n        /* \"contracts/Creating_Token-ERC20/token_mint.sol\":958:1292  function transfer(address _toAddress, uint _amount) public returns (string memory) {... */\n    tag_7:\n      tag_28\n      0x04\n      dup1\n      calldatasize\n      sub\n      dup2\n      add\n      swap1\n      tag_29\n      swap2\n      swap1\n      tag_30\n      jump\t// in\n    tag_29:\n      tag_31\n      jump\t// in\n    tag_28:\n      mload(0x40)\n      tag_32\n      swap2\n      swap1\n      tag_18\n      jump\t// in\n    tag_32:\n      mload(0x40)\n      dup1\n      swap2\n      sub\n      swap1\n      return\n        /* \"contracts/Creating_Token-ERC20/token_mint.sol\":355:552  function createMint(uint _noOfTokens) public isOwner returns (string memory) {... */\n    tag_8:\n      tag_33\n      0x04\n      dup1\n      calldatasize\n      sub\n      dup2\n      add\n      swap1\n      tag_34\n      swap2\n      swap1\n      tag_35\n      jump\t// in\n    tag_34:\n      tag_36\n      jump\t// in\n    tag_33:\n      mload(0x40)\n      tag_37\n      swap2\n      swap1\n      tag_18\n      jump\t// in\n    tag_37:\n      mload(0x40)\n      dup1\n      swap2\n      sub\n      swap1\n      return\n        /* \"contracts/Creating_Token-ERC20/token_mint.sol\":163:185  uint public supply = 0 */\n    tag_10:\n      sload(0x02)\n      dup2\n      jump\t// out\n        /* \"contracts/Creating_Token-ERC20/token_mint.sol\":670:950  function mintTo(address payable _addr, uint _amount) public isOwner returns (string memory) {... */\n    tag_16:\n        /* \"contracts/Creating_Token-ERC20/token_mint.sol\":747:760  string memory */\n      0x60\n        /* \"contracts/Creating_Token-ERC20/token_mint.sol\":305:310  owner */\n      0x00\n      dup1\n      sload\n      swap1\n      0x0100\n      exp\n      swap1\n      div\n      0xffffffffffffffffffffffffffffffffffffffff\n      and\n        /* \"contracts/Creating_Token-ERC20/token_mint.sol\":291:310  msg.sender == owner */\n      0xffffffffffffffffffffffffffffffffffffffff\n      and\n        /* \"contracts/Creating_Token-ERC20/token_mint.sol\":291:301  msg.sender */\n      caller\n        /* \"contracts/Creating_Token-ERC20/token_mint.sol\":291:310  msg.sender == owner */\n      0xffffffffffffffffffffffffffffffffffffffff\n      and\n      eq\n        /* \"contracts/Creating_Token-ERC20/token_mint.sol\":283:327  require(msg.sender == owner, \"Unauthorized\") */\n      tag_39\n      jumpi\n      mload(0x40)\n      0x08c379a000000000000000000000000000000000000000000000000000000000\n      dup2\n      mstore\n      0x04\n      add\n      tag_40\n      swap1\n      tag_41\n      jump\t// in\n    tag_40:\n      mload(0x40)\n      dup1\n      swap2\n      sub\n      swap1\n      revert\n    tag_39:\n        /* \"contracts/Creating_Token-ERC20/token_mint.sol\":792:800  balances */\n      0x01\n        /* \"contracts/Creating_Token-ERC20/token_mint.sol\":792:807  balances[owner] */\n      0x00\n        /* \"contracts/Creating_Token-ERC20/token_mint.sol\":801:806  owner */\n      dup1\n      0x00\n      swap1\n      sload\n      swap1\n      0x0100\n      exp\n      swap1\n      div\n      0xffffffffffffffffffffffffffffffffffffffff\n      and\n        /* \"contracts/Creating_Token-ERC20/token_mint.sol\":792:807  balances[owner] */\n      0xffffffffffffffffffffffffffffffffffffffff\n      and\n      0xffffffffffffffffffffffffffffffffffffffff\n      and\n      dup2\n      mstore\n      0x20\n      add\n      swap1\n      dup2\n      mstore\n      0x20\n      add\n      0x00\n      keccak256\n      sload\n        /* \"contracts/Creating_Token-ERC20/token_mint.sol\":781:788  _amount */\n      dup3\n        /* \"contracts/Creating_Token-ERC20/token_mint.sol\":781:807  _amount <= balances[owner] */\n      gt\n      iszero\n        /* \"contracts/Creating_Token-ERC20/token_mint.sol\":773:829  require(_amount <= balances[owner], \"Not enough supply\") */\n      tag_43\n      jumpi\n      mload(0x40)\n      0x08c379a000000000000000000000000000000000000000000000000000000000\n      dup2\n      mstore\n      0x04\n      add\n      tag_44\n      swap1\n      tag_45\n      jump\t// in\n    tag_44:\n      mload(0x40)\n      dup1\n      swap2\n      sub\n      swap1\n      revert\n    tag_43:\n        /* \"contracts/Creating_Token-ERC20/token_mint.sol\":859:866  _amount */\n      dup2\n        /* \"contracts/Creating_Token-ERC20/token_mint.sol\":840:848  balances */\n      0x01\n        /* \"contracts/Creating_Token-ERC20/token_mint.sol\":840:855  balances[_addr] */\n      0x00\n        /* \"contracts/Creating_Token-ERC20/token_mint.sol\":849:854  _addr */\n      dup6\n        /* \"contracts/Creating_Token-ERC20/token_mint.sol\":840:855  balances[_addr] */\n      0xffffffffffffffffffffffffffffffffffffffff\n      and\n      0xffffffffffffffffffffffffffffffffffffffff\n      and\n      dup2\n      mstore\n      0x20\n      add\n      swap1\n      dup2\n      mstore\n      0x20\n      add\n      0x00\n      keccak256\n      0x00\n        /* \"contracts/Creating_Token-ERC20/token_mint.sol\":840:866  balances[_addr] += _amount */\n      dup3\n      dup3\n      sload\n      tag_46\n      swap2\n      swap1\n      tag_47\n      jump\t// in\n    tag_46:\n      swap3\n      pop\n      pop\n      dup2\n      swap1\n      sstore\n      pop\n        /* \"contracts/Creating_Token-ERC20/token_mint.sol\":896:903  _amount */\n      dup2\n        /* \"contracts/Creating_Token-ERC20/token_mint.sol\":877:885  balances */\n      0x01\n        /* \"contracts/Creating_Token-ERC20/token_mint.sol\":877:892  balances[owner] */\n      0x00\n        /* \"contracts/Creating_Token-ERC20/token_mint.sol\":886:891  owner */\n      dup1\n      0x00\n      swap1\n      sload\n      swap1\n      0x0100\n      exp\n      swap1\n      div\n      0xffffffffffffffffffffffffffffffffffffffff\n      and\n        /* \"contracts/Creating_Token-ERC20/token_mint.sol\":877:892  balances[owner] */\n      0xffffffffffffffffffffffffffffffffffffffff\n      and\n      0xffffffffffffffffffffffffffffffffffffffff\n      and\n      dup2\n      mstore\n      0x20\n      add\n      swap1\n      dup2\n      mstore\n      0x20\n      add\n      0x00\n      keccak256\n      0x00\n        /* \"contracts/Creating_Token-ERC20/token_mint.sol\":877:903  balances[owner] -= _amount */\n      dup3\n      dup3\n      sload\n      tag_48\n      swap2\n      swap1\n      tag_49\n      jump\t// in\n    tag_48:\n      swap3\n      pop\n      pop\n      dup2\n      swap1\n      sstore\n      pop\n        /* \"contracts/Creating_Token-ERC20/token_mint.sol\":914:942  return \"Minted successfully\" */\n      mload(0x40)\n      dup1\n      0x40\n      add\n      0x40\n      mstore\n      dup1\n      0x13\n      dup2\n      mstore\n      0x20\n      add\n      0x4d696e746564207375636365737366756c6c7900000000000000000000000000\n      dup2\n      mstore\n      pop\n      swap1\n      pop\n        /* \"contracts/Creating_Token-ERC20/token_mint.sol\":670:950  function mintTo(address payable _addr, uint _amount) public isOwner returns (string memory) {... */\n      swap3\n      swap2\n      pop\n      pop\n      jump\t// out\n        /* \"contracts/Creating_Token-ERC20/token_mint.sol\":560:662  function balanceOf(address _addr) public view returns (uint) {... */\n    tag_22:\n        /* \"contracts/Creating_Token-ERC20/token_mint.sol\":615:619  uint */\n      0x00\n        /* \"contracts/Creating_Token-ERC20/token_mint.sol\":639:647  balances */\n      0x01\n        /* \"contracts/Creating_Token-ERC20/token_mint.sol\":639:654  balances[_addr] */\n      0x00\n        /* \"contracts/Creating_Token-ERC20/token_mint.sol\":648:653  _addr */\n      dup4\n        /* \"contracts/Creating_Token-ERC20/token_mint.sol\":639:654  balances[_addr] */\n      0xffffffffffffffffffffffffffffffffffffffff\n      and\n      0xffffffffffffffffffffffffffffffffffffffff\n      and\n      dup2\n      mstore\n      0x20\n      add\n      swap1\n      dup2\n      mstore\n      0x20\n      add\n      0x00\n      keccak256\n      sload\n        /* \"contracts/Creating_Token-ERC20/token_mint.sol\":632:654  return balances[_addr] */\n      swap1\n      pop\n        /* \"contracts/Creating_Token-ERC20/token_mint.sol\":560:662  function balanceOf(address _addr) public view returns (uint) {... */\n      swap2\n      swap1\n      pop\n      jump\t// out\n        /* \"contracts/Creating_Token-ERC20/token_mint.sol\":88:108  address public owner */\n    tag_25:\n      0x00\n      dup1\n      sload\n      swap1\n      0x0100\n      exp\n      swap1\n      div\n      0xffffffffffffffffffffffffffffffffffffffff\n      and\n      dup2\n      jump\t// out\n        /* \"contracts/Creating_Token-ERC20/token_mint.sol\":958:1292  function transfer(address _toAddress, uint _amount) public returns (string memory) {... */\n    tag_31:\n        /* \"contracts/Creating_Token-ERC20/token_mint.sol\":1026:1039  string memory */\n      0x60\n        /* \"contracts/Creating_Token-ERC20/token_mint.sol\":1084:1091  _amount */\n      dup2\n        /* \"contracts/Creating_Token-ERC20/token_mint.sol\":1060:1068  balances */\n      0x01\n        /* \"contracts/Creating_Token-ERC20/token_mint.sol\":1060:1080  balances[msg.sender] */\n      0x00\n        /* \"contracts/Creating_Token-ERC20/token_mint.sol\":1069:1079  msg.sender */\n      caller\n        /* \"contracts/Creating_Token-ERC20/token_mint.sol\":1060:1080  balances[msg.sender] */\n      0xffffffffffffffffffffffffffffffffffffffff\n      and\n      0xffffffffffffffffffffffffffffffffffffffff\n      and\n      dup2\n      mstore\n      0x20\n      add\n      swap1\n      dup2\n      mstore\n      0x20\n      add\n      0x00\n      keccak256\n      sload\n        /* \"contracts/Creating_Token-ERC20/token_mint.sol\":1060:1091  balances[msg.sender] >= _amount */\n      lt\n      iszero\n        /* \"contracts/Creating_Token-ERC20/token_mint.sol\":1052:1116  require(balances[msg.sender] >= _amount, \"Insufficient balance\") */\n      tag_52\n      jumpi\n      mload(0x40)\n      0x08c379a000000000000000000000000000000000000000000000000000000000\n      dup2\n      mstore\n      0x04\n      add\n      tag_53\n      swap1\n      tag_54\n      jump\t// in\n    tag_53:\n      mload(0x40)\n      dup1\n      swap2\n      sub\n      swap1\n      revert\n    tag_52:\n        /* \"contracts/Creating_Token-ERC20/token_mint.sol\":1176:1183  _amount */\n      dup2\n        /* \"contracts/Creating_Token-ERC20/token_mint.sol\":1152:1160  balances */\n      0x01\n        /* \"contracts/Creating_Token-ERC20/token_mint.sol\":1152:1172  balances[msg.sender] */\n      0x00\n        /* \"contracts/Creating_Token-ERC20/token_mint.sol\":1161:1171  msg.sender */\n      caller\n        /* \"contracts/Creating_Token-ERC20/token_mint.sol\":1152:1172  balances[msg.sender] */\n      0xffffffffffffffffffffffffffffffffffffffff\n      and\n      0xffffffffffffffffffffffffffffffffffffffff\n      and\n      dup2\n      mstore\n      0x20\n      add\n      swap1\n      dup2\n      mstore\n      0x20\n      add\n      0x00\n      keccak256\n      0x00\n        /* \"contracts/Creating_Token-ERC20/token_mint.sol\":1152:1183  balances[msg.sender] -= _amount */\n      dup3\n      dup3\n      sload\n      sub\n      swap3\n      pop\n      pop\n      dup2\n      swap1\n      sstore\n      pop\n        /* \"contracts/Creating_Token-ERC20/token_mint.sol\":1222:1229  _amount */\n      dup2\n        /* \"contracts/Creating_Token-ERC20/token_mint.sol\":1198:1206  balances */\n      0x01\n        /* \"contracts/Creating_Token-ERC20/token_mint.sol\":1198:1218  balances[_toAddress] */\n      0x00\n        /* \"contracts/Creating_Token-ERC20/token_mint.sol\":1207:1217  _toAddress */\n      dup6\n        /* \"contracts/Creating_Token-ERC20/token_mint.sol\":1198:1218  balances[_toAddress] */\n      0xffffffffffffffffffffffffffffffffffffffff\n      and\n      0xffffffffffffffffffffffffffffffffffffffff\n      and\n      dup2\n      mstore\n      0x20\n      add\n      swap1\n      dup2\n      mstore\n      0x20\n      add\n      0x00\n      keccak256\n      0x00\n        /* \"contracts/Creating_Token-ERC20/token_mint.sol\":1198:1229  balances[_toAddress] += _amount */\n      dup3\n      dup3\n      sload\n      add\n      swap3\n      pop\n      pop\n      dup2\n      swap1\n      sstore\n      pop\n        /* \"contracts/Creating_Token-ERC20/token_mint.sol\":1251:1284  return \"Successfully transferred\" */\n      mload(0x40)\n      dup1\n      0x40\n      add\n      0x40\n      mstore\n      dup1\n      0x18\n      dup2\n      mstore\n      0x20\n      add\n      0x5375636365737366756c6c79207472616e736665727265640000000000000000\n      dup2\n      mstore\n      pop\n      swap1\n      pop\n        /* \"contracts/Creating_Token-ERC20/token_mint.sol\":958:1292  function transfer(address _toAddress, uint _amount) public returns (string memory) {... */\n      swap3\n      swap2\n      pop\n      pop\n      jump\t// out\n        /* \"contracts/Creating_Token-ERC20/token_mint.sol\":355:552  function createMint(uint _noOfTokens) public isOwner returns (string memory) {... */\n    tag_36:\n        /* \"contracts/Creating_Token-ERC20/token_mint.sol\":417:430  string memory */\n      0x60\n        /* \"contracts/Creating_Token-ERC20/token_mint.sol\":305:310  owner */\n      0x00\n      dup1\n      sload\n      swap1\n      0x0100\n      exp\n      swap1\n      div\n      0xffffffffffffffffffffffffffffffffffffffff\n      and\n        /* \"contracts/Creating_Token-ERC20/token_mint.sol\":291:310  msg.sender == owner */\n      0xffffffffffffffffffffffffffffffffffffffff\n      and\n        /* \"contracts/Creating_Token-ERC20/token_mint.sol\":291:301  msg.sender */\n      caller\n        /* \"contracts/Creating_Token-ERC20/token_mint.sol\":291:310  msg.sender == owner */\n      0xffffffffffffffffffffffffffffffffffffffff\n      and\n      eq\n        /* \"contracts/Creating_Token-ERC20/token_mint.sol\":283:327  require(msg.sender == owner, \"Unauthorized\") */\n      tag_56\n      jumpi\n      mload(0x40)\n      0x08c379a000000000000000000000000000000000000000000000000000000000\n      dup2\n      mstore\n      0x04\n      add\n      tag_57\n      swap1\n      tag_41\n      jump\t// in\n    tag_57:\n      mload(0x40)\n      dup1\n      swap2\n      sub\n      swap1\n      revert\n    tag_56:\n        /* \"contracts/Creating_Token-ERC20/token_mint.sol\":462:473  _noOfTokens */\n      dup2\n        /* \"contracts/Creating_Token-ERC20/token_mint.sol\":443:451  balances */\n      0x01\n        /* \"contracts/Creating_Token-ERC20/token_mint.sol\":443:458  balances[owner] */\n      0x00\n        /* \"contracts/Creating_Token-ERC20/token_mint.sol\":452:457  owner */\n      dup1\n      0x00\n      swap1\n      sload\n      swap1\n      0x0100\n      exp\n      swap1\n      div\n      0xffffffffffffffffffffffffffffffffffffffff\n      and\n        /* \"contracts/Creating_Token-ERC20/token_mint.sol\":443:458  balances[owner] */\n      0xffffffffffffffffffffffffffffffffffffffff\n      and\n      0xffffffffffffffffffffffffffffffffffffffff\n      and\n      dup2\n      mstore\n      0x20\n      add\n      swap1\n      dup2\n      mstore\n      0x20\n      add\n      0x00\n      keccak256\n      0x00\n        /* \"contracts/Creating_Token-ERC20/token_mint.sol\":443:473  balances[owner] += _noOfTokens */\n      dup3\n      dup3\n      sload\n      tag_59\n      swap2\n      swap1\n      tag_47\n      jump\t// in\n    tag_59:\n      swap3\n      pop\n      pop\n      dup2\n      swap1\n      sstore\n      pop\n        /* \"contracts/Creating_Token-ERC20/token_mint.sol\":494:505  _noOfTokens */\n      dup2\n        /* \"contracts/Creating_Token-ERC20/token_mint.sol\":484:490  supply */\n      0x02\n      0x00\n        /* \"contracts/Creating_Token-ERC20/token_mint.sol\":484:505  supply += _noOfTokens */\n      dup3\n      dup3\n      sload\n      tag_60\n      swap2\n      swap1\n      tag_47\n      jump\t// in\n    tag_60:\n      swap3\n      pop\n      pop\n      dup2\n      swap1\n      sstore\n      pop\n        /* \"contracts/Creating_Token-ERC20/token_mint.sol\":516:544  return \"Successfully minted\" */\n      mload(0x40)\n      dup1\n      0x40\n      add\n      0x40\n      mstore\n      dup1\n      0x13\n      dup2\n      mstore\n      0x20\n      add\n      0x5375636365737366756c6c79206d696e74656400000000000000000000000000\n      dup2\n      mstore\n      pop\n      swap1\n      pop\n        /* \"contracts/Creating_Token-ERC20/token_mint.sol\":355:552  function createMint(uint _noOfTokens) public isOwner returns (string memory) {... */\n      swap2\n      swap1\n      pop\n      jump\t// out\n        /* \"#utility.yul\":7:84   */\n    tag_61:\n        /* \"#utility.yul\":44:51   */\n      0x00\n        /* \"#utility.yul\":73:78   */\n      dup2\n        /* \"#utility.yul\":62:78   */\n      swap1\n      pop\n        /* \"#utility.yul\":7:84   */\n      swap2\n      swap1\n      pop\n      jump\t// out\n        /* \"#utility.yul\":90:208   */\n    tag_62:\n        /* \"#utility.yul\":177:201   */\n      tag_91\n        /* \"#utility.yul\":195:200   */\n      dup2\n        /* \"#utility.yul\":177:201   */\n      tag_61\n      jump\t// in\n    tag_91:\n        /* \"#utility.yul\":172:175   */\n      dup3\n        /* \"#utility.yul\":165:202   */\n      mstore\n        /* \"#utility.yul\":90:208   */\n      pop\n      pop\n      jump\t// out\n        /* \"#utility.yul\":214:436   */\n    tag_12:\n        /* \"#utility.yul\":307:311   */\n      0x00\n        /* \"#utility.yul\":345:347   */\n      0x20\n        /* \"#utility.yul\":334:343   */\n      dup3\n        /* \"#utility.yul\":330:348   */\n      add\n        /* \"#utility.yul\":322:348   */\n      swap1\n      pop\n        /* \"#utility.yul\":358:429   */\n      tag_93\n        /* \"#utility.yul\":426:427   */\n      0x00\n        /* \"#utility.yul\":415:424   */\n      dup4\n        /* \"#utility.yul\":411:428   */\n      add\n        /* \"#utility.yul\":402:408   */\n      dup5\n        /* \"#utility.yul\":358:429   */\n      tag_62\n      jump\t// in\n    tag_93:\n        /* \"#utility.yul\":214:436   */\n      swap3\n      swap2\n      pop\n      pop\n      jump\t// out\n        /* \"#utility.yul\":523:640   */\n    tag_64:\n        /* \"#utility.yul\":632:633   */\n      0x00\n        /* \"#utility.yul\":629:630   */\n      dup1\n        /* \"#utility.yul\":622:634   */\n      revert\n        /* \"#utility.yul\":769:895   */\n    tag_66:\n        /* \"#utility.yul\":806:813   */\n      0x00\n        /* \"#utility.yul\":846:888   */\n      0xffffffffffffffffffffffffffffffffffffffff\n        /* \"#utility.yul\":839:844   */\n      dup3\n        /* \"#utility.yul\":835:889   */\n      and\n        /* \"#utility.yul\":824:889   */\n      swap1\n      pop\n        /* \"#utility.yul\":769:895   */\n      swap2\n      swap1\n      pop\n      jump\t// out\n        /* \"#utility.yul\":901:1005   */\n    tag_67:\n        /* \"#utility.yul\":946:953   */\n      0x00\n        /* \"#utility.yul\":975:999   */\n      tag_99\n        /* \"#utility.yul\":993:998   */\n      dup3\n        /* \"#utility.yul\":975:999   */\n      tag_66\n      jump\t// in\n    tag_99:\n        /* \"#utility.yul\":964:999   */\n      swap1\n      pop\n        /* \"#utility.yul\":901:1005   */\n      swap2\n      swap1\n      pop\n      jump\t// out\n        /* \"#utility.yul\":1011:1149   */\n    tag_68:\n        /* \"#utility.yul\":1092:1124   */\n      tag_101\n        /* \"#utility.yul\":1118:1123   */\n      dup2\n        /* \"#utility.yul\":1092:1124   */\n      tag_67\n      jump\t// in\n    tag_101:\n        /* \"#utility.yul\":1085:1090   */\n      dup2\n        /* \"#utility.yul\":1082:1125   */\n      eq\n        /* \"#utility.yul\":1072:1143   */\n      tag_102\n      jumpi\n        /* \"#utility.yul\":1139:1140   */\n      0x00\n        /* \"#utility.yul\":1136:1137   */\n      dup1\n        /* \"#utility.yul\":1129:1141   */\n      revert\n        /* \"#utility.yul\":1072:1143   */\n    tag_102:\n        /* \"#utility.yul\":1011:1149   */\n      pop\n      jump\t// out\n        /* \"#utility.yul\":1155:1310   */\n    tag_69:\n        /* \"#utility.yul\":1209:1214   */\n      0x00\n        /* \"#utility.yul\":1247:1253   */\n      dup2\n        /* \"#utility.yul\":1234:1254   */\n      calldataload\n        /* \"#utility.yul\":1225:1254   */\n      swap1\n      pop\n        /* \"#utility.yul\":1263:1304   */\n      tag_104\n        /* \"#utility.yul\":1298:1303   */\n      dup2\n        /* \"#utility.yul\":1263:1304   */\n      tag_68\n      jump\t// in\n    tag_104:\n        /* \"#utility.yul\":1155:1310   */\n      swap3\n      swap2\n      pop\n      pop\n      jump\t// out\n        /* \"#utility.yul\":1316:1438   */\n    tag_70:\n        /* \"#utility.yul\":1389:1413   */\n      tag_106\n        /* \"#utility.yul\":1407:1412   */\n      dup2\n        /* \"#utility.yul\":1389:1413   */\n      tag_61\n      jump\t// in\n    tag_106:\n        /* \"#utility.yul\":1382:1387   */\n      dup2\n        /* \"#utility.yul\":1379:1414   */\n      eq\n        /* \"#utility.yul\":1369:1432   */\n      tag_107\n      jumpi\n        /* \"#utility.yul\":1428:1429   */\n      0x00\n        /* \"#utility.yul\":1425:1426   */\n      dup1\n        /* \"#utility.yul\":1418:1430   */\n      revert\n        /* \"#utility.yul\":1369:1432   */\n    tag_107:\n        /* \"#utility.yul\":1316:1438   */\n      pop\n      jump\t// out\n        /* \"#utility.yul\":1444:1583   */\n    tag_71:\n        /* \"#utility.yul\":1490:1495   */\n      0x00\n        /* \"#utility.yul\":1528:1534   */\n      dup2\n        /* \"#utility.yul\":1515:1535   */\n      calldataload\n        /* \"#utility.yul\":1506:1535   */\n      swap1\n      pop\n        /* \"#utility.yul\":1544:1577   */\n      tag_109\n        /* \"#utility.yul\":1571:1576   */\n      dup2\n        /* \"#utility.yul\":1544:1577   */\n      tag_70\n      jump\t// in\n    tag_109:\n        /* \"#utility.yul\":1444:1583   */\n      swap3\n      swap2\n      pop\n      pop\n      jump\t// out\n        /* \"#utility.yul\":1589:2079   */\n    tag_15:\n        /* \"#utility.yul\":1665:1671   */\n      0x00\n        /* \"#utility.yul\":1673:1679   */\n      dup1\n        /* \"#utility.yul\":1722:1724   */\n      0x40\n        /* \"#utility.yul\":1710:1719   */\n      dup4\n        /* \"#utility.yul\":1701:1708   */\n      dup6\n        /* \"#utility.yul\":1697:1720   */\n      sub\n        /* \"#utility.yul\":1693:1725   */\n      slt\n        /* \"#utility.yul\":1690:1809   */\n      iszero\n      tag_111\n      jumpi\n        /* \"#utility.yul\":1728:1807   */\n      tag_112\n      tag_64\n      jump\t// in\n    tag_112:\n        /* \"#utility.yul\":1690:1809   */\n    tag_111:\n        /* \"#utility.yul\":1848:1849   */\n      0x00\n        /* \"#utility.yul\":1873:1934   */\n      tag_113\n        /* \"#utility.yul\":1926:1933   */\n      dup6\n        /* \"#utility.yul\":1917:1923   */\n      dup3\n        /* \"#utility.yul\":1906:1915   */\n      dup7\n        /* \"#utility.yul\":1902:1924   */\n      add\n        /* \"#utility.yul\":1873:1934   */\n      tag_69\n      jump\t// in\n    tag_113:\n        /* \"#utility.yul\":1863:1934   */\n      swap3\n      pop\n        /* \"#utility.yul\":1819:1944   */\n      pop\n        /* \"#utility.yul\":1983:1985   */\n      0x20\n        /* \"#utility.yul\":2009:2062   */\n      tag_114\n        /* \"#utility.yul\":2054:2061   */\n      dup6\n        /* \"#utility.yul\":2045:2051   */\n      dup3\n        /* \"#utility.yul\":2034:2043   */\n      dup7\n        /* \"#utility.yul\":2030:2052   */\n      add\n        /* \"#utility.yul\":2009:2062   */\n      tag_71\n      jump\t// in\n    tag_114:\n        /* \"#utility.yul\":1999:2062   */\n      swap2\n      pop\n        /* \"#utility.yul\":1954:2072   */\n      pop\n        /* \"#utility.yul\":1589:2079   */\n      swap3\n      pop\n      swap3\n      swap1\n      pop\n      jump\t// out\n        /* \"#utility.yul\":2085:2184   */\n    tag_72:\n        /* \"#utility.yul\":2137:2143   */\n      0x00\n        /* \"#utility.yul\":2171:2176   */\n      dup2\n        /* \"#utility.yul\":2165:2177   */\n      mload\n        /* \"#utility.yul\":2155:2177   */\n      swap1\n      pop\n        /* \"#utility.yul\":2085:2184   */\n      swap2\n      swap1\n      pop\n      jump\t// out\n        /* \"#utility.yul\":2190:2359   */\n    tag_73:\n        /* \"#utility.yul\":2274:2285   */\n      0x00\n        /* \"#utility.yul\":2308:2314   */\n      dup3\n        /* \"#utility.yul\":2303:2306   */\n      dup3\n        /* \"#utility.yul\":2296:2315   */\n      mstore\n        /* \"#utility.yul\":2348:2352   */\n      0x20\n        /* \"#utility.yul\":2343:2346   */\n      dup3\n        /* \"#utility.yul\":2339:2353   */\n      add\n        /* \"#utility.yul\":2324:2353   */\n      swap1\n      pop\n        /* \"#utility.yul\":2190:2359   */\n      swap3\n      swap2\n      pop\n      pop\n      jump\t// out\n        /* \"#utility.yul\":2365:2504   */\n    tag_74:\n        /* \"#utility.yul\":2454:2460   */\n      dup3\n        /* \"#utility.yul\":2449:2452   */\n      dup2\n        /* \"#utility.yul\":2444:2447   */\n      dup4\n        /* \"#utility.yul\":2438:2461   */\n      mcopy\n        /* \"#utility.yul\":2495:2496   */\n      0x00\n        /* \"#utility.yul\":2486:2492   */\n      dup4\n        /* \"#utility.yul\":2481:2484   */\n      dup4\n        /* \"#utility.yul\":2477:2493   */\n      add\n        /* \"#utility.yul\":2470:2497   */\n      mstore\n        /* \"#utility.yul\":2365:2504   */\n      pop\n      pop\n      pop\n      jump\t// out\n        /* \"#utility.yul\":2510:2612   */\n    tag_75:\n        /* \"#utility.yul\":2551:2557   */\n      0x00\n        /* \"#utility.yul\":2602:2604   */\n      0x1f\n        /* \"#utility.yul\":2598:2605   */\n      not\n        /* \"#utility.yul\":2593:2595   */\n      0x1f\n        /* \"#utility.yul\":2586:2591   */\n      dup4\n        /* \"#utility.yul\":2582:2596   */\n      add\n        /* \"#utility.yul\":2578:2606   */\n      and\n        /* \"#utility.yul\":2568:2606   */\n      swap1\n      pop\n        /* \"#utility.yul\":2510:2612   */\n      swap2\n      swap1\n      pop\n      jump\t// out\n        /* \"#utility.yul\":2618:2995   */\n    tag_76:\n        /* \"#utility.yul\":2706:2709   */\n      0x00\n        /* \"#utility.yul\":2734:2773   */\n      tag_120\n        /* \"#utility.yul\":2767:2772   */\n      dup3\n        /* \"#utility.yul\":2734:2773   */\n      tag_72\n      jump\t// in\n    tag_120:\n        /* \"#utility.yul\":2789:2860   */\n      tag_121\n        /* \"#utility.yul\":2853:2859   */\n      dup2\n        /* \"#utility.yul\":2848:2851   */\n      dup6\n        /* \"#utility.yul\":2789:2860   */\n      tag_73\n      jump\t// in\n    tag_121:\n        /* \"#utility.yul\":2782:2860   */\n      swap4\n      pop\n        /* \"#utility.yul\":2869:2934   */\n      tag_122\n        /* \"#utility.yul\":2927:2933   */\n      dup2\n        /* \"#utility.yul\":2922:2925   */\n      dup6\n        /* \"#utility.yul\":2915:2919   */\n      0x20\n        /* \"#utility.yul\":2908:2913   */\n      dup7\n        /* \"#utility.yul\":2904:2920   */\n      add\n        /* \"#utility.yul\":2869:2934   */\n      tag_74\n      jump\t// in\n    tag_122:\n        /* \"#utility.yul\":2959:2988   */\n      tag_123\n        /* \"#utility.yul\":2981:2987   */\n      dup2\n        /* \"#utility.yul\":2959:2988   */\n      tag_75\n      jump\t// in\n    tag_123:\n        /* \"#utility.yul\":2954:2957   */\n      dup5\n        /* \"#utility.yul\":2950:2989   */\n      add\n        /* \"#utility.yul\":2943:2989   */\n      swap2\n      pop\n        /* \"#utility.yul\":2710:2995   */\n      pop\n        /* \"#utility.yul\":2618:2995   */\n      swap3\n      swap2\n      pop\n      pop\n      jump\t// out\n        /* \"#utility.yul\":3001:3314   */\n    tag_18:\n        /* \"#utility.yul\":3114:3118   */\n      0x00\n        /* \"#utility.yul\":3152:3154   */\n      0x20\n        /* \"#utility.yul\":3141:3150   */\n      dup3\n        /* \"#utility.yul\":3137:3155   */\n      add\n        /* \"#utility.yul\":3129:3155   */\n      swap1\n      pop\n        /* \"#utility.yul\":3201:3210   */\n      dup2\n        /* \"#utility.yul\":3195:3199   */\n      dup2\n        /* \"#utility.yul\":3191:3211   */\n      sub\n        /* \"#utility.yul\":3187:3188   */\n      0x00\n        /* \"#utility.yul\":3176:3185   */\n      dup4\n        /* \"#utility.yul\":3172:3189   */\n      add\n        /* \"#utility.yul\":3165:3212   */\n      mstore\n        /* \"#utility.yul\":3229:3307   */\n      tag_125\n        /* \"#utility.yul\":3302:3306   */\n      dup2\n        /* \"#utility.yul\":3293:3299   */\n      dup5\n        /* \"#utility.yul\":3229:3307   */\n      tag_76\n      jump\t// in\n    tag_125:\n        /* \"#utility.yul\":3221:3307   */\n      swap1\n      pop\n        /* \"#utility.yul\":3001:3314   */\n      swap3\n      swap2\n      pop\n      pop\n      jump\t// out\n        /* \"#utility.yul\":3320:3416   */\n    tag_77:\n        /* \"#utility.yul\":3357:3364   */\n      0x00\n        /* \"#utility.yul\":3386:3410   */\n      tag_127\n        /* \"#utility.yul\":3404:3409   */\n      dup3\n        /* \"#utility.yul\":3386:3410   */\n      tag_66\n      jump\t// in\n    tag_127:\n        /* \"#utility.yul\":3375:3410   */\n      swap1\n      pop\n        /* \"#utility.yul\":3320:3416   */\n      swap2\n      swap1\n      pop\n      jump\t// out\n        /* \"#utility.yul\":3422:3544   */\n    tag_78:\n        /* \"#utility.yul\":3495:3519   */\n      tag_129\n        /* \"#utility.yul\":3513:3518   */\n      dup2\n        /* \"#utility.yul\":3495:3519   */\n      tag_77\n      jump\t// in\n    tag_129:\n        /* \"#utility.yul\":3488:3493   */\n      dup2\n        /* \"#utility.yul\":3485:3520   */\n      eq\n        /* \"#utility.yul\":3475:3538   */\n      tag_130\n      jumpi\n        /* \"#utility.yul\":3534:3535   */\n      0x00\n        /* \"#utility.yul\":3531:3532   */\n      dup1\n        /* \"#utility.yul\":3524:3536   */\n      revert\n        /* \"#utility.yul\":3475:3538   */\n    tag_130:\n        /* \"#utility.yul\":3422:3544   */\n      pop\n      jump\t// out\n        /* \"#utility.yul\":3550:3689   */\n    tag_79:\n        /* \"#utility.yul\":3596:3601   */\n      0x00\n        /* \"#utility.yul\":3634:3640   */\n      dup2\n        /* \"#utility.yul\":3621:3641   */\n      calldataload\n        /* \"#utility.yul\":3612:3641   */\n      swap1\n      pop\n        /* \"#utility.yul\":3650:3683   */\n      tag_132\n        /* \"#utility.yul\":3677:3682   */\n      dup2\n        /* \"#utility.yul\":3650:3683   */\n      tag_78\n      jump\t// in\n    tag_132:\n        /* \"#utility.yul\":3550:3689   */\n      swap3\n      swap2\n      pop\n      pop\n      jump\t// out\n        /* \"#utility.yul\":3695:4024   */\n    tag_21:\n        /* \"#utility.yul\":3754:3760   */\n      0x00\n        /* \"#utility.yul\":3803:3805   */\n      0x20\n        /* \"#utility.yul\":3791:3800   */\n      dup3\n        /* \"#utility.yul\":3782:3789   */\n      dup5\n        /* \"#utility.yul\":3778:3801   */\n      sub\n        /* \"#utility.yul\":3774:3806   */\n      slt\n        /* \"#utility.yul\":3771:3890   */\n      iszero\n      tag_134\n      jumpi\n        /* \"#utility.yul\":3809:3888   */\n      tag_135\n      tag_64\n      jump\t// in\n    tag_135:\n        /* \"#utility.yul\":3771:3890   */\n    tag_134:\n        /* \"#utility.yul\":3929:3930   */\n      0x00\n        /* \"#utility.yul\":3954:4007   */\n      tag_136\n        /* \"#utility.yul\":3999:4006   */\n      dup5\n        /* \"#utility.yul\":3990:3996   */\n      dup3\n        /* \"#utility.yul\":3979:3988   */\n      dup6\n        /* \"#utility.yul\":3975:3997   */\n      add\n        /* \"#utility.yul\":3954:4007   */\n      tag_79\n      jump\t// in\n    tag_136:\n        /* \"#utility.yul\":3944:4007   */\n      swap2\n      pop\n        /* \"#utility.yul\":3900:4017   */\n      pop\n        /* \"#utility.yul\":3695:4024   */\n      swap3\n      swap2\n      pop\n      pop\n      jump\t// out\n        /* \"#utility.yul\":4030:4148   */\n    tag_80:\n        /* \"#utility.yul\":4117:4141   */\n      tag_138\n        /* \"#utility.yul\":4135:4140   */\n      dup2\n        /* \"#utility.yul\":4117:4141   */\n      tag_77\n      jump\t// in\n    tag_138:\n        /* \"#utility.yul\":4112:4115   */\n      dup3\n        /* \"#utility.yul\":4105:4142   */\n      mstore\n        /* \"#utility.yul\":4030:4148   */\n      pop\n      pop\n      jump\t// out\n        /* \"#utility.yul\":4154:4376   */\n    tag_27:\n        /* \"#utility.yul\":4247:4251   */\n      0x00\n        /* \"#utility.yul\":4285:4287   */\n      0x20\n        /* \"#utility.yul\":4274:4283   */\n      dup3\n        /* \"#utility.yul\":4270:4288   */\n      add\n        /* \"#utility.yul\":4262:4288   */\n      swap1\n      pop\n        /* \"#utility.yul\":4298:4369   */\n      tag_140\n        /* \"#utility.yul\":4366:4367   */\n      0x00\n        /* \"#utility.yul\":4355:4364   */\n      dup4\n        /* \"#utility.yul\":4351:4368   */\n      add\n        /* \"#utility.yul\":4342:4348   */\n      dup5\n        /* \"#utility.yul\":4298:4369   */\n      tag_80\n      jump\t// in\n    tag_140:\n        /* \"#utility.yul\":4154:4376   */\n      swap3\n      swap2\n      pop\n      pop\n      jump\t// out\n        /* \"#utility.yul\":4382:4856   */\n    tag_30:\n        /* \"#utility.yul\":4450:4456   */\n      0x00\n        /* \"#utility.yul\":4458:4464   */\n      dup1\n        /* \"#utility.yul\":4507:4509   */\n      0x40\n        /* \"#utility.yul\":4495:4504   */\n      dup4\n        /* \"#utility.yul\":4486:4493   */\n      dup6\n        /* \"#utility.yul\":4482:4505   */\n      sub\n        /* \"#utility.yul\":4478:4510   */\n      slt\n        /* \"#utility.yul\":4475:4594   */\n      iszero\n      tag_142\n      jumpi\n        /* \"#utility.yul\":4513:4592   */\n      tag_143\n      tag_64\n      jump\t// in\n    tag_143:\n        /* \"#utility.yul\":4475:4594   */\n    tag_142:\n        /* \"#utility.yul\":4633:4634   */\n      0x00\n        /* \"#utility.yul\":4658:4711   */\n      tag_144\n        /* \"#utility.yul\":4703:4710   */\n      dup6\n        /* \"#utility.yul\":4694:4700   */\n      dup3\n        /* \"#utility.yul\":4683:4692   */\n      dup7\n        /* \"#utility.yul\":4679:4701   */\n      add\n        /* \"#utility.yul\":4658:4711   */\n      tag_79\n      jump\t// in\n    tag_144:\n        /* \"#utility.yul\":4648:4711   */\n      swap3\n      pop\n        /* \"#utility.yul\":4604:4721   */\n      pop\n        /* \"#utility.yul\":4760:4762   */\n      0x20\n        /* \"#utility.yul\":4786:4839   */\n      tag_145\n        /* \"#utility.yul\":4831:4838   */\n      dup6\n        /* \"#utility.yul\":4822:4828   */\n      dup3\n        /* \"#utility.yul\":4811:4820   */\n      dup7\n        /* \"#utility.yul\":4807:4829   */\n      add\n        /* \"#utility.yul\":4786:4839   */\n      tag_71\n      jump\t// in\n    tag_145:\n        /* \"#utility.yul\":4776:4839   */\n      swap2\n      pop\n        /* \"#utility.yul\":4731:4849   */\n      pop\n        /* \"#utility.yul\":4382:4856   */\n      swap3\n      pop\n      swap3\n      swap1\n      pop\n      jump\t// out\n        /* \"#utility.yul\":4862:5191   */\n    tag_35:\n        /* \"#utility.yul\":4921:4927   */\n      0x00\n        /* \"#utility.yul\":4970:4972   */\n      0x20\n        /* \"#utility.yul\":4958:4967   */\n      dup3\n        /* \"#utility.yul\":4949:4956   */\n      dup5\n        /* \"#utility.yul\":4945:4968   */\n      sub\n        /* \"#utility.yul\":4941:4973   */\n      slt\n        /* \"#utility.yul\":4938:5057   */\n      iszero\n      tag_147\n      jumpi\n        /* \"#utility.yul\":4976:5055   */\n      tag_148\n      tag_64\n      jump\t// in\n    tag_148:\n        /* \"#utility.yul\":4938:5057   */\n    tag_147:\n        /* \"#utility.yul\":5096:5097   */\n      0x00\n        /* \"#utility.yul\":5121:5174   */\n      tag_149\n        /* \"#utility.yul\":5166:5173   */\n      dup5\n        /* \"#utility.yul\":5157:5163   */\n      dup3\n        /* \"#utility.yul\":5146:5155   */\n      dup6\n        /* \"#utility.yul\":5142:5164   */\n      add\n        /* \"#utility.yul\":5121:5174   */\n      tag_71\n      jump\t// in\n    tag_149:\n        /* \"#utility.yul\":5111:5174   */\n      swap2\n      pop\n        /* \"#utility.yul\":5067:5184   */\n      pop\n        /* \"#utility.yul\":4862:5191   */\n      swap3\n      swap2\n      pop\n      pop\n      jump\t// out\n        /* \"#utility.yul\":5197:5359   */\n    tag_81:\n        /* \"#utility.yul\":5337:5351   */\n      0x556e617574686f72697a65640000000000000000000000000000000000000000\n        /* \"#utility.yul\":5333:5334   */\n      0x00\n        /* \"#utility.yul\":5325:5331   */\n      dup3\n        /* \"#utility.yul\":5321:5335   */\n      add\n        /* \"#utility.yul\":5314:5352   */\n      mstore\n        /* \"#utility.yul\":5197:5359   */\n      pop\n      jump\t// out\n        /* \"#utility.yul\":5365:5731   */\n    tag_82:\n        /* \"#utility.yul\":5507:5510   */\n      0x00\n        /* \"#utility.yul\":5528:5595   */\n      tag_152\n        /* \"#utility.yul\":5592:5594   */\n      0x0c\n        /* \"#utility.yul\":5587:5590   */\n      dup4\n        /* \"#utility.yul\":5528:5595   */\n      tag_73\n      jump\t// in\n    tag_152:\n        /* \"#utility.yul\":5521:5595   */\n      swap2\n      pop\n        /* \"#utility.yul\":5604:5697   */\n      tag_153\n        /* \"#utility.yul\":5693:5696   */\n      dup3\n        /* \"#utility.yul\":5604:5697   */\n      tag_81\n      jump\t// in\n    tag_153:\n        /* \"#utility.yul\":5722:5724   */\n      0x20\n        /* \"#utility.yul\":5717:5720   */\n      dup3\n        /* \"#utility.yul\":5713:5725   */\n      add\n        /* \"#utility.yul\":5706:5725   */\n      swap1\n      pop\n        /* \"#utility.yul\":5365:5731   */\n      swap2\n      swap1\n      pop\n      jump\t// out\n        /* \"#utility.yul\":5737:6156   */\n    tag_41:\n        /* \"#utility.yul\":5903:5907   */\n      0x00\n        /* \"#utility.yul\":5941:5943   */\n      0x20\n        /* \"#utility.yul\":5930:5939   */\n      dup3\n        /* \"#utility.yul\":5926:5944   */\n      add\n        /* \"#utility.yul\":5918:5944   */\n      swap1\n      pop\n        /* \"#utility.yul\":5990:5999   */\n      dup2\n        /* \"#utility.yul\":5984:5988   */\n      dup2\n        /* \"#utility.yul\":5980:6000   */\n      sub\n        /* \"#utility.yul\":5976:5977   */\n      0x00\n        /* \"#utility.yul\":5965:5974   */\n      dup4\n        /* \"#utility.yul\":5961:5978   */\n      add\n        /* \"#utility.yul\":5954:6001   */\n      mstore\n        /* \"#utility.yul\":6018:6149   */\n      tag_155\n        /* \"#utility.yul\":6144:6148   */\n      dup2\n        /* \"#utility.yul\":6018:6149   */\n      tag_82\n      jump\t// in\n    tag_155:\n        /* \"#utility.yul\":6010:6149   */\n      swap1\n      pop\n        /* \"#utility.yul\":5737:6156   */\n      swap2\n      swap1\n      pop\n      jump\t// out\n        /* \"#utility.yul\":6162:6329   */\n    tag_83:\n        /* \"#utility.yul\":6302:6321   */\n      0x4e6f7420656e6f75676820737570706c79000000000000000000000000000000\n        /* \"#utility.yul\":6298:6299   */\n      0x00\n        /* \"#utility.yul\":6290:6296   */\n      dup3\n        /* \"#utility.yul\":6286:6300   */\n      add\n        /* \"#utility.yul\":6279:6322   */\n      mstore\n        /* \"#utility.yul\":6162:6329   */\n      pop\n      jump\t// out\n        /* \"#utility.yul\":6335:6701   */\n    tag_84:\n        /* \"#utility.yul\":6477:6480   */\n      0x00\n        /* \"#utility.yul\":6498:6565   */\n      tag_158\n        /* \"#utility.yul\":6562:6564   */\n      0x11\n        /* \"#utility.yul\":6557:6560   */\n      dup4\n        /* \"#utility.yul\":6498:6565   */\n      tag_73\n      jump\t// in\n    tag_158:\n        /* \"#utility.yul\":6491:6565   */\n      swap2\n      pop\n        /* \"#utility.yul\":6574:6667   */\n      tag_159\n        /* \"#utility.yul\":6663:6666   */\n      dup3\n        /* \"#utility.yul\":6574:6667   */\n      tag_83\n      jump\t// in\n    tag_159:\n        /* \"#utility.yul\":6692:6694   */\n      0x20\n        /* \"#utility.yul\":6687:6690   */\n      dup3\n        /* \"#utility.yul\":6683:6695   */\n      add\n        /* \"#utility.yul\":6676:6695   */\n      swap1\n      pop\n        /* \"#utility.yul\":6335:6701   */\n      swap2\n      swap1\n      pop\n      jump\t// out\n        /* \"#utility.yul\":6707:7126   */\n    tag_45:\n        /* \"#utility.yul\":6873:6877   */\n      0x00\n        /* \"#utility.yul\":6911:6913   */\n      0x20\n        /* \"#utility.yul\":6900:6909   */\n      dup3\n        /* \"#utility.yul\":6896:6914   */\n      add\n        /* \"#utility.yul\":6888:6914   */\n      swap1\n      pop\n        /* \"#utility.yul\":6960:6969   */\n      dup2\n        /* \"#utility.yul\":6954:6958   */\n      dup2\n        /* \"#utility.yul\":6950:6970   */\n      sub\n        /* \"#utility.yul\":6946:6947   */\n      0x00\n        /* \"#utility.yul\":6935:6944   */\n      dup4\n        /* \"#utility.yul\":6931:6948   */\n      add\n        /* \"#utility.yul\":6924:6971   */\n      mstore\n        /* \"#utility.yul\":6988:7119   */\n      tag_161\n        /* \"#utility.yul\":7114:7118   */\n      dup2\n        /* \"#utility.yul\":6988:7119   */\n      tag_84\n      jump\t// in\n    tag_161:\n        /* \"#utility.yul\":6980:7119   */\n      swap1\n      pop\n        /* \"#utility.yul\":6707:7126   */\n      swap2\n      swap1\n      pop\n      jump\t// out\n        /* \"#utility.yul\":7132:7312   */\n    tag_85:\n        /* \"#utility.yul\":7180:7257   */\n      0x4e487b7100000000000000000000000000000000000000000000000000000000\n        /* \"#utility.yul\":7177:7178   */\n      0x00\n        /* \"#utility.yul\":7170:7258   */\n      mstore\n        /* \"#utility.yul\":7277:7281   */\n      0x11\n        /* \"#utility.yul\":7274:7275   */\n      0x04\n        /* \"#utility.yul\":7267:7282   */\n      mstore\n        /* \"#utility.yul\":7301:7305   */\n      0x24\n        /* \"#utility.yul\":7298:7299   */\n      0x00\n        /* \"#utility.yul\":7291:7306   */\n      revert\n        /* \"#utility.yul\":7318:7509   */\n    tag_47:\n        /* \"#utility.yul\":7358:7361   */\n      0x00\n        /* \"#utility.yul\":7377:7397   */\n      tag_164\n        /* \"#utility.yul\":7395:7396   */\n      dup3\n        /* \"#utility.yul\":7377:7397   */\n      tag_61\n      jump\t// in\n    tag_164:\n        /* \"#utility.yul\":7372:7397   */\n      swap2\n      pop\n        /* \"#utility.yul\":7411:7431   */\n      tag_165\n        /* \"#utility.yul\":7429:7430   */\n      dup4\n        /* \"#utility.yul\":7411:7431   */\n      tag_61\n      jump\t// in\n    tag_165:\n        /* \"#utility.yul\":7406:7431   */\n      swap3\n      pop\n        /* \"#utility.yul\":7454:7455   */\n      dup3\n        /* \"#utility.yul\":7451:7452   */\n      dup3\n        /* \"#utility.yul\":7447:7456   */\n      add\n        /* \"#utility.yul\":7440:7456   */\n      swap1\n      pop\n        /* \"#utility.yul\":7475:7478   */\n      dup1\n        /* \"#utility.yul\":7472:7473   */\n      dup3\n        /* \"#utility.yul\":7469:7479   */\n      gt\n        /* \"#utility.yul\":7466:7502   */\n      iszero\n      tag_166\n      jumpi\n        /* \"#utility.yul\":7482:7500   */\n      tag_167\n      tag_85\n      jump\t// in\n    tag_167:\n        /* \"#utility.yul\":7466:7502   */\n    tag_166:\n        /* \"#utility.yul\":7318:7509   */\n      swap3\n      swap2\n      pop\n      pop\n      jump\t// out\n        /* \"#utility.yul\":7515:7709   */\n    tag_49:\n        /* \"#utility.yul\":7555:7559   */\n      0x00\n        /* \"#utility.yul\":7575:7595   */\n      tag_169\n        /* \"#utility.yul\":7593:7594   */\n      dup3\n        /* \"#utility.yul\":7575:7595   */\n      tag_61\n      jump\t// in\n    tag_169:\n        /* \"#utility.yul\":7570:7595   */\n      swap2\n      pop\n        /* \"#utility.yul\":7609:7629   */\n      tag_170\n        /* \"#utility.yul\":7627:7628   */\n      dup4\n        /* \"#utility.yul\":7609:7629   */\n      tag_61\n      jump\t// in\n    tag_170:\n        /* \"#utility.yul\":7604:7629   */\n      swap3\n      pop\n        /* \"#utility.yul\":7653:7654   */\n      dup3\n        /* \"#utility.yul\":7650:7651   */\n      dup3\n        /* \"#utility.yul\":7646:7655   */\n      sub\n        /* \"#utility.yul\":7638:7655   */\n      swap1\n      pop\n        /* \"#utility.yul\":7677:7678   */\n      dup2\n        /* \"#utility.yul\":7671:7675   */\n      dup2\n        /* \"#utility.yul\":7668:7679   */\n      gt\n        /* \"#utility.yul\":7665:7702   */\n      iszero\n      tag_171\n      jumpi\n        /* \"#utility.yul\":7682:7700   */\n      tag_172\n      tag_85\n      jump\t// in\n    tag_172:\n        /* \"#utility.yul\":7665:7702   */\n    tag_171:\n        /* \"#utility.yul\":7515:7709   */\n      swap3\n      swap2\n      pop\n      pop\n      jump\t// out\n        /* \"#utility.yul\":7715:7885   */\n    tag_86:\n        /* \"#utility.yul\":7855:7877   */\n      0x496e73756666696369656e742062616c616e6365000000000000000000000000\n        /* \"#utility.yul\":7851:7852   */\n      0x00\n        /* \"#utility.yul\":7843:7849   */\n      dup3\n        /* \"#utility.yul\":7839:7853   */\n      add\n        /* \"#utility.yul\":7832:7878   */\n      mstore\n        /* \"#utility.yul\":7715:7885   */\n      pop\n      jump\t// out\n        /* \"#utility.yul\":7891:8257   */\n    tag_87:\n        /* \"#utility.yul\":8033:8036   */\n      0x00\n        /* \"#utility.yul\":8054:8121   */\n      tag_175\n        /* \"#utility.yul\":8118:8120   */\n      0x14\n        /* \"#utility.yul\":8113:8116   */\n      dup4\n        /* \"#utility.yul\":8054:8121   */\n      tag_73\n      jump\t// in\n    tag_175:\n        /* \"#utility.yul\":8047:8121   */\n      swap2\n      pop\n        /* \"#utility.yul\":8130:8223   */\n      tag_176\n        /* \"#utility.yul\":8219:8222   */\n      dup3\n        /* \"#utility.yul\":8130:8223   */\n      tag_86\n      jump\t// in\n    tag_176:\n        /* \"#utility.yul\":8248:8250   */\n      0x20\n        /* \"#utility.yul\":8243:8246   */\n      dup3\n        /* \"#utility.yul\":8239:8251   */\n      add\n        /* \"#utility.yul\":8232:8251   */\n      swap1\n      pop\n        /* \"#utility.yul\":7891:8257   */\n      swap2\n      swap1\n      pop\n      jump\t// out\n        /* \"#utility.yul\":8263:8682   */\n    tag_54:\n        /* \"#utility.yul\":8429:8433   */\n      0x00\n        /* \"#utility.yul\":8467:8469   */\n      0x20\n        /* \"#utility.yul\":8456:8465   */\n      dup3\n        /* \"#utility.yul\":8452:8470   */\n      add\n        /* \"#utility.yul\":8444:8470   */\n      swap1\n      pop\n        /* \"#utility.yul\":8516:8525   */\n      dup2\n        /* \"#utility.yul\":8510:8514   */\n      dup2\n        /* \"#utility.yul\":8506:8526   */\n      sub\n        /* \"#utility.yul\":8502:8503   */\n      0x00\n        /* \"#utility.yul\":8491:8500   */\n      dup4\n        /* \"#utility.yul\":8487:8504   */\n      add\n        /* \"#utility.yul\":8480:8527   */\n      mstore\n        /* \"#utility.yul\":8544:8675   */\n      tag_178\n        /* \"#utility.yul\":8670:8674   */\n      dup2\n        /* \"#utility.yul\":8544:8675   */\n      tag_87\n      jump\t// in\n    tag_178:\n        /* \"#utility.yul\":8536:8675   */\n      swap1\n      pop\n        /* \"#utility.yul\":8263:8682   */\n      swap2\n      swap1\n      pop\n      jump\t// out\n\n    auxdata: 0xa2646970667358221220be8ceab62f3dc694b13f2075094968913f0cd2b91a48b94424ee0b3388519cba64736f6c634300081a0033\n}\n",
				"bytecode": {
					"linkReferences": {},
					"object": "60806040525f6002553480156012575f80fd5b50335f806101000a81548173ffffffffffffffffffffffffffffffffffffffff021916908373ffffffffffffffffffffffffffffffffffffffff160217905550610b2c8061005f5f395ff3fe608060405234801561000f575f80fd5b5060043610610060575f3560e01c8063047fc9aa14610064578063449a52f81461008257806370a08231146100b25780638da5cb5b146100e2578063a9059cbb14610100578063bf35a18c14610130575b5f80fd5b61006c610160565b60405161007991906106c5565b60405180910390f35b61009c60048036038101906100979190610766565b610166565b6040516100a99190610814565b60405180910390f35b6100cc60048036038101906100c7919061086f565b610399565b6040516100d991906106c5565b60405180910390f35b6100ea6103df565b6040516100f791906108a9565b60405180910390f35b61011a600480360381019061011591906108c2565b610402565b6040516101279190610814565b60405180910390f35b61014a60048036038101906101459190610900565b610556565b6040516101579190610814565b60405180910390f35b60025481565b60605f8054906101000a900473ffffffffffffffffffffffffffffffffffffffff1673ffffffffffffffffffffffffffffffffffffffff163373ffffffffffffffffffffffffffffffffffffffff16146101f5576040517f08c379a00000000000000000000000000000000000000000000000000000000081526004016101ec90610975565b60405180910390fd5b60015f805f9054906101000a900473ffffffffffffffffffffffffffffffffffffffff1673ffffffffffffffffffffffffffffffffffffffff1673ffffffffffffffffffffffffffffffffffffffff1681526020019081526020015f2054821115610295576040517f08c379a000000000000000000000000000000000000000000000000000000000815260040161028c906109dd565b60405180910390fd5b8160015f8573ffffffffffffffffffffffffffffffffffffffff1673ffffffffffffffffffffffffffffffffffffffff1681526020019081526020015f205f8282546102e19190610a28565b925050819055508160015f805f9054906101000a900473ffffffffffffffffffffffffffffffffffffffff1673ffffffffffffffffffffffffffffffffffffffff1673ffffffffffffffffffffffffffffffffffffffff1681526020019081526020015f205f8282546103549190610a5b565b925050819055506040518060400160405280601381526020017f4d696e746564207375636365737366756c6c7900000000000000000000000000815250905092915050565b5f60015f8373ffffffffffffffffffffffffffffffffffffffff1673ffffffffffffffffffffffffffffffffffffffff1681526020019081526020015f20549050919050565b5f8054906101000a900473ffffffffffffffffffffffffffffffffffffffff1681565b60608160015f3373ffffffffffffffffffffffffffffffffffffffff1673ffffffffffffffffffffffffffffffffffffffff1681526020019081526020015f20541015610484576040517f08c379a000000000000000000000000000000000000000000000000000000000815260040161047b90610ad8565b60405180910390fd5b8160015f3373ffffffffffffffffffffffffffffffffffffffff1673ffffffffffffffffffffffffffffffffffffffff1681526020019081526020015f205f82825403925050819055508160015f8573ffffffffffffffffffffffffffffffffffffffff1673ffffffffffffffffffffffffffffffffffffffff1681526020019081526020015f205f82825401925050819055506040518060400160405280601881526020017f5375636365737366756c6c79207472616e736665727265640000000000000000815250905092915050565b60605f8054906101000a900473ffffffffffffffffffffffffffffffffffffffff1673ffffffffffffffffffffffffffffffffffffffff163373ffffffffffffffffffffffffffffffffffffffff16146105e5576040517f08c379a00000000000000000000000000000000000000000000000000000000081526004016105dc90610975565b60405180910390fd5b8160015f805f9054906101000a900473ffffffffffffffffffffffffffffffffffffffff1673ffffffffffffffffffffffffffffffffffffffff1673ffffffffffffffffffffffffffffffffffffffff1681526020019081526020015f205f8282546106519190610a28565b925050819055508160025f8282546106699190610a28565b925050819055506040518060400160405280601381526020017f5375636365737366756c6c79206d696e746564000000000000000000000000008152509050919050565b5f819050919050565b6106bf816106ad565b82525050565b5f6020820190506106d85f8301846106b6565b92915050565b5f80fd5b5f73ffffffffffffffffffffffffffffffffffffffff82169050919050565b5f61070b826106e2565b9050919050565b61071b81610701565b8114610725575f80fd5b50565b5f8135905061073681610712565b92915050565b610745816106ad565b811461074f575f80fd5b50565b5f813590506107608161073c565b92915050565b5f806040838503121561077c5761077b6106de565b5b5f61078985828601610728565b925050602061079a85828601610752565b9150509250929050565b5f81519050919050565b5f82825260208201905092915050565b8281835e5f83830152505050565b5f601f19601f8301169050919050565b5f6107e6826107a4565b6107f081856107ae565b93506108008185602086016107be565b610809816107cc565b840191505092915050565b5f6020820190508181035f83015261082c81846107dc565b905092915050565b5f61083e826106e2565b9050919050565b61084e81610834565b8114610858575f80fd5b50565b5f8135905061086981610845565b92915050565b5f60208284031215610884576108836106de565b5b5f6108918482850161085b565b91505092915050565b6108a381610834565b82525050565b5f6020820190506108bc5f83018461089a565b92915050565b5f80604083850312156108d8576108d76106de565b5b5f6108e58582860161085b565b92505060206108f685828601610752565b9150509250929050565b5f60208284031215610915576109146106de565b5b5f61092284828501610752565b91505092915050565b7f556e617574686f72697a656400000000000000000000000000000000000000005f82015250565b5f61095f600c836107ae565b915061096a8261092b565b602082019050919050565b5f6020820190508181035f83015261098c81610953565b9050919050565b7f4e6f7420656e6f75676820737570706c790000000000000000000000000000005f82015250565b5f6109c76011836107ae565b91506109d282610993565b602082019050919050565b5f6020820190508181035f8301526109f4816109bb565b9050919050565b7f4e487b71000000000000000000000000000000000000000000000000000000005f52601160045260245ffd5b5f610a32826106ad565b9150610a3d836106ad565b9250828201905080821115610a5557610a546109fb565b5b92915050565b5f610a65826106ad565b9150610a70836106ad565b9250828203905081811115610a8857610a876109fb565b5b92915050565b7f496e73756666696369656e742062616c616e63650000000000000000000000005f82015250565b5f610ac26014836107ae565b9150610acd82610a8e565b602082019050919050565b5f6020820190508181035f830152610aef81610ab6565b905091905056fea2646970667358221220be8ceab62f3dc694b13f2075094968913f0cd2b91a48b94424ee0b3388519cba64736f6c634300081a0033",
					"opcodes": "PUSH1 0x80 PUSH1 0x40 MSTORE PUSH0 PUSH1 0x2 SSTORE CALLVALUE DUP1 ISZERO PUSH1 0x12 JUMPI PUSH0 DUP1 REVERT JUMPDEST POP CALLER PUSH0 DUP1 PUSH2 0x100 EXP DUP2 SLOAD DUP2 PUSH20 0xFFFFFFFFFFFFFFFFFFFFFFFFFFFFFFFFFFFFFFFF MUL NOT AND SWAP1 DUP4 PUSH20 0xFFFFFFFFFFFFFFFFFFFFFFFFFFFFFFFFFFFFFFFF AND MUL OR SWAP1 SSTORE POP PUSH2 0xB2C DUP1 PUSH2 0x5F PUSH0 CODECOPY PUSH0 RETURN INVALID PUSH1 0x80 PUSH1 0x40 MSTORE CALLVALUE DUP1 ISZERO PUSH2 0xF JUMPI PUSH0 DUP1 REVERT JUMPDEST POP PUSH1 0x4 CALLDATASIZE LT PUSH2 0x60 JUMPI PUSH0 CALLDATALOAD PUSH1 0xE0 SHR DUP1 PUSH4 0x47FC9AA EQ PUSH2 0x64 JUMPI DUP1 PUSH4 0x449A52F8 EQ PUSH2 0x82 JUMPI DUP1 PUSH4 0x70A08231 EQ PUSH2 0xB2 JUMPI DUP1 PUSH4 0x8DA5CB5B EQ PUSH2 0xE2 JUMPI DUP1 PUSH4 0xA9059CBB EQ PUSH2 0x100 JUMPI DUP1 PUSH4 0xBF35A18C EQ PUSH2 0x130 JUMPI JUMPDEST PUSH0 DUP1 REVERT JUMPDEST PUSH2 0x6C PUSH2 0x160 JUMP JUMPDEST PUSH1 0x40 MLOAD PUSH2 0x79 SWAP2 SWAP1 PUSH2 0x6C5 JUMP JUMPDEST PUSH1 0x40 MLOAD DUP1 SWAP2 SUB SWAP1 RETURN JUMPDEST PUSH2 0x9C PUSH1 0x4 DUP1 CALLDATASIZE SUB DUP2 ADD SWAP1 PUSH2 0x97 SWAP2 SWAP1 PUSH2 0x766 JUMP JUMPDEST PUSH2 0x166 JUMP JUMPDEST PUSH1 0x40 MLOAD PUSH2 0xA9 SWAP2 SWAP1 PUSH2 0x814 JUMP JUMPDEST PUSH1 0x40 MLOAD DUP1 SWAP2 SUB SWAP1 RETURN JUMPDEST PUSH2 0xCC PUSH1 0x4 DUP1 CALLDATASIZE SUB DUP2 ADD SWAP1 PUSH2 0xC7 SWAP2 SWAP1 PUSH2 0x86F JUMP JUMPDEST PUSH2 0x399 JUMP JUMPDEST PUSH1 0x40 MLOAD PUSH2 0xD9 SWAP2 SWAP1 PUSH2 0x6C5 JUMP JUMPDEST PUSH1 0x40 MLOAD DUP1 SWAP2 SUB SWAP1 RETURN JUMPDEST PUSH2 0xEA PUSH2 0x3DF JUMP JUMPDEST PUSH1 0x40 MLOAD PUSH2 0xF7 SWAP2 SWAP1 PUSH2 0x8A9 JUMP JUMPDEST PUSH1 0x40 MLOAD DUP1 SWAP2 SUB SWAP1 RETURN JUMPDEST PUSH2 0x11A PUSH1 0x4 DUP1 CALLDATASIZE SUB DUP2 ADD SWAP1 PUSH2 0x115 SWAP2 SWAP1 PUSH2 0x8C2 JUMP JUMPDEST PUSH2 0x402 JUMP JUMPDEST PUSH1 0x40 MLOAD PUSH2 0x127 SWAP2 SWAP1 PUSH2 0x814 JUMP JUMPDEST PUSH1 0x40 MLOAD DUP1 SWAP2 SUB SWAP1 RETURN JUMPDEST PUSH2 0x14A PUSH1 0x4 DUP1 CALLDATASIZE SUB DUP2 ADD SWAP1 PUSH2 0x145 SWAP2 SWAP1 PUSH2 0x900 JUMP JUMPDEST PUSH2 0x556 JUMP JUMPDEST PUSH1 0x40 MLOAD PUSH2 0x157 SWAP2 SWAP1 PUSH2 0x814 JUMP JUMPDEST PUSH1 0x40 MLOAD DUP1 SWAP2 SUB SWAP1 RETURN JUMPDEST PUSH1 0x2 SLOAD DUP2 JUMP JUMPDEST PUSH1 0x60 PUSH0 DUP1 SLOAD SWAP1 PUSH2 0x100 EXP SWAP1 DIV PUSH20 0xFFFFFFFFFFFFFFFFFFFFFFFFFFFFFFFFFFFFFFFF AND PUSH20 0xFFFFFFFFFFFFFFFFFFFFFFFFFFFFFFFFFFFFFFFF AND CALLER PUSH20 0xFFFFFFFFFFFFFFFFFFFFFFFFFFFFFFFFFFFFFFFF AND EQ PUSH2 0x1F5 JUMPI PUSH1 0x40 MLOAD PUSH32 0x8C379A000000000000000000000000000000000000000000000000000000000 DUP2 MSTORE PUSH1 0x4 ADD PUSH2 0x1EC SWAP1 PUSH2 0x975 JUMP JUMPDEST PUSH1 0x40 MLOAD DUP1 SWAP2 SUB SWAP1 REVERT JUMPDEST PUSH1 0x1 PUSH0 DUP1 PUSH0 SWAP1 SLOAD SWAP1 PUSH2 0x100 EXP SWAP1 DIV PUSH20 0xFFFFFFFFFFFFFFFFFFFFFFFFFFFFFFFFFFFFFFFF AND PUSH20 0xFFFFFFFFFFFFFFFFFFFFFFFFFFFFFFFFFFFFFFFF AND PUSH20 0xFFFFFFFFFFFFFFFFFFFFFFFFFFFFFFFFFFFFFFFF AND DUP2 MSTORE PUSH1 0x20 ADD SWAP1 DUP2 MSTORE PUSH1 0x20 ADD PUSH0 KECCAK256 SLOAD DUP3 GT ISZERO PUSH2 0x295 JUMPI PUSH1 0x40 MLOAD PUSH32 0x8C379A000000000000000000000000000000000000000000000000000000000 DUP2 MSTORE PUSH1 0x4 ADD PUSH2 0x28C SWAP1 PUSH2 0x9DD JUMP JUMPDEST PUSH1 0x40 MLOAD DUP1 SWAP2 SUB SWAP1 REVERT JUMPDEST DUP2 PUSH1 0x1 PUSH0 DUP6 PUSH20 0xFFFFFFFFFFFFFFFFFFFFFFFFFFFFFFFFFFFFFFFF AND PUSH20 0xFFFFFFFFFFFFFFFFFFFFFFFFFFFFFFFFFFFFFFFF AND DUP2 MSTORE PUSH1 0x20 ADD SWAP1 DUP2 MSTORE PUSH1 0x20 ADD PUSH0 KECCAK256 PUSH0 DUP3 DUP3 SLOAD PUSH2 0x2E1 SWAP2 SWAP1 PUSH2 0xA28 JUMP JUMPDEST SWAP3 POP POP DUP2 SWAP1 SSTORE POP DUP2 PUSH1 0x1 PUSH0 DUP1 PUSH0 SWAP1 SLOAD SWAP1 PUSH2 0x100 EXP SWAP1 DIV PUSH20 0xFFFFFFFFFFFFFFFFFFFFFFFFFFFFFFFFFFFFFFFF AND PUSH20 0xFFFFFFFFFFFFFFFFFFFFFFFFFFFFFFFFFFFFFFFF AND PUSH20 0xFFFFFFFFFFFFFFFFFFFFFFFFFFFFFFFFFFFFFFFF AND DUP2 MSTORE PUSH1 0x20 ADD SWAP1 DUP2 MSTORE PUSH1 0x20 ADD PUSH0 KECCAK256 PUSH0 DUP3 DUP3 SLOAD PUSH2 0x354 SWAP2 SWAP1 PUSH2 0xA5B JUMP JUMPDEST SWAP3 POP POP DUP2 SWAP1 SSTORE POP PUSH1 0x40 MLOAD DUP1 PUSH1 0x40 ADD PUSH1 0x40 MSTORE DUP1 PUSH1 0x13 DUP2 MSTORE PUSH1 0x20 ADD PUSH32 0x4D696E746564207375636365737366756C6C7900000000000000000000000000 DUP2 MSTORE POP SWAP1 POP SWAP3 SWAP2 POP POP JUMP JUMPDEST PUSH0 PUSH1 0x1 PUSH0 DUP4 PUSH20 0xFFFFFFFFFFFFFFFFFFFFFFFFFFFFFFFFFFFFFFFF AND PUSH20 0xFFFFFFFFFFFFFFFFFFFFFFFFFFFFFFFFFFFFFFFF AND DUP2 MSTORE PUSH1 0x20 ADD SWAP1 DUP2 MSTORE PUSH1 0x20 ADD PUSH0 KECCAK256 SLOAD SWAP1 POP SWAP2 SWAP1 POP JUMP JUMPDEST PUSH0 DUP1 SLOAD SWAP1 PUSH2 0x100 EXP SWAP1 DIV PUSH20 0xFFFFFFFFFFFFFFFFFFFFFFFFFFFFFFFFFFFFFFFF AND DUP2 JUMP JUMPDEST PUSH1 0x60 DUP2 PUSH1 0x1 PUSH0 CALLER PUSH20 0xFFFFFFFFFFFFFFFFFFFFFFFFFFFFFFFFFFFFFFFF AND PUSH20 0xFFFFFFFFFFFFFFFFFFFFFFFFFFFFFFFFFFFFFFFF AND DUP2 MSTORE PUSH1 0x20 ADD SWAP1 DUP2 MSTORE PUSH1 0x20 ADD PUSH0 KECCAK256 SLOAD LT ISZERO PUSH2 0x484 JUMPI PUSH1 0x40 MLOAD PUSH32 0x8C379A000000000000000000000000000000000000000000000000000000000 DUP2 MSTORE PUSH1 0x4 ADD PUSH2 0x47B SWAP1 PUSH2 0xAD8 JUMP JUMPDEST PUSH1 0x40 MLOAD DUP1 SWAP2 SUB SWAP1 REVERT JUMPDEST DUP2 PUSH1 0x1 PUSH0 CALLER PUSH20 0xFFFFFFFFFFFFFFFFFFFFFFFFFFFFFFFFFFFFFFFF AND PUSH20 0xFFFFFFFFFFFFFFFFFFFFFFFFFFFFFFFFFFFFFFFF AND DUP2 MSTORE PUSH1 0x20 ADD SWAP1 DUP2 MSTORE PUSH1 0x20 ADD PUSH0 KECCAK256 PUSH0 DUP3 DUP3 SLOAD SUB SWAP3 POP POP DUP2 SWAP1 SSTORE POP DUP2 PUSH1 0x1 PUSH0 DUP6 PUSH20 0xFFFFFFFFFFFFFFFFFFFFFFFFFFFFFFFFFFFFFFFF AND PUSH20 0xFFFFFFFFFFFFFFFFFFFFFFFFFFFFFFFFFFFFFFFF AND DUP2 MSTORE PUSH1 0x20 ADD SWAP1 DUP2 MSTORE PUSH1 0x20 ADD PUSH0 KECCAK256 PUSH0 DUP3 DUP3 SLOAD ADD SWAP3 POP POP DUP2 SWAP1 SSTORE POP PUSH1 0x40 MLOAD DUP1 PUSH1 0x40 ADD PUSH1 0x40 MSTORE DUP1 PUSH1 0x18 DUP2 MSTORE PUSH1 0x20 ADD PUSH32 0x5375636365737366756C6C79207472616E736665727265640000000000000000 DUP2 MSTORE POP SWAP1 POP SWAP3 SWAP2 POP POP JUMP JUMPDEST PUSH1 0x60 PUSH0 DUP1 SLOAD SWAP1 PUSH2 0x100 EXP SWAP1 DIV PUSH20 0xFFFFFFFFFFFFFFFFFFFFFFFFFFFFFFFFFFFFFFFF AND PUSH20 0xFFFFFFFFFFFFFFFFFFFFFFFFFFFFFFFFFFFFFFFF AND CALLER PUSH20 0xFFFFFFFFFFFFFFFFFFFFFFFFFFFFFFFFFFFFFFFF AND EQ PUSH2 0x5E5 JUMPI PUSH1 0x40 MLOAD PUSH32 0x8C379A000000000000000000000000000000000000000000000000000000000 DUP2 MSTORE PUSH1 0x4 ADD PUSH2 0x5DC SWAP1 PUSH2 0x975 JUMP JUMPDEST PUSH1 0x40 MLOAD DUP1 SWAP2 SUB SWAP1 REVERT JUMPDEST DUP2 PUSH1 0x1 PUSH0 DUP1 PUSH0 SWAP1 SLOAD SWAP1 PUSH2 0x100 EXP SWAP1 DIV PUSH20 0xFFFFFFFFFFFFFFFFFFFFFFFFFFFFFFFFFFFFFFFF AND PUSH20 0xFFFFFFFFFFFFFFFFFFFFFFFFFFFFFFFFFFFFFFFF AND PUSH20 0xFFFFFFFFFFFFFFFFFFFFFFFFFFFFFFFFFFFFFFFF AND DUP2 MSTORE PUSH1 0x20 ADD SWAP1 DUP2 MSTORE PUSH1 0x20 ADD PUSH0 KECCAK256 PUSH0 DUP3 DUP3 SLOAD PUSH2 0x651 SWAP2 SWAP1 PUSH2 0xA28 JUMP JUMPDEST SWAP3 POP POP DUP2 SWAP1 SSTORE POP DUP2 PUSH1 0x2 PUSH0 DUP3 DUP3 SLOAD PUSH2 0x669 SWAP2 SWAP1 PUSH2 0xA28 JUMP JUMPDEST SWAP3 POP POP DUP2 SWAP1 SSTORE POP PUSH1 0x40 MLOAD DUP1 PUSH1 0x40 ADD PUSH1 0x40 MSTORE DUP1 PUSH1 0x13 DUP2 MSTORE PUSH1 0x20 ADD PUSH32 0x5375636365737366756C6C79206D696E74656400000000000000000000000000 DUP2 MSTORE POP SWAP1 POP SWAP2 SWAP1 POP JUMP JUMPDEST PUSH0 DUP2 SWAP1 POP SWAP2 SWAP1 POP JUMP JUMPDEST PUSH2 0x6BF DUP2 PUSH2 0x6AD JUMP JUMPDEST DUP3 MSTORE POP POP JUMP JUMPDEST PUSH0 PUSH1 0x20 DUP3 ADD SWAP1 POP PUSH2 0x6D8 PUSH0 DUP4 ADD DUP5 PUSH2 0x6B6 JUMP JUMPDEST SWAP3 SWAP2 POP POP JUMP JUMPDEST PUSH0 DUP1 REVERT JUMPDEST PUSH0 PUSH20 0xFFFFFFFFFFFFFFFFFFFFFFFFFFFFFFFFFFFFFFFF DUP3 AND SWAP1 POP SWAP2 SWAP1 POP JUMP JUMPDEST PUSH0 PUSH2 0x70B DUP3 PUSH2 0x6E2 JUMP JUMPDEST SWAP1 POP SWAP2 SWAP1 POP JUMP JUMPDEST PUSH2 0x71B DUP2 PUSH2 0x701 JUMP JUMPDEST DUP2 EQ PUSH2 0x725 JUMPI PUSH0 DUP1 REVERT JUMPDEST POP JUMP JUMPDEST PUSH0 DUP2 CALLDATALOAD SWAP1 POP PUSH2 0x736 DUP2 PUSH2 0x712 JUMP JUMPDEST SWAP3 SWAP2 POP POP JUMP JUMPDEST PUSH2 0x745 DUP2 PUSH2 0x6AD JUMP JUMPDEST DUP2 EQ PUSH2 0x74F JUMPI PUSH0 DUP1 REVERT JUMPDEST POP JUMP JUMPDEST PUSH0 DUP2 CALLDATALOAD SWAP1 POP PUSH2 0x760 DUP2 PUSH2 0x73C JUMP JUMPDEST SWAP3 SWAP2 POP POP JUMP JUMPDEST PUSH0 DUP1 PUSH1 0x40 DUP4 DUP6 SUB SLT ISZERO PUSH2 0x77C JUMPI PUSH2 0x77B PUSH2 0x6DE JUMP JUMPDEST JUMPDEST PUSH0 PUSH2 0x789 DUP6 DUP3 DUP7 ADD PUSH2 0x728 JUMP JUMPDEST SWAP3 POP POP PUSH1 0x20 PUSH2 0x79A DUP6 DUP3 DUP7 ADD PUSH2 0x752 JUMP JUMPDEST SWAP2 POP POP SWAP3 POP SWAP3 SWAP1 POP JUMP JUMPDEST PUSH0 DUP2 MLOAD SWAP1 POP SWAP2 SWAP1 POP JUMP JUMPDEST PUSH0 DUP3 DUP3 MSTORE PUSH1 0x20 DUP3 ADD SWAP1 POP SWAP3 SWAP2 POP POP JUMP JUMPDEST DUP3 DUP2 DUP4 MCOPY PUSH0 DUP4 DUP4 ADD MSTORE POP POP POP JUMP JUMPDEST PUSH0 PUSH1 0x1F NOT PUSH1 0x1F DUP4 ADD AND SWAP1 POP SWAP2 SWAP1 POP JUMP JUMPDEST PUSH0 PUSH2 0x7E6 DUP3 PUSH2 0x7A4 JUMP JUMPDEST PUSH2 0x7F0 DUP2 DUP6 PUSH2 0x7AE JUMP JUMPDEST SWAP4 POP PUSH2 0x800 DUP2 DUP6 PUSH1 0x20 DUP7 ADD PUSH2 0x7BE JUMP JUMPDEST PUSH2 0x809 DUP2 PUSH2 0x7CC JUMP JUMPDEST DUP5 ADD SWAP2 POP POP SWAP3 SWAP2 POP POP JUMP JUMPDEST PUSH0 PUSH1 0x20 DUP3 ADD SWAP1 POP DUP2 DUP2 SUB PUSH0 DUP4 ADD MSTORE PUSH2 0x82C DUP2 DUP5 PUSH2 0x7DC JUMP JUMPDEST SWAP1 POP SWAP3 SWAP2 POP POP JUMP JUMPDEST PUSH0 PUSH2 0x83E DUP3 PUSH2 0x6E2 JUMP JUMPDEST SWAP1 POP SWAP2 SWAP1 POP JUMP JUMPDEST PUSH2 0x84E DUP2 PUSH2 0x834 JUMP JUMPDEST DUP2 EQ PUSH2 0x858 JUMPI PUSH0 DUP1 REVERT JUMPDEST POP JUMP JUMPDEST PUSH0 DUP2 CALLDATALOAD SWAP1 POP PUSH2 0x869 DUP2 PUSH2 0x845 JUMP JUMPDEST SWAP3 SWAP2 POP POP JUMP JUMPDEST PUSH0 PUSH1 0x20 DUP3 DUP5 SUB SLT ISZERO PUSH2 0x884 JUMPI PUSH2 0x883 PUSH2 0x6DE JUMP JUMPDEST JUMPDEST PUSH0 PUSH2 0x891 DUP5 DUP3 DUP6 ADD PUSH2 0x85B JUMP JUMPDEST SWAP2 POP POP SWAP3 SWAP2 POP POP JUMP JUMPDEST PUSH2 0x8A3 DUP2 PUSH2 0x834 JUMP JUMPDEST DUP3 MSTORE POP POP JUMP JUMPDEST PUSH0 PUSH1 0x20 DUP3 ADD SWAP1 POP PUSH2 0x8BC PUSH0 DUP4 ADD DUP5 PUSH2 0x89A JUMP JUMPDEST SWAP3 SWAP2 POP POP JUMP JUMPDEST PUSH0 DUP1 PUSH1 0x40 DUP4 DUP6 SUB SLT ISZERO PUSH2 0x8D8 JUMPI PUSH2 0x8D7 PUSH2 0x6DE JUMP JUMPDEST JUMPDEST PUSH0 PUSH2 0x8E5 DUP6 DUP3 DUP7 ADD PUSH2 0x85B JUMP JUMPDEST SWAP3 POP POP PUSH1 0x20 PUSH2 0x8F6 DUP6 DUP3 DUP7 ADD PUSH2 0x752 JUMP JUMPDEST SWAP2 POP POP SWAP3 POP SWAP3 SWAP1 POP JUMP JUMPDEST PUSH0 PUSH1 0x20 DUP3 DUP5 SUB SLT ISZERO PUSH2 0x915 JUMPI PUSH2 0x914 PUSH2 0x6DE JUMP JUMPDEST JUMPDEST PUSH0 PUSH2 0x922 DUP5 DUP3 DUP6 ADD PUSH2 0x752 JUMP JUMPDEST SWAP2 POP POP SWAP3 SWAP2 POP POP JUMP JUMPDEST PUSH32 0x556E617574686F72697A65640000000000000000000000000000000000000000 PUSH0 DUP3 ADD MSTORE POP JUMP JUMPDEST PUSH0 PUSH2 0x95F PUSH1 0xC DUP4 PUSH2 0x7AE JUMP JUMPDEST SWAP2 POP PUSH2 0x96A DUP3 PUSH2 0x92B JUMP JUMPDEST PUSH1 0x20 DUP3 ADD SWAP1 POP SWAP2 SWAP1 POP JUMP JUMPDEST PUSH0 PUSH1 0x20 DUP3 ADD SWAP1 POP DUP2 DUP2 SUB PUSH0 DUP4 ADD MSTORE PUSH2 0x98C DUP2 PUSH2 0x953 JUMP JUMPDEST SWAP1 POP SWAP2 SWAP1 POP JUMP JUMPDEST PUSH32 0x4E6F7420656E6F75676820737570706C79000000000000000000000000000000 PUSH0 DUP3 ADD MSTORE POP JUMP JUMPDEST PUSH0 PUSH2 0x9C7 PUSH1 0x11 DUP4 PUSH2 0x7AE JUMP JUMPDEST SWAP2 POP PUSH2 0x9D2 DUP3 PUSH2 0x993 JUMP JUMPDEST PUSH1 0x20 DUP3 ADD SWAP1 POP SWAP2 SWAP1 POP JUMP JUMPDEST PUSH0 PUSH1 0x20 DUP3 ADD SWAP1 POP DUP2 DUP2 SUB PUSH0 DUP4 ADD MSTORE PUSH2 0x9F4 DUP2 PUSH2 0x9BB JUMP JUMPDEST SWAP1 POP SWAP2 SWAP1 POP JUMP JUMPDEST PUSH32 0x4E487B7100000000000000000000000000000000000000000000000000000000 PUSH0 MSTORE PUSH1 0x11 PUSH1 0x4 MSTORE PUSH1 0x24 PUSH0 REVERT JUMPDEST PUSH0 PUSH2 0xA32 DUP3 PUSH2 0x6AD JUMP JUMPDEST SWAP2 POP PUSH2 0xA3D DUP4 PUSH2 0x6AD JUMP JUMPDEST SWAP3 POP DUP3 DUP3 ADD SWAP1 POP DUP1 DUP3 GT ISZERO PUSH2 0xA55 JUMPI PUSH2 0xA54 PUSH2 0x9FB JUMP JUMPDEST JUMPDEST SWAP3 SWAP2 POP POP JUMP JUMPDEST PUSH0 PUSH2 0xA65 DUP3 PUSH2 0x6AD JUMP JUMPDEST SWAP2 POP PUSH2 0xA70 DUP4 PUSH2 0x6AD JUMP JUMPDEST SWAP3 POP DUP3 DUP3 SUB SWAP1 POP DUP2 DUP2 GT ISZERO PUSH2 0xA88 JUMPI PUSH2 0xA87 PUSH2 0x9FB JUMP JUMPDEST JUMPDEST SWAP3 SWAP2 POP POP JUMP JUMPDEST PUSH32 0x496E73756666696369656E742062616C616E6365000000000000000000000000 PUSH0 DUP3 ADD MSTORE POP JUMP JUMPDEST PUSH0 PUSH2 0xAC2 PUSH1 0x14 DUP4 PUSH2 0x7AE JUMP JUMPDEST SWAP2 POP PUSH2 0xACD DUP3 PUSH2 0xA8E JUMP JUMPDEST PUSH1 0x20 DUP3 ADD SWAP1 POP SWAP2 SWAP1 POP JUMP JUMPDEST PUSH0 PUSH1 0x20 DUP3 ADD SWAP1 POP DUP2 DUP2 SUB PUSH0 DUP4 ADD MSTORE PUSH2 0xAEF DUP2 PUSH2 0xAB6 JUMP JUMPDEST SWAP1 POP SWAP2 SWAP1 POP JUMP INVALID LOG2 PUSH5 0x6970667358 0x22 SLT KECCAK256 0xBE DUP13 0xEA 0xB6 0x2F RETURNDATASIZE 0xC6 SWAP5 0xB1 EXTCODEHASH KECCAK256 PUSH22 0x94968913F0CD2B91A48B94424EE0B3388519CBA6473 PUSH16 0x6C634300081A00330000000000000000 "
				},
				"gasEstimates": {
					"creation": {
						"codeDepositCost": "572000",
						"executionCost": "29874",
						"totalCost": "601874"
					},
					"external": {
						"balanceOf(address)": "2851",
						"createMint(uint256)": "infinite",
						"mintTo(address,uint256)": "infinite",
						"owner()": "2549",
						"supply()": "2403",
						"transfer(address,uint256)": "infinite"
					}
				},
				"methodIdentifiers": {
					"balanceOf(address)": "70a08231",
					"createMint(uint256)": "bf35a18c",
					"mintTo(address,uint256)": "449a52f8",
					"owner()": "8da5cb5b",
					"supply()": "047fc9aa",
					"transfer(address,uint256)": "a9059cbb"
				}
			},
			"storageLayout": {
				"storage": [
					{
						"astId": 3,
						"contract": "contracts/Creating_Token-ERC20/token_mint.sol:CreateToken",
						"label": "owner",
						"offset": 0,
						"slot": "0",
						"type": "t_address"
					},
					{
						"astId": 7,
						"contract": "contracts/Creating_Token-ERC20/token_mint.sol:CreateToken",
						"label": "balances",
						"offset": 0,
						"slot": "1",
						"type": "t_mapping(t_address,t_uint256)"
					},
					{
						"astId": 10,
						"contract": "contracts/Creating_Token-ERC20/token_mint.sol:CreateToken",
						"label": "supply",
						"offset": 0,
						"slot": "2",
						"type": "t_uint256"
					}
				],
				"types": {
					"t_address": {
						"encoding": "inplace",
						"label": "address",
						"numberOfBytes": "20"
					},
					"t_mapping(t_address,t_uint256)": {
						"encoding": "mapping",
						"key": "t_address",
						"label": "mapping(address => uint256)",
						"numberOfBytes": "32",
						"value": "t_uint256"
					},
					"t_uint256": {
						"encoding": "inplace",
						"label": "uint256",
						"numberOfBytes": "32"
					}
				}
			},
			"userdoc": {
				"kind": "user",
				"methods": {},
				"version": 1
			}
		}
	}
}