{
	"contracts/Creating_Token-ERC20/token_mint.sol": {
		"CreateToken": {
			"abi": [
				{
					"inputs": [],
					"stateMutability": "nonpayable",
					"type": "constructor"
				},
				{
					"inputs": [
						{
							"internalType": "uint256",
							"name": "_noOfTokens",
							"type": "uint256"
						}
					],
					"name": "createMint",
					"outputs": [
						{
							"internalType": "string",
							"name": "",
							"type": "string"
						}
					],
					"stateMutability": "nonpayable",
					"type": "function"
				},
				{
					"inputs": [],
					"name": "getBalance",
					"outputs": [
						{
							"internalType": "uint256",
							"name": "",
							"type": "uint256"
						}
					],
					"stateMutability": "view",
					"type": "function"
				},
				{
					"inputs": [
						{
							"internalType": "address payable",
							"name": "_addr",
							"type": "address"
						},
						{
							"internalType": "uint256",
							"name": "_amount",
							"type": "uint256"
						}
					],
					"name": "mintTo",
					"outputs": [
						{
							"internalType": "string",
							"name": "",
							"type": "string"
						}
					],
					"stateMutability": "nonpayable",
					"type": "function"
				},
				{
					"inputs": [],
					"name": "owner",
					"outputs": [
						{
							"internalType": "address",
							"name": "",
							"type": "address"
						}
					],
					"stateMutability": "view",
					"type": "function"
				},
				{
					"inputs": [],
					"name": "supply",
					"outputs": [
						{
							"internalType": "uint256",
							"name": "",
							"type": "uint256"
						}
					],
					"stateMutability": "view",
					"type": "function"
				},
				{
					"inputs": [
						{
							"internalType": "address payable",
							"name": "_toAddress",
							"type": "address"
						},
						{
							"internalType": "uint256",
							"name": "_amount",
							"type": "uint256"
						}
					],
					"name": "transfer",
					"outputs": [
						{
							"internalType": "string",
							"name": "",
							"type": "string"
						}
					],
					"stateMutability": "nonpayable",
					"type": "function"
				}
			],
			"devdoc": {
				"kind": "dev",
				"methods": {},
				"version": 1
			},
			"evm": {
				"assembly": "    /* \"contracts/Creating_Token-ERC20/token_mint.sol\":58:1201  contract CreateToken{... */\n  mstore(0x40, 0x80)\n    /* \"contracts/Creating_Token-ERC20/token_mint.sol\":170:171  0 */\n  0x00\n    /* \"contracts/Creating_Token-ERC20/token_mint.sol\":150:171  uint public supply =0 */\n  0x02\n  sstore\n    /* \"contracts/Creating_Token-ERC20/token_mint.sol\":178:226  constructor(){... */\n  callvalue\n  dup1\n  iszero\n  tag_1\n  jumpi\n  0x00\n  dup1\n  revert\ntag_1:\n  pop\n    /* \"contracts/Creating_Token-ERC20/token_mint.sol\":208:218  msg.sender */\n  caller\n    /* \"contracts/Creating_Token-ERC20/token_mint.sol\":202:207  owner */\n  0x00\n  dup1\n    /* \"contracts/Creating_Token-ERC20/token_mint.sol\":202:218  owner=msg.sender */\n  0x0100\n  exp\n  dup2\n  sload\n  dup2\n  0xffffffffffffffffffffffffffffffffffffffff\n  mul\n  not\n  and\n  swap1\n  dup4\n  0xffffffffffffffffffffffffffffffffffffffff\n  and\n  mul\n  or\n  swap1\n  sstore\n  pop\n    /* \"contracts/Creating_Token-ERC20/token_mint.sol\":58:1201  contract CreateToken{... */\n  dataSize(sub_0)\n  dup1\n  dataOffset(sub_0)\n  0x00\n  codecopy\n  0x00\n  return\nstop\n\nsub_0: assembly {\n        /* \"contracts/Creating_Token-ERC20/token_mint.sol\":58:1201  contract CreateToken{... */\n      mstore(0x40, 0x80)\n      callvalue\n      dup1\n      iszero\n      tag_1\n      jumpi\n      0x00\n      dup1\n      revert\n    tag_1:\n      pop\n      jumpi(tag_2, lt(calldatasize, 0x04))\n      shr(0xe0, calldataload(0x00))\n      dup1\n      0x047fc9aa\n      eq\n      tag_3\n      jumpi\n      dup1\n      0x12065fe0\n      eq\n      tag_4\n      jumpi\n      dup1\n      0x449a52f8\n      eq\n      tag_5\n      jumpi\n      dup1\n      0x8da5cb5b\n      eq\n      tag_6\n      jumpi\n      dup1\n      0xa9059cbb\n      eq\n      tag_7\n      jumpi\n      dup1\n      0xbf35a18c\n      eq\n      tag_8\n      jumpi\n    tag_2:\n      0x00\n      dup1\n      revert\n        /* \"contracts/Creating_Token-ERC20/token_mint.sol\":150:171  uint public supply =0 */\n    tag_3:\n      tag_9\n      tag_10\n      jump\t// in\n    tag_9:\n      mload(0x40)\n      tag_11\n      swap2\n      swap1\n      tag_12\n      jump\t// in\n    tag_11:\n      mload(0x40)\n      dup1\n      swap2\n      sub\n      swap1\n      return\n        /* \"contracts/Creating_Token-ERC20/token_mint.sol\":529:622  function getBalance() public view returns(uint){... */\n    tag_4:\n      tag_13\n      tag_14\n      jump\t// in\n    tag_13:\n      mload(0x40)\n      tag_15\n      swap2\n      swap1\n      tag_12\n      jump\t// in\n    tag_15:\n      mload(0x40)\n      dup1\n      swap2\n      sub\n      swap1\n      return\n        /* \"contracts/Creating_Token-ERC20/token_mint.sol\":628:870  function mintTo(address payable _addr,uint _amount) public isOWner returns(string memory){... */\n    tag_5:\n      tag_16\n      0x04\n      dup1\n      calldatasize\n      sub\n      dup2\n      add\n      swap1\n      tag_17\n      swap2\n      swap1\n      tag_18\n      jump\t// in\n    tag_17:\n      tag_19\n      jump\t// in\n    tag_16:\n      mload(0x40)\n      tag_20\n      swap2\n      swap1\n      tag_21\n      jump\t// in\n    tag_20:\n      mload(0x40)\n      dup1\n      swap2\n      sub\n      swap1\n      return\n        /* \"contracts/Creating_Token-ERC20/token_mint.sol\":85:105  address public owner */\n    tag_6:\n      tag_22\n      tag_23\n      jump\t// in\n    tag_22:\n      mload(0x40)\n      tag_24\n      swap2\n      swap1\n      tag_25\n      jump\t// in\n    tag_24:\n      mload(0x40)\n      dup1\n      swap2\n      sub\n      swap1\n      return\n        /* \"contracts/Creating_Token-ERC20/token_mint.sol\":876:1188  function transfer(address payable _toAddress,uint _amount) public returns (string memory){... */\n    tag_7:\n      tag_26\n      0x04\n      dup1\n      calldatasize\n      sub\n      dup2\n      add\n      swap1\n      tag_27\n      swap2\n      swap1\n      tag_18\n      jump\t// in\n    tag_27:\n      tag_28\n      jump\t// in\n    tag_26:\n      mload(0x40)\n      tag_29\n      swap2\n      swap1\n      tag_21\n      jump\t// in\n    tag_29:\n      mload(0x40)\n      dup1\n      swap2\n      sub\n      swap1\n      return\n        /* \"contracts/Creating_Token-ERC20/token_mint.sol\":332:523  function createMint(uint _noOfTokens) public isOWner  returns (string memory){... */\n    tag_8:\n      tag_30\n      0x04\n      dup1\n      calldatasize\n      sub\n      dup2\n      add\n      swap1\n      tag_31\n      swap2\n      swap1\n      tag_32\n      jump\t// in\n    tag_31:\n      tag_33\n      jump\t// in\n    tag_30:\n      mload(0x40)\n      tag_34\n      swap2\n      swap1\n      tag_21\n      jump\t// in\n    tag_34:\n      mload(0x40)\n      dup1\n      swap2\n      sub\n      swap1\n      return\n        /* \"contracts/Creating_Token-ERC20/token_mint.sol\":150:171  uint public supply =0 */\n    tag_10:\n      sload(0x02)\n      dup2\n      jump\t// out\n        /* \"contracts/Creating_Token-ERC20/token_mint.sol\":529:622  function getBalance() public view returns(uint){... */\n    tag_14:\n        /* \"contracts/Creating_Token-ERC20/token_mint.sol\":571:575  uint */\n      0x00\n        /* \"contracts/Creating_Token-ERC20/token_mint.sol\":594:602  balances */\n      0x01\n        /* \"contracts/Creating_Token-ERC20/token_mint.sol\":594:614  balances[msg.sender] */\n      0x00\n        /* \"contracts/Creating_Token-ERC20/token_mint.sol\":603:613  msg.sender */\n      caller\n        /* \"contracts/Creating_Token-ERC20/token_mint.sol\":594:614  balances[msg.sender] */\n      0xffffffffffffffffffffffffffffffffffffffff\n      and\n      0xffffffffffffffffffffffffffffffffffffffff\n      and\n      dup2\n      mstore\n      0x20\n      add\n      swap1\n      dup2\n      mstore\n      0x20\n      add\n      0x00\n      keccak256\n      sload\n        /* \"contracts/Creating_Token-ERC20/token_mint.sol\":587:614  return balances[msg.sender] */\n      swap1\n      pop\n        /* \"contracts/Creating_Token-ERC20/token_mint.sol\":529:622  function getBalance() public view returns(uint){... */\n      swap1\n      jump\t// out\n        /* \"contracts/Creating_Token-ERC20/token_mint.sol\":628:870  function mintTo(address payable _addr,uint _amount) public isOWner returns(string memory){... */\n    tag_19:\n        /* \"contracts/Creating_Token-ERC20/token_mint.sol\":703:716  string memory */\n      0x60\n        /* \"contracts/Creating_Token-ERC20/token_mint.sol\":283:288  owner */\n      0x00\n      dup1\n      sload\n      swap1\n      0x0100\n      exp\n      swap1\n      div\n      0xffffffffffffffffffffffffffffffffffffffff\n      and\n        /* \"contracts/Creating_Token-ERC20/token_mint.sol\":271:288  msg.sender==owner */\n      0xffffffffffffffffffffffffffffffffffffffff\n      and\n        /* \"contracts/Creating_Token-ERC20/token_mint.sol\":271:281  msg.sender */\n      caller\n        /* \"contracts/Creating_Token-ERC20/token_mint.sol\":271:288  msg.sender==owner */\n      0xffffffffffffffffffffffffffffffffffffffff\n      and\n      eq\n        /* \"contracts/Creating_Token-ERC20/token_mint.sol\":263:304  require(msg.sender==owner,\"Unauthorized\") */\n      tag_37\n      jumpi\n      mload(0x40)\n      0x08c379a000000000000000000000000000000000000000000000000000000000\n      dup2\n      mstore\n      0x04\n      add\n      tag_38\n      swap1\n      tag_39\n      jump\t// in\n    tag_38:\n      mload(0x40)\n      dup1\n      swap2\n      sub\n      swap1\n      revert\n    tag_37:\n        /* \"contracts/Creating_Token-ERC20/token_mint.sol\":744:751  _amount */\n      dup2\n        /* \"contracts/Creating_Token-ERC20/token_mint.sol\":728:736  balances */\n      0x01\n        /* \"contracts/Creating_Token-ERC20/token_mint.sol\":728:743  balances[_addr] */\n      0x00\n        /* \"contracts/Creating_Token-ERC20/token_mint.sol\":737:742  _addr */\n      dup6\n        /* \"contracts/Creating_Token-ERC20/token_mint.sol\":728:743  balances[_addr] */\n      0xffffffffffffffffffffffffffffffffffffffff\n      and\n      0xffffffffffffffffffffffffffffffffffffffff\n      and\n      dup2\n      mstore\n      0x20\n      add\n      swap1\n      dup2\n      mstore\n      0x20\n      add\n      0x00\n      keccak256\n        /* \"contracts/Creating_Token-ERC20/token_mint.sol\":728:751  balances[_addr]=_amount */\n      dup2\n      swap1\n      sstore\n      pop\n        /* \"contracts/Creating_Token-ERC20/token_mint.sol\":794:801  _amount */\n      dup2\n        /* \"contracts/Creating_Token-ERC20/token_mint.sol\":787:793  supply */\n      sload(0x02)\n        /* \"contracts/Creating_Token-ERC20/token_mint.sol\":787:801  supply-_amount */\n      tag_41\n      swap2\n      swap1\n      tag_42\n      jump\t// in\n    tag_41:\n        /* \"contracts/Creating_Token-ERC20/token_mint.sol\":770:778  balances */\n      0x01\n        /* \"contracts/Creating_Token-ERC20/token_mint.sol\":770:785  balances[owner] */\n      0x00\n        /* \"contracts/Creating_Token-ERC20/token_mint.sol\":779:784  owner */\n      dup1\n      0x00\n      swap1\n      sload\n      swap1\n      0x0100\n      exp\n      swap1\n      div\n      0xffffffffffffffffffffffffffffffffffffffff\n      and\n        /* \"contracts/Creating_Token-ERC20/token_mint.sol\":770:785  balances[owner] */\n      0xffffffffffffffffffffffffffffffffffffffff\n      and\n      0xffffffffffffffffffffffffffffffffffffffff\n      and\n      dup2\n      mstore\n      0x20\n      add\n      swap1\n      dup2\n      mstore\n      0x20\n      add\n      0x00\n      keccak256\n        /* \"contracts/Creating_Token-ERC20/token_mint.sol\":770:801  balances[owner]= supply-_amount */\n      dup2\n      swap1\n      sstore\n      pop\n        /* \"contracts/Creating_Token-ERC20/token_mint.sol\":826:833  _amount */\n      dup2\n        /* \"contracts/Creating_Token-ERC20/token_mint.sol\":819:825  supply */\n      sload(0x02)\n        /* \"contracts/Creating_Token-ERC20/token_mint.sol\":819:833  supply-_amount */\n      tag_43\n      swap2\n      swap1\n      tag_42\n      jump\t// in\n    tag_43:\n        /* \"contracts/Creating_Token-ERC20/token_mint.sol\":812:818  supply */\n      0x02\n        /* \"contracts/Creating_Token-ERC20/token_mint.sol\":812:833  supply=supply-_amount */\n      dup2\n      swap1\n      sstore\n      pop\n        /* \"contracts/Creating_Token-ERC20/token_mint.sol\":844:862  return \"Minted To\" */\n      mload(0x40)\n      dup1\n      0x40\n      add\n      0x40\n      mstore\n      dup1\n      0x09\n      dup2\n      mstore\n      0x20\n      add\n      0x4d696e74656420546f0000000000000000000000000000000000000000000000\n      dup2\n      mstore\n      pop\n      swap1\n      pop\n        /* \"contracts/Creating_Token-ERC20/token_mint.sol\":628:870  function mintTo(address payable _addr,uint _amount) public isOWner returns(string memory){... */\n      swap3\n      swap2\n      pop\n      pop\n      jump\t// out\n        /* \"contracts/Creating_Token-ERC20/token_mint.sol\":85:105  address public owner */\n    tag_23:\n      0x00\n      dup1\n      sload\n      swap1\n      0x0100\n      exp\n      swap1\n      div\n      0xffffffffffffffffffffffffffffffffffffffff\n      and\n      dup2\n      jump\t// out\n        /* \"contracts/Creating_Token-ERC20/token_mint.sol\":876:1188  function transfer(address payable _toAddress,uint _amount) public returns (string memory){... */\n    tag_28:\n        /* \"contracts/Creating_Token-ERC20/token_mint.sol\":951:964  string memory */\n      0x60\n        /* \"contracts/Creating_Token-ERC20/token_mint.sol\":1006:1013  _amount */\n      dup2\n        /* \"contracts/Creating_Token-ERC20/token_mint.sol\":984:992  balances */\n      0x01\n        /* \"contracts/Creating_Token-ERC20/token_mint.sol\":984:1004  balances[msg.sender] */\n      0x00\n        /* \"contracts/Creating_Token-ERC20/token_mint.sol\":993:1003  msg.sender */\n      caller\n        /* \"contracts/Creating_Token-ERC20/token_mint.sol\":984:1004  balances[msg.sender] */\n      0xffffffffffffffffffffffffffffffffffffffff\n      and\n      0xffffffffffffffffffffffffffffffffffffffff\n      and\n      dup2\n      mstore\n      0x20\n      add\n      swap1\n      dup2\n      mstore\n      0x20\n      add\n      0x00\n      keccak256\n      sload\n        /* \"contracts/Creating_Token-ERC20/token_mint.sol\":984:1013  balances[msg.sender]>=_amount */\n      lt\n      iszero\n        /* \"contracts/Creating_Token-ERC20/token_mint.sol\":976:1037  require(balances[msg.sender]>=_amount,\"Insufficient balance\") */\n      tag_45\n      jumpi\n      mload(0x40)\n      0x08c379a000000000000000000000000000000000000000000000000000000000\n      dup2\n      mstore\n      0x04\n      add\n      tag_46\n      swap1\n      tag_47\n      jump\t// in\n    tag_46:\n      mload(0x40)\n      dup1\n      swap2\n      sub\n      swap1\n      revert\n    tag_45:\n        /* \"contracts/Creating_Token-ERC20/token_mint.sol\":1091:1098  _amount */\n      dup2\n        /* \"contracts/Creating_Token-ERC20/token_mint.sol\":1070:1078  balances */\n      0x01\n        /* \"contracts/Creating_Token-ERC20/token_mint.sol\":1070:1090  balances[msg.sender] */\n      0x00\n        /* \"contracts/Creating_Token-ERC20/token_mint.sol\":1079:1089  msg.sender */\n      caller\n        /* \"contracts/Creating_Token-ERC20/token_mint.sol\":1070:1090  balances[msg.sender] */\n      0xffffffffffffffffffffffffffffffffffffffff\n      and\n      0xffffffffffffffffffffffffffffffffffffffff\n      and\n      dup2\n      mstore\n      0x20\n      add\n      swap1\n      dup2\n      mstore\n      0x20\n      add\n      0x00\n      keccak256\n      sload\n        /* \"contracts/Creating_Token-ERC20/token_mint.sol\":1070:1098  balances[msg.sender]-_amount */\n      tag_48\n      swap2\n      swap1\n      tag_42\n      jump\t// in\n    tag_48:\n        /* \"contracts/Creating_Token-ERC20/token_mint.sol\":1048:1056  balances */\n      0x01\n        /* \"contracts/Creating_Token-ERC20/token_mint.sol\":1048:1068  balances[msg.sender] */\n      0x00\n        /* \"contracts/Creating_Token-ERC20/token_mint.sol\":1057:1067  msg.sender */\n      caller\n        /* \"contracts/Creating_Token-ERC20/token_mint.sol\":1048:1068  balances[msg.sender] */\n      0xffffffffffffffffffffffffffffffffffffffff\n      and\n      0xffffffffffffffffffffffffffffffffffffffff\n      and\n      dup2\n      mstore\n      0x20\n      add\n      swap1\n      dup2\n      mstore\n      0x20\n      add\n      0x00\n      keccak256\n        /* \"contracts/Creating_Token-ERC20/token_mint.sol\":1048:1098  balances[msg.sender]= balances[msg.sender]-_amount */\n      dup2\n      swap1\n      sstore\n      pop\n        /* \"contracts/Creating_Token-ERC20/token_mint.sol\":1131:1138  _amount */\n      dup2\n        /* \"contracts/Creating_Token-ERC20/token_mint.sol\":1109:1117  balances */\n      0x01\n        /* \"contracts/Creating_Token-ERC20/token_mint.sol\":1109:1129  balances[_toAddress] */\n      0x00\n        /* \"contracts/Creating_Token-ERC20/token_mint.sol\":1118:1128  _toAddress */\n      dup6\n        /* \"contracts/Creating_Token-ERC20/token_mint.sol\":1109:1129  balances[_toAddress] */\n      0xffffffffffffffffffffffffffffffffffffffff\n      and\n      0xffffffffffffffffffffffffffffffffffffffff\n      and\n      dup2\n      mstore\n      0x20\n      add\n      swap1\n      dup2\n      mstore\n      0x20\n      add\n      0x00\n      keccak256\n      0x00\n        /* \"contracts/Creating_Token-ERC20/token_mint.sol\":1109:1138  balances[_toAddress]+=_amount */\n      dup3\n      dup3\n      sload\n      tag_49\n      swap2\n      swap1\n      tag_50\n      jump\t// in\n    tag_49:\n      swap3\n      pop\n      pop\n      dup2\n      swap1\n      sstore\n      pop\n        /* \"contracts/Creating_Token-ERC20/token_mint.sol\":1149:1180  return \"Sucessfully transfered\" */\n      mload(0x40)\n      dup1\n      0x40\n      add\n      0x40\n      mstore\n      dup1\n      0x16\n      dup2\n      mstore\n      0x20\n      add\n      0x53756365737366756c6c79207472616e73666572656400000000000000000000\n      dup2\n      mstore\n      pop\n      swap1\n      pop\n        /* \"contracts/Creating_Token-ERC20/token_mint.sol\":876:1188  function transfer(address payable _toAddress,uint _amount) public returns (string memory){... */\n      swap3\n      swap2\n      pop\n      pop\n      jump\t// out\n        /* \"contracts/Creating_Token-ERC20/token_mint.sol\":332:523  function createMint(uint _noOfTokens) public isOWner  returns (string memory){... */\n    tag_33:\n        /* \"contracts/Creating_Token-ERC20/token_mint.sol\":395:408  string memory */\n      0x60\n        /* \"contracts/Creating_Token-ERC20/token_mint.sol\":283:288  owner */\n      0x00\n      dup1\n      sload\n      swap1\n      0x0100\n      exp\n      swap1\n      div\n      0xffffffffffffffffffffffffffffffffffffffff\n      and\n        /* \"contracts/Creating_Token-ERC20/token_mint.sol\":271:288  msg.sender==owner */\n      0xffffffffffffffffffffffffffffffffffffffff\n      and\n        /* \"contracts/Creating_Token-ERC20/token_mint.sol\":271:281  msg.sender */\n      caller\n        /* \"contracts/Creating_Token-ERC20/token_mint.sol\":271:288  msg.sender==owner */\n      0xffffffffffffffffffffffffffffffffffffffff\n      and\n      eq\n        /* \"contracts/Creating_Token-ERC20/token_mint.sol\":263:304  require(msg.sender==owner,\"Unauthorized\") */\n      tag_52\n      jumpi\n      mload(0x40)\n      0x08c379a000000000000000000000000000000000000000000000000000000000\n      dup2\n      mstore\n      0x04\n      add\n      tag_53\n      swap1\n      tag_39\n      jump\t// in\n    tag_53:\n      mload(0x40)\n      dup1\n      swap2\n      sub\n      swap1\n      revert\n    tag_52:\n        /* \"contracts/Creating_Token-ERC20/token_mint.sol\":436:447  _noOfTokens */\n      dup2\n        /* \"contracts/Creating_Token-ERC20/token_mint.sol\":420:428  balances */\n      0x01\n        /* \"contracts/Creating_Token-ERC20/token_mint.sol\":420:435  balances[owner] */\n      0x00\n        /* \"contracts/Creating_Token-ERC20/token_mint.sol\":429:434  owner */\n      dup1\n      0x00\n      swap1\n      sload\n      swap1\n      0x0100\n      exp\n      swap1\n      div\n      0xffffffffffffffffffffffffffffffffffffffff\n      and\n        /* \"contracts/Creating_Token-ERC20/token_mint.sol\":420:435  balances[owner] */\n      0xffffffffffffffffffffffffffffffffffffffff\n      and\n      0xffffffffffffffffffffffffffffffffffffffff\n      and\n      dup2\n      mstore\n      0x20\n      add\n      swap1\n      dup2\n      mstore\n      0x20\n      add\n      0x00\n      keccak256\n        /* \"contracts/Creating_Token-ERC20/token_mint.sol\":420:447  balances[owner]=_noOfTokens */\n      dup2\n      swap1\n      sstore\n      pop\n        /* \"contracts/Creating_Token-ERC20/token_mint.sol\":466:477  _noOfTokens */\n      dup2\n        /* \"contracts/Creating_Token-ERC20/token_mint.sol\":458:464  supply */\n      0x02\n      0x00\n        /* \"contracts/Creating_Token-ERC20/token_mint.sol\":458:477  supply+=_noOfTokens */\n      dup3\n      dup3\n      sload\n      tag_55\n      swap2\n      swap1\n      tag_50\n      jump\t// in\n    tag_55:\n      swap3\n      pop\n      pop\n      dup2\n      swap1\n      sstore\n      pop\n        /* \"contracts/Creating_Token-ERC20/token_mint.sol\":488:515  return \"Sucessfully minted\" */\n      mload(0x40)\n      dup1\n      0x40\n      add\n      0x40\n      mstore\n      dup1\n      0x12\n      dup2\n      mstore\n      0x20\n      add\n      0x53756365737366756c6c79206d696e7465640000000000000000000000000000\n      dup2\n      mstore\n      pop\n      swap1\n      pop\n        /* \"contracts/Creating_Token-ERC20/token_mint.sol\":332:523  function createMint(uint _noOfTokens) public isOWner  returns (string memory){... */\n      swap2\n      swap1\n      pop\n      jump\t// out\n        /* \"#utility.yul\":7:84   */\n    tag_56:\n        /* \"#utility.yul\":44:51   */\n      0x00\n        /* \"#utility.yul\":73:78   */\n      dup2\n        /* \"#utility.yul\":62:78   */\n      swap1\n      pop\n        /* \"#utility.yul\":7:84   */\n      swap2\n      swap1\n      pop\n      jump\t// out\n        /* \"#utility.yul\":90:208   */\n    tag_57:\n        /* \"#utility.yul\":177:201   */\n      tag_82\n        /* \"#utility.yul\":195:200   */\n      dup2\n        /* \"#utility.yul\":177:201   */\n      tag_56\n      jump\t// in\n    tag_82:\n        /* \"#utility.yul\":172:175   */\n      dup3\n        /* \"#utility.yul\":165:202   */\n      mstore\n        /* \"#utility.yul\":90:208   */\n      pop\n      pop\n      jump\t// out\n        /* \"#utility.yul\":214:436   */\n    tag_12:\n        /* \"#utility.yul\":307:311   */\n      0x00\n        /* \"#utility.yul\":345:347   */\n      0x20\n        /* \"#utility.yul\":334:343   */\n      dup3\n        /* \"#utility.yul\":330:348   */\n      add\n        /* \"#utility.yul\":322:348   */\n      swap1\n      pop\n        /* \"#utility.yul\":358:429   */\n      tag_84\n        /* \"#utility.yul\":426:427   */\n      0x00\n        /* \"#utility.yul\":415:424   */\n      dup4\n        /* \"#utility.yul\":411:428   */\n      add\n        /* \"#utility.yul\":402:408   */\n      dup5\n        /* \"#utility.yul\":358:429   */\n      tag_57\n      jump\t// in\n    tag_84:\n        /* \"#utility.yul\":214:436   */\n      swap3\n      swap2\n      pop\n      pop\n      jump\t// out\n        /* \"#utility.yul\":523:640   */\n    tag_59:\n        /* \"#utility.yul\":632:633   */\n      0x00\n        /* \"#utility.yul\":629:630   */\n      dup1\n        /* \"#utility.yul\":622:634   */\n      revert\n        /* \"#utility.yul\":769:895   */\n    tag_61:\n        /* \"#utility.yul\":806:813   */\n      0x00\n        /* \"#utility.yul\":846:888   */\n      0xffffffffffffffffffffffffffffffffffffffff\n        /* \"#utility.yul\":839:844   */\n      dup3\n        /* \"#utility.yul\":835:889   */\n      and\n        /* \"#utility.yul\":824:889   */\n      swap1\n      pop\n        /* \"#utility.yul\":769:895   */\n      swap2\n      swap1\n      pop\n      jump\t// out\n        /* \"#utility.yul\":901:1005   */\n    tag_62:\n        /* \"#utility.yul\":946:953   */\n      0x00\n        /* \"#utility.yul\":975:999   */\n      tag_90\n        /* \"#utility.yul\":993:998   */\n      dup3\n        /* \"#utility.yul\":975:999   */\n      tag_61\n      jump\t// in\n    tag_90:\n        /* \"#utility.yul\":964:999   */\n      swap1\n      pop\n        /* \"#utility.yul\":901:1005   */\n      swap2\n      swap1\n      pop\n      jump\t// out\n        /* \"#utility.yul\":1011:1149   */\n    tag_63:\n        /* \"#utility.yul\":1092:1124   */\n      tag_92\n        /* \"#utility.yul\":1118:1123   */\n      dup2\n        /* \"#utility.yul\":1092:1124   */\n      tag_62\n      jump\t// in\n    tag_92:\n        /* \"#utility.yul\":1085:1090   */\n      dup2\n        /* \"#utility.yul\":1082:1125   */\n      eq\n        /* \"#utility.yul\":1072:1143   */\n      tag_93\n      jumpi\n        /* \"#utility.yul\":1139:1140   */\n      0x00\n        /* \"#utility.yul\":1136:1137   */\n      dup1\n        /* \"#utility.yul\":1129:1141   */\n      revert\n        /* \"#utility.yul\":1072:1143   */\n    tag_93:\n        /* \"#utility.yul\":1011:1149   */\n      pop\n      jump\t// out\n        /* \"#utility.yul\":1155:1310   */\n    tag_64:\n        /* \"#utility.yul\":1209:1214   */\n      0x00\n        /* \"#utility.yul\":1247:1253   */\n      dup2\n        /* \"#utility.yul\":1234:1254   */\n      calldataload\n        /* \"#utility.yul\":1225:1254   */\n      swap1\n      pop\n        /* \"#utility.yul\":1263:1304   */\n      tag_95\n        /* \"#utility.yul\":1298:1303   */\n      dup2\n        /* \"#utility.yul\":1263:1304   */\n      tag_63\n      jump\t// in\n    tag_95:\n        /* \"#utility.yul\":1155:1310   */\n      swap3\n      swap2\n      pop\n      pop\n      jump\t// out\n        /* \"#utility.yul\":1316:1438   */\n    tag_65:\n        /* \"#utility.yul\":1389:1413   */\n      tag_97\n        /* \"#utility.yul\":1407:1412   */\n      dup2\n        /* \"#utility.yul\":1389:1413   */\n      tag_56\n      jump\t// in\n    tag_97:\n        /* \"#utility.yul\":1382:1387   */\n      dup2\n        /* \"#utility.yul\":1379:1414   */\n      eq\n        /* \"#utility.yul\":1369:1432   */\n      tag_98\n      jumpi\n        /* \"#utility.yul\":1428:1429   */\n      0x00\n        /* \"#utility.yul\":1425:1426   */\n      dup1\n        /* \"#utility.yul\":1418:1430   */\n      revert\n        /* \"#utility.yul\":1369:1432   */\n    tag_98:\n        /* \"#utility.yul\":1316:1438   */\n      pop\n      jump\t// out\n        /* \"#utility.yul\":1444:1583   */\n    tag_66:\n        /* \"#utility.yul\":1490:1495   */\n      0x00\n        /* \"#utility.yul\":1528:1534   */\n      dup2\n        /* \"#utility.yul\":1515:1535   */\n      calldataload\n        /* \"#utility.yul\":1506:1535   */\n      swap1\n      pop\n        /* \"#utility.yul\":1544:1577   */\n      tag_100\n        /* \"#utility.yul\":1571:1576   */\n      dup2\n        /* \"#utility.yul\":1544:1577   */\n      tag_65\n      jump\t// in\n    tag_100:\n        /* \"#utility.yul\":1444:1583   */\n      swap3\n      swap2\n      pop\n      pop\n      jump\t// out\n        /* \"#utility.yul\":1589:2079   */\n    tag_18:\n        /* \"#utility.yul\":1665:1671   */\n      0x00\n        /* \"#utility.yul\":1673:1679   */\n      dup1\n        /* \"#utility.yul\":1722:1724   */\n      0x40\n        /* \"#utility.yul\":1710:1719   */\n      dup4\n        /* \"#utility.yul\":1701:1708   */\n      dup6\n        /* \"#utility.yul\":1697:1720   */\n      sub\n        /* \"#utility.yul\":1693:1725   */\n      slt\n        /* \"#utility.yul\":1690:1809   */\n      iszero\n      tag_102\n      jumpi\n        /* \"#utility.yul\":1728:1807   */\n      tag_103\n      tag_59\n      jump\t// in\n    tag_103:\n        /* \"#utility.yul\":1690:1809   */\n    tag_102:\n        /* \"#utility.yul\":1848:1849   */\n      0x00\n        /* \"#utility.yul\":1873:1934   */\n      tag_104\n        /* \"#utility.yul\":1926:1933   */\n      dup6\n        /* \"#utility.yul\":1917:1923   */\n      dup3\n        /* \"#utility.yul\":1906:1915   */\n      dup7\n        /* \"#utility.yul\":1902:1924   */\n      add\n        /* \"#utility.yul\":1873:1934   */\n      tag_64\n      jump\t// in\n    tag_104:\n        /* \"#utility.yul\":1863:1934   */\n      swap3\n      pop\n        /* \"#utility.yul\":1819:1944   */\n      pop\n        /* \"#utility.yul\":1983:1985   */\n      0x20\n        /* \"#utility.yul\":2009:2062   */\n      tag_105\n        /* \"#utility.yul\":2054:2061   */\n      dup6\n        /* \"#utility.yul\":2045:2051   */\n      dup3\n        /* \"#utility.yul\":2034:2043   */\n      dup7\n        /* \"#utility.yul\":2030:2052   */\n      add\n        /* \"#utility.yul\":2009:2062   */\n      tag_66\n      jump\t// in\n    tag_105:\n        /* \"#utility.yul\":1999:2062   */\n      swap2\n      pop\n        /* \"#utility.yul\":1954:2072   */\n      pop\n        /* \"#utility.yul\":1589:2079   */\n      swap3\n      pop\n      swap3\n      swap1\n      pop\n      jump\t// out\n        /* \"#utility.yul\":2085:2184   */\n    tag_67:\n        /* \"#utility.yul\":2137:2143   */\n      0x00\n        /* \"#utility.yul\":2171:2176   */\n      dup2\n        /* \"#utility.yul\":2165:2177   */\n      mload\n        /* \"#utility.yul\":2155:2177   */\n      swap1\n      pop\n        /* \"#utility.yul\":2085:2184   */\n      swap2\n      swap1\n      pop\n      jump\t// out\n        /* \"#utility.yul\":2190:2359   */\n    tag_68:\n        /* \"#utility.yul\":2274:2285   */\n      0x00\n        /* \"#utility.yul\":2308:2314   */\n      dup3\n        /* \"#utility.yul\":2303:2306   */\n      dup3\n        /* \"#utility.yul\":2296:2315   */\n      mstore\n        /* \"#utility.yul\":2348:2352   */\n      0x20\n        /* \"#utility.yul\":2343:2346   */\n      dup3\n        /* \"#utility.yul\":2339:2353   */\n      add\n        /* \"#utility.yul\":2324:2353   */\n      swap1\n      pop\n        /* \"#utility.yul\":2190:2359   */\n      swap3\n      swap2\n      pop\n      pop\n      jump\t// out\n        /* \"#utility.yul\":2365:2504   */\n    tag_69:\n        /* \"#utility.yul\":2454:2460   */\n      dup3\n        /* \"#utility.yul\":2449:2452   */\n      dup2\n        /* \"#utility.yul\":2444:2447   */\n      dup4\n        /* \"#utility.yul\":2438:2461   */\n      mcopy\n        /* \"#utility.yul\":2495:2496   */\n      0x00\n        /* \"#utility.yul\":2486:2492   */\n      dup4\n        /* \"#utility.yul\":2481:2484   */\n      dup4\n        /* \"#utility.yul\":2477:2493   */\n      add\n        /* \"#utility.yul\":2470:2497   */\n      mstore\n        /* \"#utility.yul\":2365:2504   */\n      pop\n      pop\n      pop\n      jump\t// out\n        /* \"#utility.yul\":2510:2612   */\n    tag_70:\n        /* \"#utility.yul\":2551:2557   */\n      0x00\n        /* \"#utility.yul\":2602:2604   */\n      0x1f\n        /* \"#utility.yul\":2598:2605   */\n      not\n        /* \"#utility.yul\":2593:2595   */\n      0x1f\n        /* \"#utility.yul\":2586:2591   */\n      dup4\n        /* \"#utility.yul\":2582:2596   */\n      add\n        /* \"#utility.yul\":2578:2606   */\n      and\n        /* \"#utility.yul\":2568:2606   */\n      swap1\n      pop\n        /* \"#utility.yul\":2510:2612   */\n      swap2\n      swap1\n      pop\n      jump\t// out\n        /* \"#utility.yul\":2618:2995   */\n    tag_71:\n        /* \"#utility.yul\":2706:2709   */\n      0x00\n        /* \"#utility.yul\":2734:2773   */\n      tag_111\n        /* \"#utility.yul\":2767:2772   */\n      dup3\n        /* \"#utility.yul\":2734:2773   */\n      tag_67\n      jump\t// in\n    tag_111:\n        /* \"#utility.yul\":2789:2860   */\n      tag_112\n        /* \"#utility.yul\":2853:2859   */\n      dup2\n        /* \"#utility.yul\":2848:2851   */\n      dup6\n        /* \"#utility.yul\":2789:2860   */\n      tag_68\n      jump\t// in\n    tag_112:\n        /* \"#utility.yul\":2782:2860   */\n      swap4\n      pop\n        /* \"#utility.yul\":2869:2934   */\n      tag_113\n        /* \"#utility.yul\":2927:2933   */\n      dup2\n        /* \"#utility.yul\":2922:2925   */\n      dup6\n        /* \"#utility.yul\":2915:2919   */\n      0x20\n        /* \"#utility.yul\":2908:2913   */\n      dup7\n        /* \"#utility.yul\":2904:2920   */\n      add\n        /* \"#utility.yul\":2869:2934   */\n      tag_69\n      jump\t// in\n    tag_113:\n        /* \"#utility.yul\":2959:2988   */\n      tag_114\n        /* \"#utility.yul\":2981:2987   */\n      dup2\n        /* \"#utility.yul\":2959:2988   */\n      tag_70\n      jump\t// in\n    tag_114:\n        /* \"#utility.yul\":2954:2957   */\n      dup5\n        /* \"#utility.yul\":2950:2989   */\n      add\n        /* \"#utility.yul\":2943:2989   */\n      swap2\n      pop\n        /* \"#utility.yul\":2710:2995   */\n      pop\n        /* \"#utility.yul\":2618:2995   */\n      swap3\n      swap2\n      pop\n      pop\n      jump\t// out\n        /* \"#utility.yul\":3001:3314   */\n    tag_21:\n        /* \"#utility.yul\":3114:3118   */\n      0x00\n        /* \"#utility.yul\":3152:3154   */\n      0x20\n        /* \"#utility.yul\":3141:3150   */\n      dup3\n        /* \"#utility.yul\":3137:3155   */\n      add\n        /* \"#utility.yul\":3129:3155   */\n      swap1\n      pop\n        /* \"#utility.yul\":3201:3210   */\n      dup2\n        /* \"#utility.yul\":3195:3199   */\n      dup2\n        /* \"#utility.yul\":3191:3211   */\n      sub\n        /* \"#utility.yul\":3187:3188   */\n      0x00\n        /* \"#utility.yul\":3176:3185   */\n      dup4\n        /* \"#utility.yul\":3172:3189   */\n      add\n        /* \"#utility.yul\":3165:3212   */\n      mstore\n        /* \"#utility.yul\":3229:3307   */\n      tag_116\n        /* \"#utility.yul\":3302:3306   */\n      dup2\n        /* \"#utility.yul\":3293:3299   */\n      dup5\n        /* \"#utility.yul\":3229:3307   */\n      tag_71\n      jump\t// in\n    tag_116:\n        /* \"#utility.yul\":3221:3307   */\n      swap1\n      pop\n        /* \"#utility.yul\":3001:3314   */\n      swap3\n      swap2\n      pop\n      pop\n      jump\t// out\n        /* \"#utility.yul\":3320:3416   */\n    tag_72:\n        /* \"#utility.yul\":3357:3364   */\n      0x00\n        /* \"#utility.yul\":3386:3410   */\n      tag_118\n        /* \"#utility.yul\":3404:3409   */\n      dup3\n        /* \"#utility.yul\":3386:3410   */\n      tag_61\n      jump\t// in\n    tag_118:\n        /* \"#utility.yul\":3375:3410   */\n      swap1\n      pop\n        /* \"#utility.yul\":3320:3416   */\n      swap2\n      swap1\n      pop\n      jump\t// out\n        /* \"#utility.yul\":3422:3540   */\n    tag_73:\n        /* \"#utility.yul\":3509:3533   */\n      tag_120\n        /* \"#utility.yul\":3527:3532   */\n      dup2\n        /* \"#utility.yul\":3509:3533   */\n      tag_72\n      jump\t// in\n    tag_120:\n        /* \"#utility.yul\":3504:3507   */\n      dup3\n        /* \"#utility.yul\":3497:3534   */\n      mstore\n        /* \"#utility.yul\":3422:3540   */\n      pop\n      pop\n      jump\t// out\n        /* \"#utility.yul\":3546:3768   */\n    tag_25:\n        /* \"#utility.yul\":3639:3643   */\n      0x00\n        /* \"#utility.yul\":3677:3679   */\n      0x20\n        /* \"#utility.yul\":3666:3675   */\n      dup3\n        /* \"#utility.yul\":3662:3680   */\n      add\n        /* \"#utility.yul\":3654:3680   */\n      swap1\n      pop\n        /* \"#utility.yul\":3690:3761   */\n      tag_122\n        /* \"#utility.yul\":3758:3759   */\n      0x00\n        /* \"#utility.yul\":3747:3756   */\n      dup4\n        /* \"#utility.yul\":3743:3760   */\n      add\n        /* \"#utility.yul\":3734:3740   */\n      dup5\n        /* \"#utility.yul\":3690:3761   */\n      tag_73\n      jump\t// in\n    tag_122:\n        /* \"#utility.yul\":3546:3768   */\n      swap3\n      swap2\n      pop\n      pop\n      jump\t// out\n        /* \"#utility.yul\":3774:4103   */\n    tag_32:\n        /* \"#utility.yul\":3833:3839   */\n      0x00\n        /* \"#utility.yul\":3882:3884   */\n      0x20\n        /* \"#utility.yul\":3870:3879   */\n      dup3\n        /* \"#utility.yul\":3861:3868   */\n      dup5\n        /* \"#utility.yul\":3857:3880   */\n      sub\n        /* \"#utility.yul\":3853:3885   */\n      slt\n        /* \"#utility.yul\":3850:3969   */\n      iszero\n      tag_124\n      jumpi\n        /* \"#utility.yul\":3888:3967   */\n      tag_125\n      tag_59\n      jump\t// in\n    tag_125:\n        /* \"#utility.yul\":3850:3969   */\n    tag_124:\n        /* \"#utility.yul\":4008:4009   */\n      0x00\n        /* \"#utility.yul\":4033:4086   */\n      tag_126\n        /* \"#utility.yul\":4078:4085   */\n      dup5\n        /* \"#utility.yul\":4069:4075   */\n      dup3\n        /* \"#utility.yul\":4058:4067   */\n      dup6\n        /* \"#utility.yul\":4054:4076   */\n      add\n        /* \"#utility.yul\":4033:4086   */\n      tag_66\n      jump\t// in\n    tag_126:\n        /* \"#utility.yul\":4023:4086   */\n      swap2\n      pop\n        /* \"#utility.yul\":3979:4096   */\n      pop\n        /* \"#utility.yul\":3774:4103   */\n      swap3\n      swap2\n      pop\n      pop\n      jump\t// out\n        /* \"#utility.yul\":4109:4271   */\n    tag_74:\n        /* \"#utility.yul\":4249:4263   */\n      0x556e617574686f72697a65640000000000000000000000000000000000000000\n        /* \"#utility.yul\":4245:4246   */\n      0x00\n        /* \"#utility.yul\":4237:4243   */\n      dup3\n        /* \"#utility.yul\":4233:4247   */\n      add\n        /* \"#utility.yul\":4226:4264   */\n      mstore\n        /* \"#utility.yul\":4109:4271   */\n      pop\n      jump\t// out\n        /* \"#utility.yul\":4277:4643   */\n    tag_75:\n        /* \"#utility.yul\":4419:4422   */\n      0x00\n        /* \"#utility.yul\":4440:4507   */\n      tag_129\n        /* \"#utility.yul\":4504:4506   */\n      0x0c\n        /* \"#utility.yul\":4499:4502   */\n      dup4\n        /* \"#utility.yul\":4440:4507   */\n      tag_68\n      jump\t// in\n    tag_129:\n        /* \"#utility.yul\":4433:4507   */\n      swap2\n      pop\n        /* \"#utility.yul\":4516:4609   */\n      tag_130\n        /* \"#utility.yul\":4605:4608   */\n      dup3\n        /* \"#utility.yul\":4516:4609   */\n      tag_74\n      jump\t// in\n    tag_130:\n        /* \"#utility.yul\":4634:4636   */\n      0x20\n        /* \"#utility.yul\":4629:4632   */\n      dup3\n        /* \"#utility.yul\":4625:4637   */\n      add\n        /* \"#utility.yul\":4618:4637   */\n      swap1\n      pop\n        /* \"#utility.yul\":4277:4643   */\n      swap2\n      swap1\n      pop\n      jump\t// out\n        /* \"#utility.yul\":4649:5068   */\n    tag_39:\n        /* \"#utility.yul\":4815:4819   */\n      0x00\n        /* \"#utility.yul\":4853:4855   */\n      0x20\n        /* \"#utility.yul\":4842:4851   */\n      dup3\n        /* \"#utility.yul\":4838:4856   */\n      add\n        /* \"#utility.yul\":4830:4856   */\n      swap1\n      pop\n        /* \"#utility.yul\":4902:4911   */\n      dup2\n        /* \"#utility.yul\":4896:4900   */\n      dup2\n        /* \"#utility.yul\":4892:4912   */\n      sub\n        /* \"#utility.yul\":4888:4889   */\n      0x00\n        /* \"#utility.yul\":4877:4886   */\n      dup4\n        /* \"#utility.yul\":4873:4890   */\n      add\n        /* \"#utility.yul\":4866:4913   */\n      mstore\n        /* \"#utility.yul\":4930:5061   */\n      tag_132\n        /* \"#utility.yul\":5056:5060   */\n      dup2\n        /* \"#utility.yul\":4930:5061   */\n      tag_75\n      jump\t// in\n    tag_132:\n        /* \"#utility.yul\":4922:5061   */\n      swap1\n      pop\n        /* \"#utility.yul\":4649:5068   */\n      swap2\n      swap1\n      pop\n      jump\t// out\n        /* \"#utility.yul\":5074:5254   */\n    tag_76:\n        /* \"#utility.yul\":5122:5199   */\n      0x4e487b7100000000000000000000000000000000000000000000000000000000\n        /* \"#utility.yul\":5119:5120   */\n      0x00\n        /* \"#utility.yul\":5112:5200   */\n      mstore\n        /* \"#utility.yul\":5219:5223   */\n      0x11\n        /* \"#utility.yul\":5216:5217   */\n      0x04\n        /* \"#utility.yul\":5209:5224   */\n      mstore\n        /* \"#utility.yul\":5243:5247   */\n      0x24\n        /* \"#utility.yul\":5240:5241   */\n      0x00\n        /* \"#utility.yul\":5233:5248   */\n      revert\n        /* \"#utility.yul\":5260:5454   */\n    tag_42:\n        /* \"#utility.yul\":5300:5304   */\n      0x00\n        /* \"#utility.yul\":5320:5340   */\n      tag_135\n        /* \"#utility.yul\":5338:5339   */\n      dup3\n        /* \"#utility.yul\":5320:5340   */\n      tag_56\n      jump\t// in\n    tag_135:\n        /* \"#utility.yul\":5315:5340   */\n      swap2\n      pop\n        /* \"#utility.yul\":5354:5374   */\n      tag_136\n        /* \"#utility.yul\":5372:5373   */\n      dup4\n        /* \"#utility.yul\":5354:5374   */\n      tag_56\n      jump\t// in\n    tag_136:\n        /* \"#utility.yul\":5349:5374   */\n      swap3\n      pop\n        /* \"#utility.yul\":5398:5399   */\n      dup3\n        /* \"#utility.yul\":5395:5396   */\n      dup3\n        /* \"#utility.yul\":5391:5400   */\n      sub\n        /* \"#utility.yul\":5383:5400   */\n      swap1\n      pop\n        /* \"#utility.yul\":5422:5423   */\n      dup2\n        /* \"#utility.yul\":5416:5420   */\n      dup2\n        /* \"#utility.yul\":5413:5424   */\n      gt\n        /* \"#utility.yul\":5410:5447   */\n      iszero\n      tag_137\n      jumpi\n        /* \"#utility.yul\":5427:5445   */\n      tag_138\n      tag_76\n      jump\t// in\n    tag_138:\n        /* \"#utility.yul\":5410:5447   */\n    tag_137:\n        /* \"#utility.yul\":5260:5454   */\n      swap3\n      swap2\n      pop\n      pop\n      jump\t// out\n        /* \"#utility.yul\":5460:5630   */\n    tag_77:\n        /* \"#utility.yul\":5600:5622   */\n      0x496e73756666696369656e742062616c616e6365000000000000000000000000\n        /* \"#utility.yul\":5596:5597   */\n      0x00\n        /* \"#utility.yul\":5588:5594   */\n      dup3\n        /* \"#utility.yul\":5584:5598   */\n      add\n        /* \"#utility.yul\":5577:5623   */\n      mstore\n        /* \"#utility.yul\":5460:5630   */\n      pop\n      jump\t// out\n        /* \"#utility.yul\":5636:6002   */\n    tag_78:\n        /* \"#utility.yul\":5778:5781   */\n      0x00\n        /* \"#utility.yul\":5799:5866   */\n      tag_141\n        /* \"#utility.yul\":5863:5865   */\n      0x14\n        /* \"#utility.yul\":5858:5861   */\n      dup4\n        /* \"#utility.yul\":5799:5866   */\n      tag_68\n      jump\t// in\n    tag_141:\n        /* \"#utility.yul\":5792:5866   */\n      swap2\n      pop\n        /* \"#utility.yul\":5875:5968   */\n      tag_142\n        /* \"#utility.yul\":5964:5967   */\n      dup3\n        /* \"#utility.yul\":5875:5968   */\n      tag_77\n      jump\t// in\n    tag_142:\n        /* \"#utility.yul\":5993:5995   */\n      0x20\n        /* \"#utility.yul\":5988:5991   */\n      dup3\n        /* \"#utility.yul\":5984:5996   */\n      add\n        /* \"#utility.yul\":5977:5996   */\n      swap1\n      pop\n        /* \"#utility.yul\":5636:6002   */\n      swap2\n      swap1\n      pop\n      jump\t// out\n        /* \"#utility.yul\":6008:6427   */\n    tag_47:\n        /* \"#utility.yul\":6174:6178   */\n      0x00\n        /* \"#utility.yul\":6212:6214   */\n      0x20\n        /* \"#utility.yul\":6201:6210   */\n      dup3\n        /* \"#utility.yul\":6197:6215   */\n      add\n        /* \"#utility.yul\":6189:6215   */\n      swap1\n      pop\n        /* \"#utility.yul\":6261:6270   */\n      dup2\n        /* \"#utility.yul\":6255:6259   */\n      dup2\n        /* \"#utility.yul\":6251:6271   */\n      sub\n        /* \"#utility.yul\":6247:6248   */\n      0x00\n        /* \"#utility.yul\":6236:6245   */\n      dup4\n        /* \"#utility.yul\":6232:6249   */\n      add\n        /* \"#utility.yul\":6225:6272   */\n      mstore\n        /* \"#utility.yul\":6289:6420   */\n      tag_144\n        /* \"#utility.yul\":6415:6419   */\n      dup2\n        /* \"#utility.yul\":6289:6420   */\n      tag_78\n      jump\t// in\n    tag_144:\n        /* \"#utility.yul\":6281:6420   */\n      swap1\n      pop\n        /* \"#utility.yul\":6008:6427   */\n      swap2\n      swap1\n      pop\n      jump\t// out\n        /* \"#utility.yul\":6433:6624   */\n    tag_50:\n        /* \"#utility.yul\":6473:6476   */\n      0x00\n        /* \"#utility.yul\":6492:6512   */\n      tag_146\n        /* \"#utility.yul\":6510:6511   */\n      dup3\n        /* \"#utility.yul\":6492:6512   */\n      tag_56\n      jump\t// in\n    tag_146:\n        /* \"#utility.yul\":6487:6512   */\n      swap2\n      pop\n        /* \"#utility.yul\":6526:6546   */\n      tag_147\n        /* \"#utility.yul\":6544:6545   */\n      dup4\n        /* \"#utility.yul\":6526:6546   */\n      tag_56\n      jump\t// in\n    tag_147:\n        /* \"#utility.yul\":6521:6546   */\n      swap3\n      pop\n        /* \"#utility.yul\":6569:6570   */\n      dup3\n        /* \"#utility.yul\":6566:6567   */\n      dup3\n        /* \"#utility.yul\":6562:6571   */\n      add\n        /* \"#utility.yul\":6555:6571   */\n      swap1\n      pop\n        /* \"#utility.yul\":6590:6593   */\n      dup1\n        /* \"#utility.yul\":6587:6588   */\n      dup3\n        /* \"#utility.yul\":6584:6594   */\n      gt\n        /* \"#utility.yul\":6581:6617   */\n      iszero\n      tag_148\n      jumpi\n        /* \"#utility.yul\":6597:6615   */\n      tag_149\n      tag_76\n      jump\t// in\n    tag_149:\n        /* \"#utility.yul\":6581:6617   */\n    tag_148:\n        /* \"#utility.yul\":6433:6624   */\n      swap3\n      swap2\n      pop\n      pop\n      jump\t// out\n\n    auxdata: 0xa264697066735822122033a19f9a22913202b812c1bc4173833ae3e89c9d21487a0280d7d4e6ed8dcf1c64736f6c634300081a0033\n}\n",
				"bytecode": {
					"linkReferences": {},
					"object": "60806040525f6002553480156012575f80fd5b50335f806101000a81548173ffffffffffffffffffffffffffffffffffffffff021916908373ffffffffffffffffffffffffffffffffffffffff1602179055506109b48061005f5f395ff3fe608060405234801561000f575f80fd5b5060043610610060575f3560e01c8063047fc9aa1461006457806312065fe014610082578063449a52f8146100a05780638da5cb5b146100d0578063a9059cbb146100ee578063bf35a18c1461011e575b5f80fd5b61006c61014e565b6040516100799190610648565b60405180910390f35b61008a610154565b6040516100979190610648565b60405180910390f35b6100ba60048036038101906100b591906106e9565b610198565b6040516100c79190610797565b60405180910390f35b6100d861032a565b6040516100e591906107d7565b60405180910390f35b610108600480360381019061010391906106e9565b61034d565b6040516101159190610797565b60405180910390f35b610138600480360381019061013391906107f0565b6104ea565b6040516101459190610797565b60405180910390f35b60025481565b5f60015f3373ffffffffffffffffffffffffffffffffffffffff1673ffffffffffffffffffffffffffffffffffffffff1681526020019081526020015f2054905090565b60605f8054906101000a900473ffffffffffffffffffffffffffffffffffffffff1673ffffffffffffffffffffffffffffffffffffffff163373ffffffffffffffffffffffffffffffffffffffff1614610227576040517f08c379a000000000000000000000000000000000000000000000000000000000815260040161021e90610865565b60405180910390fd5b8160015f8573ffffffffffffffffffffffffffffffffffffffff1673ffffffffffffffffffffffffffffffffffffffff1681526020019081526020015f20819055508160025461027791906108b0565b60015f805f9054906101000a900473ffffffffffffffffffffffffffffffffffffffff1673ffffffffffffffffffffffffffffffffffffffff1673ffffffffffffffffffffffffffffffffffffffff1681526020019081526020015f2081905550816002546102e691906108b0565b6002819055506040518060400160405280600981526020017f4d696e74656420546f0000000000000000000000000000000000000000000000815250905092915050565b5f8054906101000a900473ffffffffffffffffffffffffffffffffffffffff1681565b60608160015f3373ffffffffffffffffffffffffffffffffffffffff1673ffffffffffffffffffffffffffffffffffffffff1681526020019081526020015f205410156103cf576040517f08c379a00000000000000000000000000000000000000000000000000000000081526004016103c69061092d565b60405180910390fd5b8160015f3373ffffffffffffffffffffffffffffffffffffffff1673ffffffffffffffffffffffffffffffffffffffff1681526020019081526020015f205461041891906108b0565b60015f3373ffffffffffffffffffffffffffffffffffffffff1673ffffffffffffffffffffffffffffffffffffffff1681526020019081526020015f20819055508160015f8573ffffffffffffffffffffffffffffffffffffffff1673ffffffffffffffffffffffffffffffffffffffff1681526020019081526020015f205f8282546104a5919061094b565b925050819055506040518060400160405280601681526020017f53756365737366756c6c79207472616e73666572656400000000000000000000815250905092915050565b60605f8054906101000a900473ffffffffffffffffffffffffffffffffffffffff1673ffffffffffffffffffffffffffffffffffffffff163373ffffffffffffffffffffffffffffffffffffffff1614610579576040517f08c379a000000000000000000000000000000000000000000000000000000000815260040161057090610865565b60405180910390fd5b8160015f805f9054906101000a900473ffffffffffffffffffffffffffffffffffffffff1673ffffffffffffffffffffffffffffffffffffffff1673ffffffffffffffffffffffffffffffffffffffff1681526020019081526020015f20819055508160025f8282546105ec919061094b565b925050819055506040518060400160405280601281526020017f53756365737366756c6c79206d696e74656400000000000000000000000000008152509050919050565b5f819050919050565b61064281610630565b82525050565b5f60208201905061065b5f830184610639565b92915050565b5f80fd5b5f73ffffffffffffffffffffffffffffffffffffffff82169050919050565b5f61068e82610665565b9050919050565b61069e81610684565b81146106a8575f80fd5b50565b5f813590506106b981610695565b92915050565b6106c881610630565b81146106d2575f80fd5b50565b5f813590506106e3816106bf565b92915050565b5f80604083850312156106ff576106fe610661565b5b5f61070c858286016106ab565b925050602061071d858286016106d5565b9150509250929050565b5f81519050919050565b5f82825260208201905092915050565b8281835e5f83830152505050565b5f601f19601f8301169050919050565b5f61076982610727565b6107738185610731565b9350610783818560208601610741565b61078c8161074f565b840191505092915050565b5f6020820190508181035f8301526107af818461075f565b905092915050565b5f6107c182610665565b9050919050565b6107d1816107b7565b82525050565b5f6020820190506107ea5f8301846107c8565b92915050565b5f6020828403121561080557610804610661565b5b5f610812848285016106d5565b91505092915050565b7f556e617574686f72697a656400000000000000000000000000000000000000005f82015250565b5f61084f600c83610731565b915061085a8261081b565b602082019050919050565b5f6020820190508181035f83015261087c81610843565b9050919050565b7f4e487b71000000000000000000000000000000000000000000000000000000005f52601160045260245ffd5b5f6108ba82610630565b91506108c583610630565b92508282039050818111156108dd576108dc610883565b5b92915050565b7f496e73756666696369656e742062616c616e63650000000000000000000000005f82015250565b5f610917601483610731565b9150610922826108e3565b602082019050919050565b5f6020820190508181035f8301526109448161090b565b9050919050565b5f61095582610630565b915061096083610630565b925082820190508082111561097857610977610883565b5b9291505056fea264697066735822122033a19f9a22913202b812c1bc4173833ae3e89c9d21487a0280d7d4e6ed8dcf1c64736f6c634300081a0033",
					"opcodes": "PUSH1 0x80 PUSH1 0x40 MSTORE PUSH0 PUSH1 0x2 SSTORE CALLVALUE DUP1 ISZERO PUSH1 0x12 JUMPI PUSH0 DUP1 REVERT JUMPDEST POP CALLER PUSH0 DUP1 PUSH2 0x100 EXP DUP2 SLOAD DUP2 PUSH20 0xFFFFFFFFFFFFFFFFFFFFFFFFFFFFFFFFFFFFFFFF MUL NOT AND SWAP1 DUP4 PUSH20 0xFFFFFFFFFFFFFFFFFFFFFFFFFFFFFFFFFFFFFFFF AND MUL OR SWAP1 SSTORE POP PUSH2 0x9B4 DUP1 PUSH2 0x5F PUSH0 CODECOPY PUSH0 RETURN INVALID PUSH1 0x80 PUSH1 0x40 MSTORE CALLVALUE DUP1 ISZERO PUSH2 0xF JUMPI PUSH0 DUP1 REVERT JUMPDEST POP PUSH1 0x4 CALLDATASIZE LT PUSH2 0x60 JUMPI PUSH0 CALLDATALOAD PUSH1 0xE0 SHR DUP1 PUSH4 0x47FC9AA EQ PUSH2 0x64 JUMPI DUP1 PUSH4 0x12065FE0 EQ PUSH2 0x82 JUMPI DUP1 PUSH4 0x449A52F8 EQ PUSH2 0xA0 JUMPI DUP1 PUSH4 0x8DA5CB5B EQ PUSH2 0xD0 JUMPI DUP1 PUSH4 0xA9059CBB EQ PUSH2 0xEE JUMPI DUP1 PUSH4 0xBF35A18C EQ PUSH2 0x11E JUMPI JUMPDEST PUSH0 DUP1 REVERT JUMPDEST PUSH2 0x6C PUSH2 0x14E JUMP JUMPDEST PUSH1 0x40 MLOAD PUSH2 0x79 SWAP2 SWAP1 PUSH2 0x648 JUMP JUMPDEST PUSH1 0x40 MLOAD DUP1 SWAP2 SUB SWAP1 RETURN JUMPDEST PUSH2 0x8A PUSH2 0x154 JUMP JUMPDEST PUSH1 0x40 MLOAD PUSH2 0x97 SWAP2 SWAP1 PUSH2 0x648 JUMP JUMPDEST PUSH1 0x40 MLOAD DUP1 SWAP2 SUB SWAP1 RETURN JUMPDEST PUSH2 0xBA PUSH1 0x4 DUP1 CALLDATASIZE SUB DUP2 ADD SWAP1 PUSH2 0xB5 SWAP2 SWAP1 PUSH2 0x6E9 JUMP JUMPDEST PUSH2 0x198 JUMP JUMPDEST PUSH1 0x40 MLOAD PUSH2 0xC7 SWAP2 SWAP1 PUSH2 0x797 JUMP JUMPDEST PUSH1 0x40 MLOAD DUP1 SWAP2 SUB SWAP1 RETURN JUMPDEST PUSH2 0xD8 PUSH2 0x32A JUMP JUMPDEST PUSH1 0x40 MLOAD PUSH2 0xE5 SWAP2 SWAP1 PUSH2 0x7D7 JUMP JUMPDEST PUSH1 0x40 MLOAD DUP1 SWAP2 SUB SWAP1 RETURN JUMPDEST PUSH2 0x108 PUSH1 0x4 DUP1 CALLDATASIZE SUB DUP2 ADD SWAP1 PUSH2 0x103 SWAP2 SWAP1 PUSH2 0x6E9 JUMP JUMPDEST PUSH2 0x34D JUMP JUMPDEST PUSH1 0x40 MLOAD PUSH2 0x115 SWAP2 SWAP1 PUSH2 0x797 JUMP JUMPDEST PUSH1 0x40 MLOAD DUP1 SWAP2 SUB SWAP1 RETURN JUMPDEST PUSH2 0x138 PUSH1 0x4 DUP1 CALLDATASIZE SUB DUP2 ADD SWAP1 PUSH2 0x133 SWAP2 SWAP1 PUSH2 0x7F0 JUMP JUMPDEST PUSH2 0x4EA JUMP JUMPDEST PUSH1 0x40 MLOAD PUSH2 0x145 SWAP2 SWAP1 PUSH2 0x797 JUMP JUMPDEST PUSH1 0x40 MLOAD DUP1 SWAP2 SUB SWAP1 RETURN JUMPDEST PUSH1 0x2 SLOAD DUP2 JUMP JUMPDEST PUSH0 PUSH1 0x1 PUSH0 CALLER PUSH20 0xFFFFFFFFFFFFFFFFFFFFFFFFFFFFFFFFFFFFFFFF AND PUSH20 0xFFFFFFFFFFFFFFFFFFFFFFFFFFFFFFFFFFFFFFFF AND DUP2 MSTORE PUSH1 0x20 ADD SWAP1 DUP2 MSTORE PUSH1 0x20 ADD PUSH0 KECCAK256 SLOAD SWAP1 POP SWAP1 JUMP JUMPDEST PUSH1 0x60 PUSH0 DUP1 SLOAD SWAP1 PUSH2 0x100 EXP SWAP1 DIV PUSH20 0xFFFFFFFFFFFFFFFFFFFFFFFFFFFFFFFFFFFFFFFF AND PUSH20 0xFFFFFFFFFFFFFFFFFFFFFFFFFFFFFFFFFFFFFFFF AND CALLER PUSH20 0xFFFFFFFFFFFFFFFFFFFFFFFFFFFFFFFFFFFFFFFF AND EQ PUSH2 0x227 JUMPI PUSH1 0x40 MLOAD PUSH32 0x8C379A000000000000000000000000000000000000000000000000000000000 DUP2 MSTORE PUSH1 0x4 ADD PUSH2 0x21E SWAP1 PUSH2 0x865 JUMP JUMPDEST PUSH1 0x40 MLOAD DUP1 SWAP2 SUB SWAP1 REVERT JUMPDEST DUP2 PUSH1 0x1 PUSH0 DUP6 PUSH20 0xFFFFFFFFFFFFFFFFFFFFFFFFFFFFFFFFFFFFFFFF AND PUSH20 0xFFFFFFFFFFFFFFFFFFFFFFFFFFFFFFFFFFFFFFFF AND DUP2 MSTORE PUSH1 0x20 ADD SWAP1 DUP2 MSTORE PUSH1 0x20 ADD PUSH0 KECCAK256 DUP2 SWAP1 SSTORE POP DUP2 PUSH1 0x2 SLOAD PUSH2 0x277 SWAP2 SWAP1 PUSH2 0x8B0 JUMP JUMPDEST PUSH1 0x1 PUSH0 DUP1 PUSH0 SWAP1 SLOAD SWAP1 PUSH2 0x100 EXP SWAP1 DIV PUSH20 0xFFFFFFFFFFFFFFFFFFFFFFFFFFFFFFFFFFFFFFFF AND PUSH20 0xFFFFFFFFFFFFFFFFFFFFFFFFFFFFFFFFFFFFFFFF AND PUSH20 0xFFFFFFFFFFFFFFFFFFFFFFFFFFFFFFFFFFFFFFFF AND DUP2 MSTORE PUSH1 0x20 ADD SWAP1 DUP2 MSTORE PUSH1 0x20 ADD PUSH0 KECCAK256 DUP2 SWAP1 SSTORE POP DUP2 PUSH1 0x2 SLOAD PUSH2 0x2E6 SWAP2 SWAP1 PUSH2 0x8B0 JUMP JUMPDEST PUSH1 0x2 DUP2 SWAP1 SSTORE POP PUSH1 0x40 MLOAD DUP1 PUSH1 0x40 ADD PUSH1 0x40 MSTORE DUP1 PUSH1 0x9 DUP2 MSTORE PUSH1 0x20 ADD PUSH32 0x4D696E74656420546F0000000000000000000000000000000000000000000000 DUP2 MSTORE POP SWAP1 POP SWAP3 SWAP2 POP POP JUMP JUMPDEST PUSH0 DUP1 SLOAD SWAP1 PUSH2 0x100 EXP SWAP1 DIV PUSH20 0xFFFFFFFFFFFFFFFFFFFFFFFFFFFFFFFFFFFFFFFF AND DUP2 JUMP JUMPDEST PUSH1 0x60 DUP2 PUSH1 0x1 PUSH0 CALLER PUSH20 0xFFFFFFFFFFFFFFFFFFFFFFFFFFFFFFFFFFFFFFFF AND PUSH20 0xFFFFFFFFFFFFFFFFFFFFFFFFFFFFFFFFFFFFFFFF AND DUP2 MSTORE PUSH1 0x20 ADD SWAP1 DUP2 MSTORE PUSH1 0x20 ADD PUSH0 KECCAK256 SLOAD LT ISZERO PUSH2 0x3CF JUMPI PUSH1 0x40 MLOAD PUSH32 0x8C379A000000000000000000000000000000000000000000000000000000000 DUP2 MSTORE PUSH1 0x4 ADD PUSH2 0x3C6 SWAP1 PUSH2 0x92D JUMP JUMPDEST PUSH1 0x40 MLOAD DUP1 SWAP2 SUB SWAP1 REVERT JUMPDEST DUP2 PUSH1 0x1 PUSH0 CALLER PUSH20 0xFFFFFFFFFFFFFFFFFFFFFFFFFFFFFFFFFFFFFFFF AND PUSH20 0xFFFFFFFFFFFFFFFFFFFFFFFFFFFFFFFFFFFFFFFF AND DUP2 MSTORE PUSH1 0x20 ADD SWAP1 DUP2 MSTORE PUSH1 0x20 ADD PUSH0 KECCAK256 SLOAD PUSH2 0x418 SWAP2 SWAP1 PUSH2 0x8B0 JUMP JUMPDEST PUSH1 0x1 PUSH0 CALLER PUSH20 0xFFFFFFFFFFFFFFFFFFFFFFFFFFFFFFFFFFFFFFFF AND PUSH20 0xFFFFFFFFFFFFFFFFFFFFFFFFFFFFFFFFFFFFFFFF AND DUP2 MSTORE PUSH1 0x20 ADD SWAP1 DUP2 MSTORE PUSH1 0x20 ADD PUSH0 KECCAK256 DUP2 SWAP1 SSTORE POP DUP2 PUSH1 0x1 PUSH0 DUP6 PUSH20 0xFFFFFFFFFFFFFFFFFFFFFFFFFFFFFFFFFFFFFFFF AND PUSH20 0xFFFFFFFFFFFFFFFFFFFFFFFFFFFFFFFFFFFFFFFF AND DUP2 MSTORE PUSH1 0x20 ADD SWAP1 DUP2 MSTORE PUSH1 0x20 ADD PUSH0 KECCAK256 PUSH0 DUP3 DUP3 SLOAD PUSH2 0x4A5 SWAP2 SWAP1 PUSH2 0x94B JUMP JUMPDEST SWAP3 POP POP DUP2 SWAP1 SSTORE POP PUSH1 0x40 MLOAD DUP1 PUSH1 0x40 ADD PUSH1 0x40 MSTORE DUP1 PUSH1 0x16 DUP2 MSTORE PUSH1 0x20 ADD PUSH32 0x53756365737366756C6C79207472616E73666572656400000000000000000000 DUP2 MSTORE POP SWAP1 POP SWAP3 SWAP2 POP POP JUMP JUMPDEST PUSH1 0x60 PUSH0 DUP1 SLOAD SWAP1 PUSH2 0x100 EXP SWAP1 DIV PUSH20 0xFFFFFFFFFFFFFFFFFFFFFFFFFFFFFFFFFFFFFFFF AND PUSH20 0xFFFFFFFFFFFFFFFFFFFFFFFFFFFFFFFFFFFFFFFF AND CALLER PUSH20 0xFFFFFFFFFFFFFFFFFFFFFFFFFFFFFFFFFFFFFFFF AND EQ PUSH2 0x579 JUMPI PUSH1 0x40 MLOAD PUSH32 0x8C379A000000000000000000000000000000000000000000000000000000000 DUP2 MSTORE PUSH1 0x4 ADD PUSH2 0x570 SWAP1 PUSH2 0x865 JUMP JUMPDEST PUSH1 0x40 MLOAD DUP1 SWAP2 SUB SWAP1 REVERT JUMPDEST DUP2 PUSH1 0x1 PUSH0 DUP1 PUSH0 SWAP1 SLOAD SWAP1 PUSH2 0x100 EXP SWAP1 DIV PUSH20 0xFFFFFFFFFFFFFFFFFFFFFFFFFFFFFFFFFFFFFFFF AND PUSH20 0xFFFFFFFFFFFFFFFFFFFFFFFFFFFFFFFFFFFFFFFF AND PUSH20 0xFFFFFFFFFFFFFFFFFFFFFFFFFFFFFFFFFFFFFFFF AND DUP2 MSTORE PUSH1 0x20 ADD SWAP1 DUP2 MSTORE PUSH1 0x20 ADD PUSH0 KECCAK256 DUP2 SWAP1 SSTORE POP DUP2 PUSH1 0x2 PUSH0 DUP3 DUP3 SLOAD PUSH2 0x5EC SWAP2 SWAP1 PUSH2 0x94B JUMP JUMPDEST SWAP3 POP POP DUP2 SWAP1 SSTORE POP PUSH1 0x40 MLOAD DUP1 PUSH1 0x40 ADD PUSH1 0x40 MSTORE DUP1 PUSH1 0x12 DUP2 MSTORE PUSH1 0x20 ADD PUSH32 0x53756365737366756C6C79206D696E7465640000000000000000000000000000 DUP2 MSTORE POP SWAP1 POP SWAP2 SWAP1 POP JUMP JUMPDEST PUSH0 DUP2 SWAP1 POP SWAP2 SWAP1 POP JUMP JUMPDEST PUSH2 0x642 DUP2 PUSH2 0x630 JUMP JUMPDEST DUP3 MSTORE POP POP JUMP JUMPDEST PUSH0 PUSH1 0x20 DUP3 ADD SWAP1 POP PUSH2 0x65B PUSH0 DUP4 ADD DUP5 PUSH2 0x639 JUMP JUMPDEST SWAP3 SWAP2 POP POP JUMP JUMPDEST PUSH0 DUP1 REVERT JUMPDEST PUSH0 PUSH20 0xFFFFFFFFFFFFFFFFFFFFFFFFFFFFFFFFFFFFFFFF DUP3 AND SWAP1 POP SWAP2 SWAP1 POP JUMP JUMPDEST PUSH0 PUSH2 0x68E DUP3 PUSH2 0x665 JUMP JUMPDEST SWAP1 POP SWAP2 SWAP1 POP JUMP JUMPDEST PUSH2 0x69E DUP2 PUSH2 0x684 JUMP JUMPDEST DUP2 EQ PUSH2 0x6A8 JUMPI PUSH0 DUP1 REVERT JUMPDEST POP JUMP JUMPDEST PUSH0 DUP2 CALLDATALOAD SWAP1 POP PUSH2 0x6B9 DUP2 PUSH2 0x695 JUMP JUMPDEST SWAP3 SWAP2 POP POP JUMP JUMPDEST PUSH2 0x6C8 DUP2 PUSH2 0x630 JUMP JUMPDEST DUP2 EQ PUSH2 0x6D2 JUMPI PUSH0 DUP1 REVERT JUMPDEST POP JUMP JUMPDEST PUSH0 DUP2 CALLDATALOAD SWAP1 POP PUSH2 0x6E3 DUP2 PUSH2 0x6BF JUMP JUMPDEST SWAP3 SWAP2 POP POP JUMP JUMPDEST PUSH0 DUP1 PUSH1 0x40 DUP4 DUP6 SUB SLT ISZERO PUSH2 0x6FF JUMPI PUSH2 0x6FE PUSH2 0x661 JUMP JUMPDEST JUMPDEST PUSH0 PUSH2 0x70C DUP6 DUP3 DUP7 ADD PUSH2 0x6AB JUMP JUMPDEST SWAP3 POP POP PUSH1 0x20 PUSH2 0x71D DUP6 DUP3 DUP7 ADD PUSH2 0x6D5 JUMP JUMPDEST SWAP2 POP POP SWAP3 POP SWAP3 SWAP1 POP JUMP JUMPDEST PUSH0 DUP2 MLOAD SWAP1 POP SWAP2 SWAP1 POP JUMP JUMPDEST PUSH0 DUP3 DUP3 MSTORE PUSH1 0x20 DUP3 ADD SWAP1 POP SWAP3 SWAP2 POP POP JUMP JUMPDEST DUP3 DUP2 DUP4 MCOPY PUSH0 DUP4 DUP4 ADD MSTORE POP POP POP JUMP JUMPDEST PUSH0 PUSH1 0x1F NOT PUSH1 0x1F DUP4 ADD AND SWAP1 POP SWAP2 SWAP1 POP JUMP JUMPDEST PUSH0 PUSH2 0x769 DUP3 PUSH2 0x727 JUMP JUMPDEST PUSH2 0x773 DUP2 DUP6 PUSH2 0x731 JUMP JUMPDEST SWAP4 POP PUSH2 0x783 DUP2 DUP6 PUSH1 0x20 DUP7 ADD PUSH2 0x741 JUMP JUMPDEST PUSH2 0x78C DUP2 PUSH2 0x74F JUMP JUMPDEST DUP5 ADD SWAP2 POP POP SWAP3 SWAP2 POP POP JUMP JUMPDEST PUSH0 PUSH1 0x20 DUP3 ADD SWAP1 POP DUP2 DUP2 SUB PUSH0 DUP4 ADD MSTORE PUSH2 0x7AF DUP2 DUP5 PUSH2 0x75F JUMP JUMPDEST SWAP1 POP SWAP3 SWAP2 POP POP JUMP JUMPDEST PUSH0 PUSH2 0x7C1 DUP3 PUSH2 0x665 JUMP JUMPDEST SWAP1 POP SWAP2 SWAP1 POP JUMP JUMPDEST PUSH2 0x7D1 DUP2 PUSH2 0x7B7 JUMP JUMPDEST DUP3 MSTORE POP POP JUMP JUMPDEST PUSH0 PUSH1 0x20 DUP3 ADD SWAP1 POP PUSH2 0x7EA PUSH0 DUP4 ADD DUP5 PUSH2 0x7C8 JUMP JUMPDEST SWAP3 SWAP2 POP POP JUMP JUMPDEST PUSH0 PUSH1 0x20 DUP3 DUP5 SUB SLT ISZERO PUSH2 0x805 JUMPI PUSH2 0x804 PUSH2 0x661 JUMP JUMPDEST JUMPDEST PUSH0 PUSH2 0x812 DUP5 DUP3 DUP6 ADD PUSH2 0x6D5 JUMP JUMPDEST SWAP2 POP POP SWAP3 SWAP2 POP POP JUMP JUMPDEST PUSH32 0x556E617574686F72697A65640000000000000000000000000000000000000000 PUSH0 DUP3 ADD MSTORE POP JUMP JUMPDEST PUSH0 PUSH2 0x84F PUSH1 0xC DUP4 PUSH2 0x731 JUMP JUMPDEST SWAP2 POP PUSH2 0x85A DUP3 PUSH2 0x81B JUMP JUMPDEST PUSH1 0x20 DUP3 ADD SWAP1 POP SWAP2 SWAP1 POP JUMP JUMPDEST PUSH0 PUSH1 0x20 DUP3 ADD SWAP1 POP DUP2 DUP2 SUB PUSH0 DUP4 ADD MSTORE PUSH2 0x87C DUP2 PUSH2 0x843 JUMP JUMPDEST SWAP1 POP SWAP2 SWAP1 POP JUMP JUMPDEST PUSH32 0x4E487B7100000000000000000000000000000000000000000000000000000000 PUSH0 MSTORE PUSH1 0x11 PUSH1 0x4 MSTORE PUSH1 0x24 PUSH0 REVERT JUMPDEST PUSH0 PUSH2 0x8BA DUP3 PUSH2 0x630 JUMP JUMPDEST SWAP2 POP PUSH2 0x8C5 DUP4 PUSH2 0x630 JUMP JUMPDEST SWAP3 POP DUP3 DUP3 SUB SWAP1 POP DUP2 DUP2 GT ISZERO PUSH2 0x8DD JUMPI PUSH2 0x8DC PUSH2 0x883 JUMP JUMPDEST JUMPDEST SWAP3 SWAP2 POP POP JUMP JUMPDEST PUSH32 0x496E73756666696369656E742062616C616E6365000000000000000000000000 PUSH0 DUP3 ADD MSTORE POP JUMP JUMPDEST PUSH0 PUSH2 0x917 PUSH1 0x14 DUP4 PUSH2 0x731 JUMP JUMPDEST SWAP2 POP PUSH2 0x922 DUP3 PUSH2 0x8E3 JUMP JUMPDEST PUSH1 0x20 DUP3 ADD SWAP1 POP SWAP2 SWAP1 POP JUMP JUMPDEST PUSH0 PUSH1 0x20 DUP3 ADD SWAP1 POP DUP2 DUP2 SUB PUSH0 DUP4 ADD MSTORE PUSH2 0x944 DUP2 PUSH2 0x90B JUMP JUMPDEST SWAP1 POP SWAP2 SWAP1 POP JUMP JUMPDEST PUSH0 PUSH2 0x955 DUP3 PUSH2 0x630 JUMP JUMPDEST SWAP2 POP PUSH2 0x960 DUP4 PUSH2 0x630 JUMP JUMPDEST SWAP3 POP DUP3 DUP3 ADD SWAP1 POP DUP1 DUP3 GT ISZERO PUSH2 0x978 JUMPI PUSH2 0x977 PUSH2 0x883 JUMP JUMPDEST JUMPDEST SWAP3 SWAP2 POP POP JUMP INVALID LOG2 PUSH5 0x6970667358 0x22 SLT KECCAK256 CALLER LOG1 SWAP16 SWAP11 0x22 SWAP2 ORIGIN MUL 0xB8 SLT 0xC1 0xBC COINBASE PUSH20 0x833AE3E89C9D21487A0280D7D4E6ED8DCF1C6473 PUSH16 0x6C634300081A00330000000000000000 "
				},
				"gasEstimates": {
					"creation": {
						"codeDepositCost": "496800",
						"executionCost": "29798",
						"totalCost": "526598"
					},
					"external": {
						"createMint(uint256)": "infinite",
						"getBalance()": "2519",
						"mintTo(address,uint256)": "infinite",
						"owner()": "2549",
						"supply()": "2403",
						"transfer(address,uint256)": "infinite"
					}
				},
				"methodIdentifiers": {
					"createMint(uint256)": "bf35a18c",
					"getBalance()": "12065fe0",
					"mintTo(address,uint256)": "449a52f8",
					"owner()": "8da5cb5b",
					"supply()": "047fc9aa",
					"transfer(address,uint256)": "a9059cbb"
				}
			},
			"storageLayout": {
				"storage": [
					{
						"astId": 3,
						"contract": "contracts/Creating_Token-ERC20/token_mint.sol:CreateToken",
						"label": "owner",
						"offset": 0,
						"slot": "0",
						"type": "t_address"
					},
					{
						"astId": 7,
						"contract": "contracts/Creating_Token-ERC20/token_mint.sol:CreateToken",
						"label": "balances",
						"offset": 0,
						"slot": "1",
						"type": "t_mapping(t_address,t_uint256)"
					},
					{
						"astId": 10,
						"contract": "contracts/Creating_Token-ERC20/token_mint.sol:CreateToken",
						"label": "supply",
						"offset": 0,
						"slot": "2",
						"type": "t_uint256"
					}
				],
				"types": {
					"t_address": {
						"encoding": "inplace",
						"label": "address",
						"numberOfBytes": "20"
					},
					"t_mapping(t_address,t_uint256)": {
						"encoding": "mapping",
						"key": "t_address",
						"label": "mapping(address => uint256)",
						"numberOfBytes": "32",
						"value": "t_uint256"
					},
					"t_uint256": {
						"encoding": "inplace",
						"label": "uint256",
						"numberOfBytes": "32"
					}
				}
			},
			"userdoc": {
				"kind": "user",
				"methods": {},
				"version": 1
			}
		}
	}
}