{
	"contracts/function_types/view.sol": {
		"View_example": {
			"abi": [
				{
					"inputs": [],
					"name": "a",
					"outputs": [
						{
							"internalType": "uint8",
							"name": "",
							"type": "uint8"
						}
					],
					"stateMutability": "view",
					"type": "function"
				},
				{
					"inputs": [],
					"name": "b",
					"outputs": [
						{
							"internalType": "uint8",
							"name": "",
							"type": "uint8"
						}
					],
					"stateMutability": "view",
					"type": "function"
				},
				{
					"inputs": [],
					"name": "sum",
					"outputs": [
						{
							"internalType": "uint16",
							"name": "",
							"type": "uint16"
						}
					],
					"stateMutability": "view",
					"type": "function"
				},
				{
					"inputs": [],
					"name": "total",
					"outputs": [
						{
							"internalType": "uint8",
							"name": "",
							"type": "uint8"
						}
					],
					"stateMutability": "view",
					"type": "function"
				}
			],
			"devdoc": {
				"kind": "dev",
				"methods": {},
				"version": 1
			},
			"evm": {
				"assembly": "    /* \"contracts/function_types/view.sol\":62:488  contract View_example{... */\n  mstore(0x40, 0x80)\n    /* \"contracts/function_types/view.sol\":249:250  1 */\n  0x01\n    /* \"contracts/function_types/view.sol\":234:250  uint8 public a=1 */\n  0x00\n  dup1\n  0x0100\n  exp\n  dup2\n  sload\n  dup2\n  0xff\n  mul\n  not\n  and\n  swap1\n  dup4\n  0xff\n  and\n  mul\n  or\n  swap1\n  sstore\n  pop\n    /* \"contracts/function_types/view.sol\":272:273  2 */\n  0x02\n    /* \"contracts/function_types/view.sol\":257:273  uint8 public b=2 */\n  0x00\n  exp(0x0100, 0x01)\n  dup2\n  sload\n  dup2\n  0xff\n  mul\n  not\n  and\n  swap1\n  dup4\n  0xff\n  and\n  mul\n  or\n  swap1\n  sstore\n  pop\n    /* \"contracts/function_types/view.sol\":301:302  b */\n  0x00\n  0x01\n  swap1\n  sload\n  swap1\n  0x0100\n  exp\n  swap1\n  div\n  0xff\n  and\n    /* \"contracts/function_types/view.sol\":299:300  a */\n  0x00\n  dup1\n  sload\n  swap1\n  0x0100\n  exp\n  swap1\n  div\n  0xff\n  and\n    /* \"contracts/function_types/view.sol\":299:302  a+b */\n  tag_1\n  swap2\n  swap1\n  tag_2\n  jump\t// in\ntag_1:\n    /* \"contracts/function_types/view.sol\":280:302  uint8 public total=a+b */\n  0x00\n  exp(0x0100, 0x02)\n  dup2\n  sload\n  dup2\n  0xff\n  mul\n  not\n  and\n  swap1\n  dup4\n  0xff\n  and\n  mul\n  or\n  swap1\n  sstore\n  pop\n    /* \"contracts/function_types/view.sol\":62:488  contract View_example{... */\n  callvalue\n  dup1\n  iszero\n  tag_3\n  jumpi\n  0x00\n  dup1\n  revert\ntag_3:\n  pop\n  jump(tag_4)\n    /* \"#utility.yul\":7:93   */\ntag_5:\n    /* \"#utility.yul\":42:49   */\n  0x00\n    /* \"#utility.yul\":82:86   */\n  0xff\n    /* \"#utility.yul\":75:80   */\n  dup3\n    /* \"#utility.yul\":71:87   */\n  and\n    /* \"#utility.yul\":60:87   */\n  swap1\n  pop\n    /* \"#utility.yul\":7:93   */\n  swap2\n  swap1\n  pop\n  jump\t// out\n    /* \"#utility.yul\":99:279   */\ntag_6:\n    /* \"#utility.yul\":147:224   */\n  0x4e487b7100000000000000000000000000000000000000000000000000000000\n    /* \"#utility.yul\":144:145   */\n  0x00\n    /* \"#utility.yul\":137:225   */\n  mstore\n    /* \"#utility.yul\":244:248   */\n  0x11\n    /* \"#utility.yul\":241:242   */\n  0x04\n    /* \"#utility.yul\":234:249   */\n  mstore\n    /* \"#utility.yul\":268:272   */\n  0x24\n    /* \"#utility.yul\":265:266   */\n  0x00\n    /* \"#utility.yul\":258:273   */\n  revert\n    /* \"#utility.yul\":285:473   */\ntag_2:\n    /* \"#utility.yul\":323:326   */\n  0x00\n    /* \"#utility.yul\":342:360   */\n  tag_11\n    /* \"#utility.yul\":358:359   */\n  dup3\n    /* \"#utility.yul\":342:360   */\n  tag_5\n  jump\t// in\ntag_11:\n    /* \"#utility.yul\":337:360   */\n  swap2\n  pop\n    /* \"#utility.yul\":374:392   */\n  tag_12\n    /* \"#utility.yul\":390:391   */\n  dup4\n    /* \"#utility.yul\":374:392   */\n  tag_5\n  jump\t// in\ntag_12:\n    /* \"#utility.yul\":369:392   */\n  swap3\n  pop\n    /* \"#utility.yul\":415:416   */\n  dup3\n    /* \"#utility.yul\":412:413   */\n  dup3\n    /* \"#utility.yul\":408:417   */\n  add\n    /* \"#utility.yul\":401:417   */\n  swap1\n  pop\n    /* \"#utility.yul\":438:442   */\n  0xff\n    /* \"#utility.yul\":433:436   */\n  dup2\n    /* \"#utility.yul\":430:443   */\n  gt\n    /* \"#utility.yul\":427:466   */\n  iszero\n  tag_13\n  jumpi\n    /* \"#utility.yul\":446:464   */\n  tag_14\n  tag_6\n  jump\t// in\ntag_14:\n    /* \"#utility.yul\":427:466   */\ntag_13:\n    /* \"#utility.yul\":285:473   */\n  swap3\n  swap2\n  pop\n  pop\n  jump\t// out\n    /* \"contracts/function_types/view.sol\":62:488  contract View_example{... */\ntag_4:\n  dataSize(sub_0)\n  dup1\n  dataOffset(sub_0)\n  0x00\n  codecopy\n  0x00\n  return\nstop\n\nsub_0: assembly {\n        /* \"contracts/function_types/view.sol\":62:488  contract View_example{... */\n      mstore(0x40, 0x80)\n      callvalue\n      dup1\n      iszero\n      tag_1\n      jumpi\n      0x00\n      dup1\n      revert\n    tag_1:\n      pop\n      jumpi(tag_2, lt(calldatasize, 0x04))\n      shr(0xe0, calldataload(0x00))\n      dup1\n      0x0dbe671f\n      eq\n      tag_3\n      jumpi\n      dup1\n      0x2ddbd13a\n      eq\n      tag_4\n      jumpi\n      dup1\n      0x4df7e3d0\n      eq\n      tag_5\n      jumpi\n      dup1\n      0x853255cc\n      eq\n      tag_6\n      jumpi\n    tag_2:\n      0x00\n      dup1\n      revert\n        /* \"contracts/function_types/view.sol\":234:250  uint8 public a=1 */\n    tag_3:\n      tag_7\n      tag_8\n      jump\t// in\n    tag_7:\n      mload(0x40)\n      tag_9\n      swap2\n      swap1\n      tag_10\n      jump\t// in\n    tag_9:\n      mload(0x40)\n      dup1\n      swap2\n      sub\n      swap1\n      return\n        /* \"contracts/function_types/view.sol\":280:302  uint8 public total=a+b */\n    tag_4:\n      tag_11\n      tag_12\n      jump\t// in\n    tag_11:\n      mload(0x40)\n      tag_13\n      swap2\n      swap1\n      tag_10\n      jump\t// in\n    tag_13:\n      mload(0x40)\n      dup1\n      swap2\n      sub\n      swap1\n      return\n        /* \"contracts/function_types/view.sol\":257:273  uint8 public b=2 */\n    tag_5:\n      tag_14\n      tag_15\n      jump\t// in\n    tag_14:\n      mload(0x40)\n      tag_16\n      swap2\n      swap1\n      tag_10\n      jump\t// in\n    tag_16:\n      mload(0x40)\n      dup1\n      swap2\n      sub\n      swap1\n      return\n        /* \"contracts/function_types/view.sol\":309:483  function sum() public view returns(uint16){... */\n    tag_6:\n      tag_17\n      tag_18\n      jump\t// in\n    tag_17:\n      mload(0x40)\n      tag_19\n      swap2\n      swap1\n      tag_20\n      jump\t// in\n    tag_19:\n      mload(0x40)\n      dup1\n      swap2\n      sub\n      swap1\n      return\n        /* \"contracts/function_types/view.sol\":234:250  uint8 public a=1 */\n    tag_8:\n      0x00\n      dup1\n      sload\n      swap1\n      0x0100\n      exp\n      swap1\n      div\n      0xff\n      and\n      dup2\n      jump\t// out\n        /* \"contracts/function_types/view.sol\":280:302  uint8 public total=a+b */\n    tag_12:\n      0x00\n      0x02\n      swap1\n      sload\n      swap1\n      0x0100\n      exp\n      swap1\n      div\n      0xff\n      and\n      dup2\n      jump\t// out\n        /* \"contracts/function_types/view.sol\":257:273  uint8 public b=2 */\n    tag_15:\n      0x00\n      0x01\n      swap1\n      sload\n      swap1\n      0x0100\n      exp\n      swap1\n      div\n      0xff\n      and\n      dup2\n      jump\t// out\n        /* \"contracts/function_types/view.sol\":309:483  function sum() public view returns(uint16){... */\n    tag_18:\n        /* \"contracts/function_types/view.sol\":344:350  uint16 */\n      0x00\n        /* \"contracts/function_types/view.sol\":376:377  b */\n      dup1\n      0x01\n      swap1\n      sload\n      swap1\n      0x0100\n      exp\n      swap1\n      div\n      0xff\n      and\n        /* \"contracts/function_types/view.sol\":374:375  a */\n      0x00\n      dup1\n      sload\n      swap1\n      0x0100\n      exp\n      swap1\n      div\n      0xff\n      and\n        /* \"contracts/function_types/view.sol\":374:377  a+b */\n      tag_22\n      swap2\n      swap1\n      tag_23\n      jump\t// in\n    tag_22:\n        /* \"contracts/function_types/view.sol\":366:378  return (a+b) */\n      0xff\n      and\n      swap1\n      pop\n        /* \"contracts/function_types/view.sol\":309:483  function sum() public view returns(uint16){... */\n      swap1\n      jump\t// out\n        /* \"#utility.yul\":7:93   */\n    tag_24:\n        /* \"#utility.yul\":42:49   */\n      0x00\n        /* \"#utility.yul\":82:86   */\n      0xff\n        /* \"#utility.yul\":75:80   */\n      dup3\n        /* \"#utility.yul\":71:87   */\n      and\n        /* \"#utility.yul\":60:87   */\n      swap1\n      pop\n        /* \"#utility.yul\":7:93   */\n      swap2\n      swap1\n      pop\n      jump\t// out\n        /* \"#utility.yul\":99:211   */\n    tag_25:\n        /* \"#utility.yul\":182:204   */\n      tag_32\n        /* \"#utility.yul\":198:203   */\n      dup2\n        /* \"#utility.yul\":182:204   */\n      tag_24\n      jump\t// in\n    tag_32:\n        /* \"#utility.yul\":177:180   */\n      dup3\n        /* \"#utility.yul\":170:205   */\n      mstore\n        /* \"#utility.yul\":99:211   */\n      pop\n      pop\n      jump\t// out\n        /* \"#utility.yul\":217:431   */\n    tag_10:\n        /* \"#utility.yul\":306:310   */\n      0x00\n        /* \"#utility.yul\":344:346   */\n      0x20\n        /* \"#utility.yul\":333:342   */\n      dup3\n        /* \"#utility.yul\":329:347   */\n      add\n        /* \"#utility.yul\":321:347   */\n      swap1\n      pop\n        /* \"#utility.yul\":357:424   */\n      tag_34\n        /* \"#utility.yul\":421:422   */\n      0x00\n        /* \"#utility.yul\":410:419   */\n      dup4\n        /* \"#utility.yul\":406:423   */\n      add\n        /* \"#utility.yul\":397:403   */\n      dup5\n        /* \"#utility.yul\":357:424   */\n      tag_25\n      jump\t// in\n    tag_34:\n        /* \"#utility.yul\":217:431   */\n      swap3\n      swap2\n      pop\n      pop\n      jump\t// out\n        /* \"#utility.yul\":437:526   */\n    tag_26:\n        /* \"#utility.yul\":473:480   */\n      0x00\n        /* \"#utility.yul\":513:519   */\n      0xffff\n        /* \"#utility.yul\":506:511   */\n      dup3\n        /* \"#utility.yul\":502:520   */\n      and\n        /* \"#utility.yul\":491:520   */\n      swap1\n      pop\n        /* \"#utility.yul\":437:526   */\n      swap2\n      swap1\n      pop\n      jump\t// out\n        /* \"#utility.yul\":532:647   */\n    tag_27:\n        /* \"#utility.yul\":617:640   */\n      tag_37\n        /* \"#utility.yul\":634:639   */\n      dup2\n        /* \"#utility.yul\":617:640   */\n      tag_26\n      jump\t// in\n    tag_37:\n        /* \"#utility.yul\":612:615   */\n      dup3\n        /* \"#utility.yul\":605:641   */\n      mstore\n        /* \"#utility.yul\":532:647   */\n      pop\n      pop\n      jump\t// out\n        /* \"#utility.yul\":653:871   */\n    tag_20:\n        /* \"#utility.yul\":744:748   */\n      0x00\n        /* \"#utility.yul\":782:784   */\n      0x20\n        /* \"#utility.yul\":771:780   */\n      dup3\n        /* \"#utility.yul\":767:785   */\n      add\n        /* \"#utility.yul\":759:785   */\n      swap1\n      pop\n        /* \"#utility.yul\":795:864   */\n      tag_39\n        /* \"#utility.yul\":861:862   */\n      0x00\n        /* \"#utility.yul\":850:859   */\n      dup4\n        /* \"#utility.yul\":846:863   */\n      add\n        /* \"#utility.yul\":837:843   */\n      dup5\n        /* \"#utility.yul\":795:864   */\n      tag_27\n      jump\t// in\n    tag_39:\n        /* \"#utility.yul\":653:871   */\n      swap3\n      swap2\n      pop\n      pop\n      jump\t// out\n        /* \"#utility.yul\":877:1057   */\n    tag_28:\n        /* \"#utility.yul\":925:1002   */\n      0x4e487b7100000000000000000000000000000000000000000000000000000000\n        /* \"#utility.yul\":922:923   */\n      0x00\n        /* \"#utility.yul\":915:1003   */\n      mstore\n        /* \"#utility.yul\":1022:1026   */\n      0x11\n        /* \"#utility.yul\":1019:1020   */\n      0x04\n        /* \"#utility.yul\":1012:1027   */\n      mstore\n        /* \"#utility.yul\":1046:1050   */\n      0x24\n        /* \"#utility.yul\":1043:1044   */\n      0x00\n        /* \"#utility.yul\":1036:1051   */\n      revert\n        /* \"#utility.yul\":1063:1251   */\n    tag_23:\n        /* \"#utility.yul\":1101:1104   */\n      0x00\n        /* \"#utility.yul\":1120:1138   */\n      tag_42\n        /* \"#utility.yul\":1136:1137   */\n      dup3\n        /* \"#utility.yul\":1120:1138   */\n      tag_24\n      jump\t// in\n    tag_42:\n        /* \"#utility.yul\":1115:1138   */\n      swap2\n      pop\n        /* \"#utility.yul\":1152:1170   */\n      tag_43\n        /* \"#utility.yul\":1168:1169   */\n      dup4\n        /* \"#utility.yul\":1152:1170   */\n      tag_24\n      jump\t// in\n    tag_43:\n        /* \"#utility.yul\":1147:1170   */\n      swap3\n      pop\n        /* \"#utility.yul\":1193:1194   */\n      dup3\n        /* \"#utility.yul\":1190:1191   */\n      dup3\n        /* \"#utility.yul\":1186:1195   */\n      add\n        /* \"#utility.yul\":1179:1195   */\n      swap1\n      pop\n        /* \"#utility.yul\":1216:1220   */\n      0xff\n        /* \"#utility.yul\":1211:1214   */\n      dup2\n        /* \"#utility.yul\":1208:1221   */\n      gt\n        /* \"#utility.yul\":1205:1244   */\n      iszero\n      tag_44\n      jumpi\n        /* \"#utility.yul\":1224:1242   */\n      tag_45\n      tag_28\n      jump\t// in\n    tag_45:\n        /* \"#utility.yul\":1205:1244   */\n    tag_44:\n        /* \"#utility.yul\":1063:1251   */\n      swap3\n      swap2\n      pop\n      pop\n      jump\t// out\n\n    auxdata: 0xa2646970667358221220ac8be39c93e819e624a13d6eddc9840cc493e8161f02a6ac44dba16bca5117ee64736f6c634300081a0033\n}\n",
				"bytecode": {
					"linkReferences": {},
					"object": "608060405260015f806101000a81548160ff021916908360ff16021790555060025f60016101000a81548160ff021916908360ff1602179055505f60019054906101000a900460ff165f8054906101000a900460ff1661005f91906100c2565b5f60026101000a81548160ff021916908360ff160217905550348015610083575f80fd5b506100f6565b5f60ff82169050919050565b7f4e487b71000000000000000000000000000000000000000000000000000000005f52601160045260245ffd5b5f6100cc82610089565b91506100d783610089565b9250828201905060ff8111156100f0576100ef610095565b5b92915050565b610229806101035f395ff3fe608060405234801561000f575f80fd5b506004361061004a575f3560e01c80630dbe671f1461004e5780632ddbd13a1461006c5780634df7e3d01461008a578063853255cc146100a8575b5f80fd5b6100566100c6565b6040516100639190610144565b60405180910390f35b6100746100d6565b6040516100819190610144565b60405180910390f35b6100926100e8565b60405161009f9190610144565b60405180910390f35b6100b06100fa565b6040516100bd9190610179565b60405180910390f35b5f8054906101000a900460ff1681565b5f60029054906101000a900460ff1681565b5f60019054906101000a900460ff1681565b5f8060019054906101000a900460ff165f8054906101000a900460ff1661012191906101bf565b60ff16905090565b5f60ff82169050919050565b61013e81610129565b82525050565b5f6020820190506101575f830184610135565b92915050565b5f61ffff82169050919050565b6101738161015d565b82525050565b5f60208201905061018c5f83018461016a565b92915050565b7f4e487b71000000000000000000000000000000000000000000000000000000005f52601160045260245ffd5b5f6101c982610129565b91506101d483610129565b9250828201905060ff8111156101ed576101ec610192565b5b9291505056fea2646970667358221220ac8be39c93e819e624a13d6eddc9840cc493e8161f02a6ac44dba16bca5117ee64736f6c634300081a0033",
					"opcodes": "PUSH1 0x80 PUSH1 0x40 MSTORE PUSH1 0x1 PUSH0 DUP1 PUSH2 0x100 EXP DUP2 SLOAD DUP2 PUSH1 0xFF MUL NOT AND SWAP1 DUP4 PUSH1 0xFF AND MUL OR SWAP1 SSTORE POP PUSH1 0x2 PUSH0 PUSH1 0x1 PUSH2 0x100 EXP DUP2 SLOAD DUP2 PUSH1 0xFF MUL NOT AND SWAP1 DUP4 PUSH1 0xFF AND MUL OR SWAP1 SSTORE POP PUSH0 PUSH1 0x1 SWAP1 SLOAD SWAP1 PUSH2 0x100 EXP SWAP1 DIV PUSH1 0xFF AND PUSH0 DUP1 SLOAD SWAP1 PUSH2 0x100 EXP SWAP1 DIV PUSH1 0xFF AND PUSH2 0x5F SWAP2 SWAP1 PUSH2 0xC2 JUMP JUMPDEST PUSH0 PUSH1 0x2 PUSH2 0x100 EXP DUP2 SLOAD DUP2 PUSH1 0xFF MUL NOT AND SWAP1 DUP4 PUSH1 0xFF AND MUL OR SWAP1 SSTORE POP CALLVALUE DUP1 ISZERO PUSH2 0x83 JUMPI PUSH0 DUP1 REVERT JUMPDEST POP PUSH2 0xF6 JUMP JUMPDEST PUSH0 PUSH1 0xFF DUP3 AND SWAP1 POP SWAP2 SWAP1 POP JUMP JUMPDEST PUSH32 0x4E487B7100000000000000000000000000000000000000000000000000000000 PUSH0 MSTORE PUSH1 0x11 PUSH1 0x4 MSTORE PUSH1 0x24 PUSH0 REVERT JUMPDEST PUSH0 PUSH2 0xCC DUP3 PUSH2 0x89 JUMP JUMPDEST SWAP2 POP PUSH2 0xD7 DUP4 PUSH2 0x89 JUMP JUMPDEST SWAP3 POP DUP3 DUP3 ADD SWAP1 POP PUSH1 0xFF DUP2 GT ISZERO PUSH2 0xF0 JUMPI PUSH2 0xEF PUSH2 0x95 JUMP JUMPDEST JUMPDEST SWAP3 SWAP2 POP POP JUMP JUMPDEST PUSH2 0x229 DUP1 PUSH2 0x103 PUSH0 CODECOPY PUSH0 RETURN INVALID PUSH1 0x80 PUSH1 0x40 MSTORE CALLVALUE DUP1 ISZERO PUSH2 0xF JUMPI PUSH0 DUP1 REVERT JUMPDEST POP PUSH1 0x4 CALLDATASIZE LT PUSH2 0x4A JUMPI PUSH0 CALLDATALOAD PUSH1 0xE0 SHR DUP1 PUSH4 0xDBE671F EQ PUSH2 0x4E JUMPI DUP1 PUSH4 0x2DDBD13A EQ PUSH2 0x6C JUMPI DUP1 PUSH4 0x4DF7E3D0 EQ PUSH2 0x8A JUMPI DUP1 PUSH4 0x853255CC EQ PUSH2 0xA8 JUMPI JUMPDEST PUSH0 DUP1 REVERT JUMPDEST PUSH2 0x56 PUSH2 0xC6 JUMP JUMPDEST PUSH1 0x40 MLOAD PUSH2 0x63 SWAP2 SWAP1 PUSH2 0x144 JUMP JUMPDEST PUSH1 0x40 MLOAD DUP1 SWAP2 SUB SWAP1 RETURN JUMPDEST PUSH2 0x74 PUSH2 0xD6 JUMP JUMPDEST PUSH1 0x40 MLOAD PUSH2 0x81 SWAP2 SWAP1 PUSH2 0x144 JUMP JUMPDEST PUSH1 0x40 MLOAD DUP1 SWAP2 SUB SWAP1 RETURN JUMPDEST PUSH2 0x92 PUSH2 0xE8 JUMP JUMPDEST PUSH1 0x40 MLOAD PUSH2 0x9F SWAP2 SWAP1 PUSH2 0x144 JUMP JUMPDEST PUSH1 0x40 MLOAD DUP1 SWAP2 SUB SWAP1 RETURN JUMPDEST PUSH2 0xB0 PUSH2 0xFA JUMP JUMPDEST PUSH1 0x40 MLOAD PUSH2 0xBD SWAP2 SWAP1 PUSH2 0x179 JUMP JUMPDEST PUSH1 0x40 MLOAD DUP1 SWAP2 SUB SWAP1 RETURN JUMPDEST PUSH0 DUP1 SLOAD SWAP1 PUSH2 0x100 EXP SWAP1 DIV PUSH1 0xFF AND DUP2 JUMP JUMPDEST PUSH0 PUSH1 0x2 SWAP1 SLOAD SWAP1 PUSH2 0x100 EXP SWAP1 DIV PUSH1 0xFF AND DUP2 JUMP JUMPDEST PUSH0 PUSH1 0x1 SWAP1 SLOAD SWAP1 PUSH2 0x100 EXP SWAP1 DIV PUSH1 0xFF AND DUP2 JUMP JUMPDEST PUSH0 DUP1 PUSH1 0x1 SWAP1 SLOAD SWAP1 PUSH2 0x100 EXP SWAP1 DIV PUSH1 0xFF AND PUSH0 DUP1 SLOAD SWAP1 PUSH2 0x100 EXP SWAP1 DIV PUSH1 0xFF AND PUSH2 0x121 SWAP2 SWAP1 PUSH2 0x1BF JUMP JUMPDEST PUSH1 0xFF AND SWAP1 POP SWAP1 JUMP JUMPDEST PUSH0 PUSH1 0xFF DUP3 AND SWAP1 POP SWAP2 SWAP1 POP JUMP JUMPDEST PUSH2 0x13E DUP2 PUSH2 0x129 JUMP JUMPDEST DUP3 MSTORE POP POP JUMP JUMPDEST PUSH0 PUSH1 0x20 DUP3 ADD SWAP1 POP PUSH2 0x157 PUSH0 DUP4 ADD DUP5 PUSH2 0x135 JUMP JUMPDEST SWAP3 SWAP2 POP POP JUMP JUMPDEST PUSH0 PUSH2 0xFFFF DUP3 AND SWAP1 POP SWAP2 SWAP1 POP JUMP JUMPDEST PUSH2 0x173 DUP2 PUSH2 0x15D JUMP JUMPDEST DUP3 MSTORE POP POP JUMP JUMPDEST PUSH0 PUSH1 0x20 DUP3 ADD SWAP1 POP PUSH2 0x18C PUSH0 DUP4 ADD DUP5 PUSH2 0x16A JUMP JUMPDEST SWAP3 SWAP2 POP POP JUMP JUMPDEST PUSH32 0x4E487B7100000000000000000000000000000000000000000000000000000000 PUSH0 MSTORE PUSH1 0x11 PUSH1 0x4 MSTORE PUSH1 0x24 PUSH0 REVERT JUMPDEST PUSH0 PUSH2 0x1C9 DUP3 PUSH2 0x129 JUMP JUMPDEST SWAP2 POP PUSH2 0x1D4 DUP4 PUSH2 0x129 JUMP JUMPDEST SWAP3 POP DUP3 DUP3 ADD SWAP1 POP PUSH1 0xFF DUP2 GT ISZERO PUSH2 0x1ED JUMPI PUSH2 0x1EC PUSH2 0x192 JUMP JUMPDEST JUMPDEST SWAP3 SWAP2 POP POP JUMP INVALID LOG2 PUSH5 0x6970667358 0x22 SLT KECCAK256 0xAC DUP12 0xE3 SWAP13 SWAP4 0xE8 NOT 0xE6 0x24 LOG1 RETURNDATASIZE PUSH15 0xDDC9840CC493E8161F02A6AC44DBA1 PUSH12 0xCA5117EE64736F6C63430008 BYTE STOP CALLER "
				},
				"gasEstimates": {
					"creation": {
						"codeDepositCost": "110600",
						"executionCost": "infinite",
						"totalCost": "infinite"
					},
					"external": {
						"a()": "2441",
						"b()": "2538",
						"sum()": "infinite",
						"total()": "2516"
					}
				},
				"methodIdentifiers": {
					"a()": "0dbe671f",
					"b()": "4df7e3d0",
					"sum()": "853255cc",
					"total()": "2ddbd13a"
				}
			},
			"storageLayout": {
				"storage": [
					{
						"astId": 4,
						"contract": "contracts/function_types/view.sol:View_example",
						"label": "a",
						"offset": 0,
						"slot": "0",
						"type": "t_uint8"
					},
					{
						"astId": 7,
						"contract": "contracts/function_types/view.sol:View_example",
						"label": "b",
						"offset": 1,
						"slot": "0",
						"type": "t_uint8"
					},
					{
						"astId": 12,
						"contract": "contracts/function_types/view.sol:View_example",
						"label": "total",
						"offset": 2,
						"slot": "0",
						"type": "t_uint8"
					}
				],
				"types": {
					"t_uint8": {
						"encoding": "inplace",
						"label": "uint8",
						"numberOfBytes": "1"
					}
				}
			},
			"userdoc": {
				"kind": "user",
				"methods": {},
				"version": 1
			}
		}
	}
}