{
	"contracts/arrays/fixed_size.sol": {
		"FixedSize": {
			"abi": [
				{
					"inputs": [
						{
							"internalType": "uint256",
							"name": "index",
							"type": "uint256"
						}
					],
					"name": "getNumbers_index",
					"outputs": [
						{
							"internalType": "uint256",
							"name": "",
							"type": "uint256"
						}
					],
					"stateMutability": "view",
					"type": "function"
				},
				{
					"inputs": [
						{
							"internalType": "uint256",
							"name": "",
							"type": "uint256"
						}
					],
					"name": "numbers",
					"outputs": [
						{
							"internalType": "uint256",
							"name": "",
							"type": "uint256"
						}
					],
					"stateMutability": "view",
					"type": "function"
				},
				{
					"inputs": [
						{
							"internalType": "uint256",
							"name": "_num1",
							"type": "uint256"
						},
						{
							"internalType": "uint256",
							"name": "_num2",
							"type": "uint256"
						},
						{
							"internalType": "uint256",
							"name": "_num3",
							"type": "uint256"
						}
					],
					"name": "setNumbers",
					"outputs": [],
					"stateMutability": "nonpayable",
					"type": "function"
				}
			],
			"devdoc": {
				"kind": "dev",
				"methods": {},
				"version": 1
			},
			"evm": {
				"assembly": "    /* \"contracts/arrays/fixed_size.sol\":59:443  contract FixedSize{... */\n  mstore(0x40, 0x80)\n  callvalue\n  dup1\n  iszero\n  tag_1\n  jumpi\n  0x00\n  dup1\n  revert\ntag_1:\n  pop\n  dataSize(sub_0)\n  dup1\n  dataOffset(sub_0)\n  0x00\n  codecopy\n  0x00\n  return\nstop\n\nsub_0: assembly {\n        /* \"contracts/arrays/fixed_size.sol\":59:443  contract FixedSize{... */\n      mstore(0x40, 0x80)\n      callvalue\n      dup1\n      iszero\n      tag_1\n      jumpi\n      0x00\n      dup1\n      revert\n    tag_1:\n      pop\n      jumpi(tag_2, lt(calldatasize, 0x04))\n      shr(0xe0, calldataload(0x00))\n      dup1\n      0x4236e748\n      eq\n      tag_3\n      jumpi\n      dup1\n      0xb3b3d608\n      eq\n      tag_4\n      jumpi\n      dup1\n      0xd39fa233\n      eq\n      tag_5\n      jumpi\n    tag_2:\n      0x00\n      dup1\n      revert\n        /* \"contracts/arrays/fixed_size.sol\":274:434  function getNumbers_index(uint index) public view returns (uint){... */\n    tag_3:\n      tag_6\n      0x04\n      dup1\n      calldatasize\n      sub\n      dup2\n      add\n      swap1\n      tag_7\n      swap2\n      swap1\n      tag_8\n      jump\t// in\n    tag_7:\n      tag_9\n      jump\t// in\n    tag_6:\n      mload(0x40)\n      tag_10\n      swap2\n      swap1\n      tag_11\n      jump\t// in\n    tag_10:\n      mload(0x40)\n      dup1\n      swap2\n      sub\n      swap1\n      return\n        /* \"contracts/arrays/fixed_size.sol\":119:268  function setNumbers(uint _num1,uint _num2,uint _num3) public{... */\n    tag_4:\n      tag_12\n      0x04\n      dup1\n      calldatasize\n      sub\n      dup2\n      add\n      swap1\n      tag_13\n      swap2\n      swap1\n      tag_14\n      jump\t// in\n    tag_13:\n      tag_15\n      jump\t// in\n    tag_12:\n      stop\n        /* \"contracts/arrays/fixed_size.sol\":84:106  uint[3] public numbers */\n    tag_5:\n      tag_16\n      0x04\n      dup1\n      calldatasize\n      sub\n      dup2\n      add\n      swap1\n      tag_17\n      swap2\n      swap1\n      tag_8\n      jump\t// in\n    tag_17:\n      tag_18\n      jump\t// in\n    tag_16:\n      mload(0x40)\n      tag_19\n      swap2\n      swap1\n      tag_11\n      jump\t// in\n    tag_19:\n      mload(0x40)\n      dup1\n      swap2\n      sub\n      swap1\n      return\n        /* \"contracts/arrays/fixed_size.sol\":274:434  function getNumbers_index(uint index) public view returns (uint){... */\n    tag_9:\n        /* \"contracts/arrays/fixed_size.sol\":333:337  uint */\n      0x00\n        /* \"contracts/arrays/fixed_size.sol\":364:378  numbers.length */\n      0x03\n        /* \"contracts/arrays/fixed_size.sol\":357:362  index */\n      dup3\n        /* \"contracts/arrays/fixed_size.sol\":357:378  index<=numbers.length */\n      gt\n      iszero\n        /* \"contracts/arrays/fixed_size.sol\":349:394  require(index<=numbers.length,\"out of bound\") */\n      tag_21\n      jumpi\n      mload(0x40)\n      0x08c379a000000000000000000000000000000000000000000000000000000000\n      dup2\n      mstore\n      0x04\n      add\n      tag_22\n      swap1\n      tag_23\n      jump\t// in\n    tag_22:\n      mload(0x40)\n      dup1\n      swap2\n      sub\n      swap1\n      revert\n    tag_21:\n        /* \"contracts/arrays/fixed_size.sol\":412:419  numbers */\n      0x00\n        /* \"contracts/arrays/fixed_size.sol\":420:425  index */\n      dup3\n        /* \"contracts/arrays/fixed_size.sol\":412:426  numbers[index] */\n      0x03\n      dup2\n      lt\n      tag_24\n      jumpi\n      tag_25\n      tag_26\n      jump\t// in\n    tag_25:\n    tag_24:\n      add\n      sload\n        /* \"contracts/arrays/fixed_size.sol\":405:426  return numbers[index] */\n      swap1\n      pop\n        /* \"contracts/arrays/fixed_size.sol\":274:434  function getNumbers_index(uint index) public view returns (uint){... */\n      swap2\n      swap1\n      pop\n      jump\t// out\n        /* \"contracts/arrays/fixed_size.sol\":119:268  function setNumbers(uint _num1,uint _num2,uint _num3) public{... */\n    tag_15:\n        /* \"contracts/arrays/fixed_size.sol\":201:206  _num1 */\n      dup3\n        /* \"contracts/arrays/fixed_size.sol\":190:197  numbers */\n      0x00\n        /* \"contracts/arrays/fixed_size.sol\":198:199  0 */\n      dup1\n        /* \"contracts/arrays/fixed_size.sol\":190:200  numbers[0] */\n      0x03\n      dup2\n      lt\n      tag_29\n      jumpi\n      tag_30\n      tag_26\n      jump\t// in\n    tag_30:\n    tag_29:\n      add\n        /* \"contracts/arrays/fixed_size.sol\":190:206  numbers[0]=_num1 */\n      dup2\n      swap1\n      sstore\n      pop\n        /* \"contracts/arrays/fixed_size.sol\":228:233  _num2 */\n      dup2\n        /* \"contracts/arrays/fixed_size.sol\":217:224  numbers */\n      0x00\n        /* \"contracts/arrays/fixed_size.sol\":225:226  1 */\n      0x01\n        /* \"contracts/arrays/fixed_size.sol\":217:227  numbers[1] */\n      0x03\n      dup2\n      lt\n      tag_32\n      jumpi\n      tag_33\n      tag_26\n      jump\t// in\n    tag_33:\n    tag_32:\n      add\n        /* \"contracts/arrays/fixed_size.sol\":217:233  numbers[1]=_num2 */\n      dup2\n      swap1\n      sstore\n      pop\n        /* \"contracts/arrays/fixed_size.sol\":255:260  _num3 */\n      dup1\n        /* \"contracts/arrays/fixed_size.sol\":244:251  numbers */\n      0x00\n        /* \"contracts/arrays/fixed_size.sol\":252:253  2 */\n      0x02\n        /* \"contracts/arrays/fixed_size.sol\":244:254  numbers[2] */\n      0x03\n      dup2\n      lt\n      tag_35\n      jumpi\n      tag_36\n      tag_26\n      jump\t// in\n    tag_36:\n    tag_35:\n      add\n        /* \"contracts/arrays/fixed_size.sol\":244:260  numbers[2]=_num3 */\n      dup2\n      swap1\n      sstore\n      pop\n        /* \"contracts/arrays/fixed_size.sol\":119:268  function setNumbers(uint _num1,uint _num2,uint _num3) public{... */\n      pop\n      pop\n      pop\n      jump\t// out\n        /* \"contracts/arrays/fixed_size.sol\":84:106  uint[3] public numbers */\n    tag_18:\n      0x00\n      dup2\n      0x03\n      dup2\n      lt\n      tag_38\n      jumpi\n      0x00\n      dup1\n      revert\n    tag_38:\n      add\n      0x00\n      swap2\n      pop\n      swap1\n      pop\n      sload\n      dup2\n      jump\t// out\n        /* \"#utility.yul\":88:205   */\n    tag_41:\n        /* \"#utility.yul\":197:198   */\n      0x00\n        /* \"#utility.yul\":194:195   */\n      dup1\n        /* \"#utility.yul\":187:199   */\n      revert\n        /* \"#utility.yul\":334:411   */\n    tag_43:\n        /* \"#utility.yul\":371:378   */\n      0x00\n        /* \"#utility.yul\":400:405   */\n      dup2\n        /* \"#utility.yul\":389:405   */\n      swap1\n      pop\n        /* \"#utility.yul\":334:411   */\n      swap2\n      swap1\n      pop\n      jump\t// out\n        /* \"#utility.yul\":417:539   */\n    tag_44:\n        /* \"#utility.yul\":490:514   */\n      tag_56\n        /* \"#utility.yul\":508:513   */\n      dup2\n        /* \"#utility.yul\":490:514   */\n      tag_43\n      jump\t// in\n    tag_56:\n        /* \"#utility.yul\":483:488   */\n      dup2\n        /* \"#utility.yul\":480:515   */\n      eq\n        /* \"#utility.yul\":470:533   */\n      tag_57\n      jumpi\n        /* \"#utility.yul\":529:530   */\n      0x00\n        /* \"#utility.yul\":526:527   */\n      dup1\n        /* \"#utility.yul\":519:531   */\n      revert\n        /* \"#utility.yul\":470:533   */\n    tag_57:\n        /* \"#utility.yul\":417:539   */\n      pop\n      jump\t// out\n        /* \"#utility.yul\":545:684   */\n    tag_45:\n        /* \"#utility.yul\":591:596   */\n      0x00\n        /* \"#utility.yul\":629:635   */\n      dup2\n        /* \"#utility.yul\":616:636   */\n      calldataload\n        /* \"#utility.yul\":607:636   */\n      swap1\n      pop\n        /* \"#utility.yul\":645:678   */\n      tag_59\n        /* \"#utility.yul\":672:677   */\n      dup2\n        /* \"#utility.yul\":645:678   */\n      tag_44\n      jump\t// in\n    tag_59:\n        /* \"#utility.yul\":545:684   */\n      swap3\n      swap2\n      pop\n      pop\n      jump\t// out\n        /* \"#utility.yul\":690:1019   */\n    tag_8:\n        /* \"#utility.yul\":749:755   */\n      0x00\n        /* \"#utility.yul\":798:800   */\n      0x20\n        /* \"#utility.yul\":786:795   */\n      dup3\n        /* \"#utility.yul\":777:784   */\n      dup5\n        /* \"#utility.yul\":773:796   */\n      sub\n        /* \"#utility.yul\":769:801   */\n      slt\n        /* \"#utility.yul\":766:885   */\n      iszero\n      tag_61\n      jumpi\n        /* \"#utility.yul\":804:883   */\n      tag_62\n      tag_41\n      jump\t// in\n    tag_62:\n        /* \"#utility.yul\":766:885   */\n    tag_61:\n        /* \"#utility.yul\":924:925   */\n      0x00\n        /* \"#utility.yul\":949:1002   */\n      tag_63\n        /* \"#utility.yul\":994:1001   */\n      dup5\n        /* \"#utility.yul\":985:991   */\n      dup3\n        /* \"#utility.yul\":974:983   */\n      dup6\n        /* \"#utility.yul\":970:992   */\n      add\n        /* \"#utility.yul\":949:1002   */\n      tag_45\n      jump\t// in\n    tag_63:\n        /* \"#utility.yul\":939:1002   */\n      swap2\n      pop\n        /* \"#utility.yul\":895:1012   */\n      pop\n        /* \"#utility.yul\":690:1019   */\n      swap3\n      swap2\n      pop\n      pop\n      jump\t// out\n        /* \"#utility.yul\":1025:1143   */\n    tag_46:\n        /* \"#utility.yul\":1112:1136   */\n      tag_65\n        /* \"#utility.yul\":1130:1135   */\n      dup2\n        /* \"#utility.yul\":1112:1136   */\n      tag_43\n      jump\t// in\n    tag_65:\n        /* \"#utility.yul\":1107:1110   */\n      dup3\n        /* \"#utility.yul\":1100:1137   */\n      mstore\n        /* \"#utility.yul\":1025:1143   */\n      pop\n      pop\n      jump\t// out\n        /* \"#utility.yul\":1149:1371   */\n    tag_11:\n        /* \"#utility.yul\":1242:1246   */\n      0x00\n        /* \"#utility.yul\":1280:1282   */\n      0x20\n        /* \"#utility.yul\":1269:1278   */\n      dup3\n        /* \"#utility.yul\":1265:1283   */\n      add\n        /* \"#utility.yul\":1257:1283   */\n      swap1\n      pop\n        /* \"#utility.yul\":1293:1364   */\n      tag_67\n        /* \"#utility.yul\":1361:1362   */\n      0x00\n        /* \"#utility.yul\":1350:1359   */\n      dup4\n        /* \"#utility.yul\":1346:1363   */\n      add\n        /* \"#utility.yul\":1337:1343   */\n      dup5\n        /* \"#utility.yul\":1293:1364   */\n      tag_46\n      jump\t// in\n    tag_67:\n        /* \"#utility.yul\":1149:1371   */\n      swap3\n      swap2\n      pop\n      pop\n      jump\t// out\n        /* \"#utility.yul\":1377:1996   */\n    tag_14:\n        /* \"#utility.yul\":1454:1460   */\n      0x00\n        /* \"#utility.yul\":1462:1468   */\n      dup1\n        /* \"#utility.yul\":1470:1476   */\n      0x00\n        /* \"#utility.yul\":1519:1521   */\n      0x60\n        /* \"#utility.yul\":1507:1516   */\n      dup5\n        /* \"#utility.yul\":1498:1505   */\n      dup7\n        /* \"#utility.yul\":1494:1517   */\n      sub\n        /* \"#utility.yul\":1490:1522   */\n      slt\n        /* \"#utility.yul\":1487:1606   */\n      iszero\n      tag_69\n      jumpi\n        /* \"#utility.yul\":1525:1604   */\n      tag_70\n      tag_41\n      jump\t// in\n    tag_70:\n        /* \"#utility.yul\":1487:1606   */\n    tag_69:\n        /* \"#utility.yul\":1645:1646   */\n      0x00\n        /* \"#utility.yul\":1670:1723   */\n      tag_71\n        /* \"#utility.yul\":1715:1722   */\n      dup7\n        /* \"#utility.yul\":1706:1712   */\n      dup3\n        /* \"#utility.yul\":1695:1704   */\n      dup8\n        /* \"#utility.yul\":1691:1713   */\n      add\n        /* \"#utility.yul\":1670:1723   */\n      tag_45\n      jump\t// in\n    tag_71:\n        /* \"#utility.yul\":1660:1723   */\n      swap4\n      pop\n        /* \"#utility.yul\":1616:1733   */\n      pop\n        /* \"#utility.yul\":1772:1774   */\n      0x20\n        /* \"#utility.yul\":1798:1851   */\n      tag_72\n        /* \"#utility.yul\":1843:1850   */\n      dup7\n        /* \"#utility.yul\":1834:1840   */\n      dup3\n        /* \"#utility.yul\":1823:1832   */\n      dup8\n        /* \"#utility.yul\":1819:1841   */\n      add\n        /* \"#utility.yul\":1798:1851   */\n      tag_45\n      jump\t// in\n    tag_72:\n        /* \"#utility.yul\":1788:1851   */\n      swap3\n      pop\n        /* \"#utility.yul\":1743:1861   */\n      pop\n        /* \"#utility.yul\":1900:1902   */\n      0x40\n        /* \"#utility.yul\":1926:1979   */\n      tag_73\n        /* \"#utility.yul\":1971:1978   */\n      dup7\n        /* \"#utility.yul\":1962:1968   */\n      dup3\n        /* \"#utility.yul\":1951:1960   */\n      dup8\n        /* \"#utility.yul\":1947:1969   */\n      add\n        /* \"#utility.yul\":1926:1979   */\n      tag_45\n      jump\t// in\n    tag_73:\n        /* \"#utility.yul\":1916:1979   */\n      swap2\n      pop\n        /* \"#utility.yul\":1871:1989   */\n      pop\n        /* \"#utility.yul\":1377:1996   */\n      swap3\n      pop\n      swap3\n      pop\n      swap3\n      jump\t// out\n        /* \"#utility.yul\":2002:2171   */\n    tag_47:\n        /* \"#utility.yul\":2086:2097   */\n      0x00\n        /* \"#utility.yul\":2120:2126   */\n      dup3\n        /* \"#utility.yul\":2115:2118   */\n      dup3\n        /* \"#utility.yul\":2108:2127   */\n      mstore\n        /* \"#utility.yul\":2160:2164   */\n      0x20\n        /* \"#utility.yul\":2155:2158   */\n      dup3\n        /* \"#utility.yul\":2151:2165   */\n      add\n        /* \"#utility.yul\":2136:2165   */\n      swap1\n      pop\n        /* \"#utility.yul\":2002:2171   */\n      swap3\n      swap2\n      pop\n      pop\n      jump\t// out\n        /* \"#utility.yul\":2177:2339   */\n    tag_48:\n        /* \"#utility.yul\":2317:2331   */\n      0x6f7574206f6620626f756e640000000000000000000000000000000000000000\n        /* \"#utility.yul\":2313:2314   */\n      0x00\n        /* \"#utility.yul\":2305:2311   */\n      dup3\n        /* \"#utility.yul\":2301:2315   */\n      add\n        /* \"#utility.yul\":2294:2332   */\n      mstore\n        /* \"#utility.yul\":2177:2339   */\n      pop\n      jump\t// out\n        /* \"#utility.yul\":2345:2711   */\n    tag_49:\n        /* \"#utility.yul\":2487:2490   */\n      0x00\n        /* \"#utility.yul\":2508:2575   */\n      tag_77\n        /* \"#utility.yul\":2572:2574   */\n      0x0c\n        /* \"#utility.yul\":2567:2570   */\n      dup4\n        /* \"#utility.yul\":2508:2575   */\n      tag_47\n      jump\t// in\n    tag_77:\n        /* \"#utility.yul\":2501:2575   */\n      swap2\n      pop\n        /* \"#utility.yul\":2584:2677   */\n      tag_78\n        /* \"#utility.yul\":2673:2676   */\n      dup3\n        /* \"#utility.yul\":2584:2677   */\n      tag_48\n      jump\t// in\n    tag_78:\n        /* \"#utility.yul\":2702:2704   */\n      0x20\n        /* \"#utility.yul\":2697:2700   */\n      dup3\n        /* \"#utility.yul\":2693:2705   */\n      add\n        /* \"#utility.yul\":2686:2705   */\n      swap1\n      pop\n        /* \"#utility.yul\":2345:2711   */\n      swap2\n      swap1\n      pop\n      jump\t// out\n        /* \"#utility.yul\":2717:3136   */\n    tag_23:\n        /* \"#utility.yul\":2883:2887   */\n      0x00\n        /* \"#utility.yul\":2921:2923   */\n      0x20\n        /* \"#utility.yul\":2910:2919   */\n      dup3\n        /* \"#utility.yul\":2906:2924   */\n      add\n        /* \"#utility.yul\":2898:2924   */\n      swap1\n      pop\n        /* \"#utility.yul\":2970:2979   */\n      dup2\n        /* \"#utility.yul\":2964:2968   */\n      dup2\n        /* \"#utility.yul\":2960:2980   */\n      sub\n        /* \"#utility.yul\":2956:2957   */\n      0x00\n        /* \"#utility.yul\":2945:2954   */\n      dup4\n        /* \"#utility.yul\":2941:2958   */\n      add\n        /* \"#utility.yul\":2934:2981   */\n      mstore\n        /* \"#utility.yul\":2998:3129   */\n      tag_80\n        /* \"#utility.yul\":3124:3128   */\n      dup2\n        /* \"#utility.yul\":2998:3129   */\n      tag_49\n      jump\t// in\n    tag_80:\n        /* \"#utility.yul\":2990:3129   */\n      swap1\n      pop\n        /* \"#utility.yul\":2717:3136   */\n      swap2\n      swap1\n      pop\n      jump\t// out\n        /* \"#utility.yul\":3142:3322   */\n    tag_26:\n        /* \"#utility.yul\":3190:3267   */\n      0x4e487b7100000000000000000000000000000000000000000000000000000000\n        /* \"#utility.yul\":3187:3188   */\n      0x00\n        /* \"#utility.yul\":3180:3268   */\n      mstore\n        /* \"#utility.yul\":3287:3291   */\n      0x32\n        /* \"#utility.yul\":3284:3285   */\n      0x04\n        /* \"#utility.yul\":3277:3292   */\n      mstore\n        /* \"#utility.yul\":3311:3315   */\n      0x24\n        /* \"#utility.yul\":3308:3309   */\n      0x00\n        /* \"#utility.yul\":3301:3316   */\n      revert\n\n    auxdata: 0xa264697066735822122023992997829d826bc2f88efc2538ba032a46f3d00b2dbcb2a6076392cc80acd264736f6c634300081a0033\n}\n",
				"bytecode": {
					"linkReferences": {},
					"object": "6080604052348015600e575f80fd5b5061033f8061001c5f395ff3fe608060405234801561000f575f80fd5b506004361061003f575f3560e01c80634236e74814610043578063b3b3d60814610073578063d39fa2331461008f575b5f80fd5b61005d600480360381019061005891906101c1565b6100bf565b60405161006a91906101fb565b60405180910390f35b61008d60048036038101906100889190610214565b610120565b005b6100a960048036038101906100a491906101c1565b610172565b6040516100b691906101fb565b60405180910390f35b5f6003821115610104576040517f08c379a00000000000000000000000000000000000000000000000000000000081526004016100fb906102be565b60405180910390fd5b5f8260038110610117576101166102dc565b5b01549050919050565b825f8060038110610134576101336102dc565b5b0181905550815f60016003811061014e5761014d6102dc565b5b0181905550805f600260038110610168576101676102dc565b5b0181905550505050565b5f8160038110610180575f80fd5b015f915090505481565b5f80fd5b5f819050919050565b6101a08161018e565b81146101aa575f80fd5b50565b5f813590506101bb81610197565b92915050565b5f602082840312156101d6576101d561018a565b5b5f6101e3848285016101ad565b91505092915050565b6101f58161018e565b82525050565b5f60208201905061020e5f8301846101ec565b92915050565b5f805f6060848603121561022b5761022a61018a565b5b5f610238868287016101ad565b9350506020610249868287016101ad565b925050604061025a868287016101ad565b9150509250925092565b5f82825260208201905092915050565b7f6f7574206f6620626f756e6400000000000000000000000000000000000000005f82015250565b5f6102a8600c83610264565b91506102b382610274565b602082019050919050565b5f6020820190508181035f8301526102d58161029c565b9050919050565b7f4e487b71000000000000000000000000000000000000000000000000000000005f52603260045260245ffdfea264697066735822122023992997829d826bc2f88efc2538ba032a46f3d00b2dbcb2a6076392cc80acd264736f6c634300081a0033",
					"opcodes": "PUSH1 0x80 PUSH1 0x40 MSTORE CALLVALUE DUP1 ISZERO PUSH1 0xE JUMPI PUSH0 DUP1 REVERT JUMPDEST POP PUSH2 0x33F DUP1 PUSH2 0x1C PUSH0 CODECOPY PUSH0 RETURN INVALID PUSH1 0x80 PUSH1 0x40 MSTORE CALLVALUE DUP1 ISZERO PUSH2 0xF JUMPI PUSH0 DUP1 REVERT JUMPDEST POP PUSH1 0x4 CALLDATASIZE LT PUSH2 0x3F JUMPI PUSH0 CALLDATALOAD PUSH1 0xE0 SHR DUP1 PUSH4 0x4236E748 EQ PUSH2 0x43 JUMPI DUP1 PUSH4 0xB3B3D608 EQ PUSH2 0x73 JUMPI DUP1 PUSH4 0xD39FA233 EQ PUSH2 0x8F JUMPI JUMPDEST PUSH0 DUP1 REVERT JUMPDEST PUSH2 0x5D PUSH1 0x4 DUP1 CALLDATASIZE SUB DUP2 ADD SWAP1 PUSH2 0x58 SWAP2 SWAP1 PUSH2 0x1C1 JUMP JUMPDEST PUSH2 0xBF JUMP JUMPDEST PUSH1 0x40 MLOAD PUSH2 0x6A SWAP2 SWAP1 PUSH2 0x1FB JUMP JUMPDEST PUSH1 0x40 MLOAD DUP1 SWAP2 SUB SWAP1 RETURN JUMPDEST PUSH2 0x8D PUSH1 0x4 DUP1 CALLDATASIZE SUB DUP2 ADD SWAP1 PUSH2 0x88 SWAP2 SWAP1 PUSH2 0x214 JUMP JUMPDEST PUSH2 0x120 JUMP JUMPDEST STOP JUMPDEST PUSH2 0xA9 PUSH1 0x4 DUP1 CALLDATASIZE SUB DUP2 ADD SWAP1 PUSH2 0xA4 SWAP2 SWAP1 PUSH2 0x1C1 JUMP JUMPDEST PUSH2 0x172 JUMP JUMPDEST PUSH1 0x40 MLOAD PUSH2 0xB6 SWAP2 SWAP1 PUSH2 0x1FB JUMP JUMPDEST PUSH1 0x40 MLOAD DUP1 SWAP2 SUB SWAP1 RETURN JUMPDEST PUSH0 PUSH1 0x3 DUP3 GT ISZERO PUSH2 0x104 JUMPI PUSH1 0x40 MLOAD PUSH32 0x8C379A000000000000000000000000000000000000000000000000000000000 DUP2 MSTORE PUSH1 0x4 ADD PUSH2 0xFB SWAP1 PUSH2 0x2BE JUMP JUMPDEST PUSH1 0x40 MLOAD DUP1 SWAP2 SUB SWAP1 REVERT JUMPDEST PUSH0 DUP3 PUSH1 0x3 DUP2 LT PUSH2 0x117 JUMPI PUSH2 0x116 PUSH2 0x2DC JUMP JUMPDEST JUMPDEST ADD SLOAD SWAP1 POP SWAP2 SWAP1 POP JUMP JUMPDEST DUP3 PUSH0 DUP1 PUSH1 0x3 DUP2 LT PUSH2 0x134 JUMPI PUSH2 0x133 PUSH2 0x2DC JUMP JUMPDEST JUMPDEST ADD DUP2 SWAP1 SSTORE POP DUP2 PUSH0 PUSH1 0x1 PUSH1 0x3 DUP2 LT PUSH2 0x14E JUMPI PUSH2 0x14D PUSH2 0x2DC JUMP JUMPDEST JUMPDEST ADD DUP2 SWAP1 SSTORE POP DUP1 PUSH0 PUSH1 0x2 PUSH1 0x3 DUP2 LT PUSH2 0x168 JUMPI PUSH2 0x167 PUSH2 0x2DC JUMP JUMPDEST JUMPDEST ADD DUP2 SWAP1 SSTORE POP POP POP POP JUMP JUMPDEST PUSH0 DUP2 PUSH1 0x3 DUP2 LT PUSH2 0x180 JUMPI PUSH0 DUP1 REVERT JUMPDEST ADD PUSH0 SWAP2 POP SWAP1 POP SLOAD DUP2 JUMP JUMPDEST PUSH0 DUP1 REVERT JUMPDEST PUSH0 DUP2 SWAP1 POP SWAP2 SWAP1 POP JUMP JUMPDEST PUSH2 0x1A0 DUP2 PUSH2 0x18E JUMP JUMPDEST DUP2 EQ PUSH2 0x1AA JUMPI PUSH0 DUP1 REVERT JUMPDEST POP JUMP JUMPDEST PUSH0 DUP2 CALLDATALOAD SWAP1 POP PUSH2 0x1BB DUP2 PUSH2 0x197 JUMP JUMPDEST SWAP3 SWAP2 POP POP JUMP JUMPDEST PUSH0 PUSH1 0x20 DUP3 DUP5 SUB SLT ISZERO PUSH2 0x1D6 JUMPI PUSH2 0x1D5 PUSH2 0x18A JUMP JUMPDEST JUMPDEST PUSH0 PUSH2 0x1E3 DUP5 DUP3 DUP6 ADD PUSH2 0x1AD JUMP JUMPDEST SWAP2 POP POP SWAP3 SWAP2 POP POP JUMP JUMPDEST PUSH2 0x1F5 DUP2 PUSH2 0x18E JUMP JUMPDEST DUP3 MSTORE POP POP JUMP JUMPDEST PUSH0 PUSH1 0x20 DUP3 ADD SWAP1 POP PUSH2 0x20E PUSH0 DUP4 ADD DUP5 PUSH2 0x1EC JUMP JUMPDEST SWAP3 SWAP2 POP POP JUMP JUMPDEST PUSH0 DUP1 PUSH0 PUSH1 0x60 DUP5 DUP7 SUB SLT ISZERO PUSH2 0x22B JUMPI PUSH2 0x22A PUSH2 0x18A JUMP JUMPDEST JUMPDEST PUSH0 PUSH2 0x238 DUP7 DUP3 DUP8 ADD PUSH2 0x1AD JUMP JUMPDEST SWAP4 POP POP PUSH1 0x20 PUSH2 0x249 DUP7 DUP3 DUP8 ADD PUSH2 0x1AD JUMP JUMPDEST SWAP3 POP POP PUSH1 0x40 PUSH2 0x25A DUP7 DUP3 DUP8 ADD PUSH2 0x1AD JUMP JUMPDEST SWAP2 POP POP SWAP3 POP SWAP3 POP SWAP3 JUMP JUMPDEST PUSH0 DUP3 DUP3 MSTORE PUSH1 0x20 DUP3 ADD SWAP1 POP SWAP3 SWAP2 POP POP JUMP JUMPDEST PUSH32 0x6F7574206F6620626F756E640000000000000000000000000000000000000000 PUSH0 DUP3 ADD MSTORE POP JUMP JUMPDEST PUSH0 PUSH2 0x2A8 PUSH1 0xC DUP4 PUSH2 0x264 JUMP JUMPDEST SWAP2 POP PUSH2 0x2B3 DUP3 PUSH2 0x274 JUMP JUMPDEST PUSH1 0x20 DUP3 ADD SWAP1 POP SWAP2 SWAP1 POP JUMP JUMPDEST PUSH0 PUSH1 0x20 DUP3 ADD SWAP1 POP DUP2 DUP2 SUB PUSH0 DUP4 ADD MSTORE PUSH2 0x2D5 DUP2 PUSH2 0x29C JUMP JUMPDEST SWAP1 POP SWAP2 SWAP1 POP JUMP JUMPDEST PUSH32 0x4E487B7100000000000000000000000000000000000000000000000000000000 PUSH0 MSTORE PUSH1 0x32 PUSH1 0x4 MSTORE PUSH1 0x24 PUSH0 REVERT INVALID LOG2 PUSH5 0x6970667358 0x22 SLT KECCAK256 0x23 SWAP10 0x29 SWAP8 DUP3 SWAP14 DUP3 PUSH12 0xC2F88EFC2538BA032A46F3D0 SIGNEXTEND 0x2D 0xBC 0xB2 0xA6 SMOD PUSH4 0x92CC80AC 0xD2 PUSH5 0x736F6C6343 STOP ADDMOD BYTE STOP CALLER "
				},
				"gasEstimates": {
					"creation": {
						"codeDepositCost": "166200",
						"executionCost": "206",
						"totalCost": "166406"
					},
					"external": {
						"getNumbers_index(uint256)": "infinite",
						"numbers(uint256)": "infinite",
						"setNumbers(uint256,uint256,uint256)": "infinite"
					}
				},
				"methodIdentifiers": {
					"getNumbers_index(uint256)": "4236e748",
					"numbers(uint256)": "d39fa233",
					"setNumbers(uint256,uint256,uint256)": "b3b3d608"
				}
			},
			"storageLayout": {
				"storage": [
					{
						"astId": 5,
						"contract": "contracts/arrays/fixed_size.sol:FixedSize",
						"label": "numbers",
						"offset": 0,
						"slot": "0",
						"type": "t_array(t_uint256)3_storage"
					}
				],
				"types": {
					"t_array(t_uint256)3_storage": {
						"base": "t_uint256",
						"encoding": "inplace",
						"label": "uint256[3]",
						"numberOfBytes": "96"
					},
					"t_uint256": {
						"encoding": "inplace",
						"label": "uint256",
						"numberOfBytes": "32"
					}
				}
			},
			"userdoc": {
				"kind": "user",
				"methods": {},
				"version": 1
			}
		}
	}
}