{
	"contracts/structs/sample.sol": {
		"Person": {
			"abi": [
				{
					"anonymous": false,
					"inputs": [
						{
							"indexed": false,
							"internalType": "string",
							"name": "name",
							"type": "string"
						},
						{
							"indexed": false,
							"internalType": "uint256",
							"name": "age",
							"type": "uint256"
						},
						{
							"indexed": true,
							"internalType": "address",
							"name": "addr",
							"type": "address"
						}
					],
					"name": "PersonUpdated",
					"type": "event"
				},
				{
					"inputs": [],
					"name": "getPerson",
					"outputs": [
						{
							"internalType": "string",
							"name": "",
							"type": "string"
						},
						{
							"internalType": "uint256",
							"name": "",
							"type": "uint256"
						},
						{
							"internalType": "address",
							"name": "",
							"type": "address"
						}
					],
					"stateMutability": "view",
					"type": "function"
				},
				{
					"inputs": [],
					"name": "person_sample",
					"outputs": [
						{
							"internalType": "string",
							"name": "name",
							"type": "string"
						},
						{
							"internalType": "uint256",
							"name": "age",
							"type": "uint256"
						},
						{
							"internalType": "address",
							"name": "addr",
							"type": "address"
						}
					],
					"stateMutability": "view",
					"type": "function"
				},
				{
					"inputs": [
						{
							"internalType": "string",
							"name": "_name",
							"type": "string"
						},
						{
							"internalType": "uint256",
							"name": "_age",
							"type": "uint256"
						},
						{
							"internalType": "address",
							"name": "_addr",
							"type": "address"
						}
					],
					"name": "setPerson",
					"outputs": [],
					"stateMutability": "nonpayable",
					"type": "function"
				}
			],
			"devdoc": {
				"kind": "dev",
				"methods": {},
				"version": 1
			},
			"evm": {
				"assembly": "    /* \"contracts/structs/sample.sol\":60:776  contract Person {... */\n  mstore(0x40, 0x80)\n  callvalue\n  dup1\n  iszero\n  tag_1\n  jumpi\n  0x00\n  dup1\n  revert\ntag_1:\n  pop\n  dataSize(sub_0)\n  dup1\n  dataOffset(sub_0)\n  0x00\n  codecopy\n  0x00\n  return\nstop\n\nsub_0: assembly {\n        /* \"contracts/structs/sample.sol\":60:776  contract Person {... */\n      mstore(0x40, 0x80)\n      callvalue\n      dup1\n      iszero\n      tag_1\n      jumpi\n      0x00\n      dup1\n      revert\n    tag_1:\n      pop\n      jumpi(tag_2, lt(calldatasize, 0x04))\n      shr(0xe0, calldataload(0x00))\n      dup1\n      0x291c7f7e\n      eq\n      tag_3\n      jumpi\n      dup1\n      0x8ec4dc95\n      eq\n      tag_4\n      jumpi\n      dup1\n      0xcd4161ec\n      eq\n      tag_5\n      jumpi\n    tag_2:\n      0x00\n      dup1\n      revert\n        /* \"contracts/structs/sample.sol\":182:214  Person_Data public person_sample */\n    tag_3:\n      tag_6\n      tag_7\n      jump\t// in\n    tag_6:\n      mload(0x40)\n      tag_8\n      swap4\n      swap3\n      swap2\n      swap1\n      tag_9\n      jump\t// in\n    tag_8:\n      mload(0x40)\n      dup1\n      swap2\n      sub\n      swap1\n      return\n        /* \"contracts/structs/sample.sol\":616:773  function getPerson() public view returns (string memory, uint, address) {... */\n    tag_4:\n      tag_10\n      tag_11\n      jump\t// in\n    tag_10:\n      mload(0x40)\n      tag_12\n      swap4\n      swap3\n      swap2\n      swap1\n      tag_9\n      jump\t// in\n    tag_12:\n      mload(0x40)\n      dup1\n      swap2\n      sub\n      swap1\n      return\n        /* \"contracts/structs/sample.sol\":296:608  function setPerson(string memory _name, uint _age, address _addr) public {... */\n    tag_5:\n      tag_13\n      0x04\n      dup1\n      calldatasize\n      sub\n      dup2\n      add\n      swap1\n      tag_14\n      swap2\n      swap1\n      tag_15\n      jump\t// in\n    tag_14:\n      tag_16\n      jump\t// in\n    tag_13:\n      stop\n        /* \"contracts/structs/sample.sol\":182:214  Person_Data public person_sample */\n    tag_7:\n      0x00\n      dup1\n      0x00\n      add\n      dup1\n      sload\n      tag_17\n      swap1\n      tag_18\n      jump\t// in\n    tag_17:\n      dup1\n      0x1f\n      add\n      0x20\n      dup1\n      swap2\n      div\n      mul\n      0x20\n      add\n      mload(0x40)\n      swap1\n      dup2\n      add\n      0x40\n      mstore\n      dup1\n      swap3\n      swap2\n      swap1\n      dup2\n      dup2\n      mstore\n      0x20\n      add\n      dup3\n      dup1\n      sload\n      tag_19\n      swap1\n      tag_18\n      jump\t// in\n    tag_19:\n      dup1\n      iszero\n      tag_20\n      jumpi\n      dup1\n      0x1f\n      lt\n      tag_21\n      jumpi\n      0x0100\n      dup1\n      dup4\n      sload\n      div\n      mul\n      dup4\n      mstore\n      swap2\n      0x20\n      add\n      swap2\n      jump(tag_20)\n    tag_21:\n      dup3\n      add\n      swap2\n      swap1\n      0x00\n      mstore\n      keccak256(0x00, 0x20)\n      swap1\n    tag_22:\n      dup2\n      sload\n      dup2\n      mstore\n      swap1\n      0x01\n      add\n      swap1\n      0x20\n      add\n      dup1\n      dup4\n      gt\n      tag_22\n      jumpi\n      dup3\n      swap1\n      sub\n      0x1f\n      and\n      dup3\n      add\n      swap2\n    tag_20:\n      pop\n      pop\n      pop\n      pop\n      pop\n      swap1\n      dup1\n      0x01\n      add\n      sload\n      swap1\n      dup1\n      0x02\n      add\n      0x00\n      swap1\n      sload\n      swap1\n      0x0100\n      exp\n      swap1\n      div\n      0xffffffffffffffffffffffffffffffffffffffff\n      and\n      swap1\n      pop\n      dup4\n      jump\t// out\n        /* \"contracts/structs/sample.sol\":616:773  function getPerson() public view returns (string memory, uint, address) {... */\n    tag_11:\n        /* \"contracts/structs/sample.sol\":658:671  string memory */\n      0x60\n        /* \"contracts/structs/sample.sol\":673:677  uint */\n      0x00\n        /* \"contracts/structs/sample.sol\":679:686  address */\n      dup1\n        /* \"contracts/structs/sample.sol\":707:720  person_sample */\n      0x00\n        /* \"contracts/structs/sample.sol\":707:725  person_sample.name */\n      dup1\n      add\n        /* \"contracts/structs/sample.sol\":727:740  person_sample */\n      0x00\n        /* \"contracts/structs/sample.sol\":727:744  person_sample.age */\n      0x01\n      add\n      sload\n        /* \"contracts/structs/sample.sol\":746:759  person_sample */\n      0x00\n        /* \"contracts/structs/sample.sol\":746:764  person_sample.addr */\n      0x02\n      add\n      0x00\n      swap1\n      sload\n      swap1\n      0x0100\n      exp\n      swap1\n      div\n      0xffffffffffffffffffffffffffffffffffffffff\n      and\n        /* \"contracts/structs/sample.sol\":699:765  return (person_sample.name, person_sample.age, person_sample.addr) */\n      dup3\n      dup1\n      sload\n      tag_24\n      swap1\n      tag_18\n      jump\t// in\n    tag_24:\n      dup1\n      0x1f\n      add\n      0x20\n      dup1\n      swap2\n      div\n      mul\n      0x20\n      add\n      mload(0x40)\n      swap1\n      dup2\n      add\n      0x40\n      mstore\n      dup1\n      swap3\n      swap2\n      swap1\n      dup2\n      dup2\n      mstore\n      0x20\n      add\n      dup3\n      dup1\n      sload\n      tag_25\n      swap1\n      tag_18\n      jump\t// in\n    tag_25:\n      dup1\n      iszero\n      tag_26\n      jumpi\n      dup1\n      0x1f\n      lt\n      tag_27\n      jumpi\n      0x0100\n      dup1\n      dup4\n      sload\n      div\n      mul\n      dup4\n      mstore\n      swap2\n      0x20\n      add\n      swap2\n      jump(tag_26)\n    tag_27:\n      dup3\n      add\n      swap2\n      swap1\n      0x00\n      mstore\n      keccak256(0x00, 0x20)\n      swap1\n    tag_28:\n      dup2\n      sload\n      dup2\n      mstore\n      swap1\n      0x01\n      add\n      swap1\n      0x20\n      add\n      dup1\n      dup4\n      gt\n      tag_28\n      jumpi\n      dup3\n      swap1\n      sub\n      0x1f\n      and\n      dup3\n      add\n      swap2\n    tag_26:\n      pop\n      pop\n      pop\n      pop\n      pop\n      swap3\n      pop\n      swap3\n      pop\n      swap3\n      pop\n      swap3\n      pop\n        /* \"contracts/structs/sample.sol\":616:773  function getPerson() public view returns (string memory, uint, address) {... */\n      swap1\n      swap2\n      swap3\n      jump\t// out\n        /* \"contracts/structs/sample.sol\":296:608  function setPerson(string memory _name, uint _age, address _addr) public {... */\n    tag_16:\n        /* \"contracts/structs/sample.sol\":380:401  Person_Data storage p */\n      0x00\n        /* \"contracts/structs/sample.sol\":479:484  _name */\n      dup4\n        /* \"contracts/structs/sample.sol\":470:471  p */\n      dup2\n        /* \"contracts/structs/sample.sol\":470:476  p.name */\n      0x00\n      add\n        /* \"contracts/structs/sample.sol\":470:484  p.name = _name */\n      swap1\n      dup2\n      tag_30\n      swap2\n      swap1\n      tag_31\n      jump\t// in\n    tag_30:\n      pop\n        /* \"contracts/structs/sample.sol\":503:507  _age */\n      dup3\n        /* \"contracts/structs/sample.sol\":495:496  p */\n      dup2\n        /* \"contracts/structs/sample.sol\":495:500  p.age */\n      0x01\n      add\n        /* \"contracts/structs/sample.sol\":495:507  p.age = _age */\n      dup2\n      swap1\n      sstore\n      pop\n        /* \"contracts/structs/sample.sol\":527:532  _addr */\n      dup2\n        /* \"contracts/structs/sample.sol\":518:519  p */\n      dup2\n        /* \"contracts/structs/sample.sol\":518:524  p.addr */\n      0x02\n      add\n      0x00\n        /* \"contracts/structs/sample.sol\":518:532  p.addr = _addr */\n      0x0100\n      exp\n      dup2\n      sload\n      dup2\n      0xffffffffffffffffffffffffffffffffffffffff\n      mul\n      not\n      and\n      swap1\n      dup4\n      0xffffffffffffffffffffffffffffffffffffffff\n      and\n      mul\n      or\n      swap1\n      sstore\n      pop\n        /* \"contracts/structs/sample.sol\":577:582  _addr */\n      dup2\n        /* \"contracts/structs/sample.sol\":550:583  PersonUpdated(_name, _age, _addr) */\n      0xffffffffffffffffffffffffffffffffffffffff\n      and\n      0x979e29b97f38d8117533efa6c94b3ae34dc288e8f4d317f60d52eb37e0c716a1\n        /* \"contracts/structs/sample.sol\":564:569  _name */\n      dup6\n        /* \"contracts/structs/sample.sol\":571:575  _age */\n      dup6\n        /* \"contracts/structs/sample.sol\":550:583  PersonUpdated(_name, _age, _addr) */\n      mload(0x40)\n      tag_32\n      swap3\n      swap2\n      swap1\n      tag_33\n      jump\t// in\n    tag_32:\n      mload(0x40)\n      dup1\n      swap2\n      sub\n      swap1\n      log2\n        /* \"contracts/structs/sample.sol\":369:608  {... */\n      pop\n        /* \"contracts/structs/sample.sol\":296:608  function setPerson(string memory _name, uint _age, address _addr) public {... */\n      pop\n      pop\n      pop\n      jump\t// out\n        /* \"#utility.yul\":7:106   */\n    tag_34:\n        /* \"#utility.yul\":59:65   */\n      0x00\n        /* \"#utility.yul\":93:98   */\n      dup2\n        /* \"#utility.yul\":87:99   */\n      mload\n        /* \"#utility.yul\":77:99   */\n      swap1\n      pop\n        /* \"#utility.yul\":7:106   */\n      swap2\n      swap1\n      pop\n      jump\t// out\n        /* \"#utility.yul\":112:281   */\n    tag_35:\n        /* \"#utility.yul\":196:207   */\n      0x00\n        /* \"#utility.yul\":230:236   */\n      dup3\n        /* \"#utility.yul\":225:228   */\n      dup3\n        /* \"#utility.yul\":218:237   */\n      mstore\n        /* \"#utility.yul\":270:274   */\n      0x20\n        /* \"#utility.yul\":265:268   */\n      dup3\n        /* \"#utility.yul\":261:275   */\n      add\n        /* \"#utility.yul\":246:275   */\n      swap1\n      pop\n        /* \"#utility.yul\":112:281   */\n      swap3\n      swap2\n      pop\n      pop\n      jump\t// out\n        /* \"#utility.yul\":287:426   */\n    tag_36:\n        /* \"#utility.yul\":376:382   */\n      dup3\n        /* \"#utility.yul\":371:374   */\n      dup2\n        /* \"#utility.yul\":366:369   */\n      dup4\n        /* \"#utility.yul\":360:383   */\n      mcopy\n        /* \"#utility.yul\":417:418   */\n      0x00\n        /* \"#utility.yul\":408:414   */\n      dup4\n        /* \"#utility.yul\":403:406   */\n      dup4\n        /* \"#utility.yul\":399:415   */\n      add\n        /* \"#utility.yul\":392:419   */\n      mstore\n        /* \"#utility.yul\":287:426   */\n      pop\n      pop\n      pop\n      jump\t// out\n        /* \"#utility.yul\":432:534   */\n    tag_37:\n        /* \"#utility.yul\":473:479   */\n      0x00\n        /* \"#utility.yul\":524:526   */\n      0x1f\n        /* \"#utility.yul\":520:527   */\n      not\n        /* \"#utility.yul\":515:517   */\n      0x1f\n        /* \"#utility.yul\":508:513   */\n      dup4\n        /* \"#utility.yul\":504:518   */\n      add\n        /* \"#utility.yul\":500:528   */\n      and\n        /* \"#utility.yul\":490:528   */\n      swap1\n      pop\n        /* \"#utility.yul\":432:534   */\n      swap2\n      swap1\n      pop\n      jump\t// out\n        /* \"#utility.yul\":540:917   */\n    tag_38:\n        /* \"#utility.yul\":628:631   */\n      0x00\n        /* \"#utility.yul\":656:695   */\n      tag_82\n        /* \"#utility.yul\":689:694   */\n      dup3\n        /* \"#utility.yul\":656:695   */\n      tag_34\n      jump\t// in\n    tag_82:\n        /* \"#utility.yul\":711:782   */\n      tag_83\n        /* \"#utility.yul\":775:781   */\n      dup2\n        /* \"#utility.yul\":770:773   */\n      dup6\n        /* \"#utility.yul\":711:782   */\n      tag_35\n      jump\t// in\n    tag_83:\n        /* \"#utility.yul\":704:782   */\n      swap4\n      pop\n        /* \"#utility.yul\":791:856   */\n      tag_84\n        /* \"#utility.yul\":849:855   */\n      dup2\n        /* \"#utility.yul\":844:847   */\n      dup6\n        /* \"#utility.yul\":837:841   */\n      0x20\n        /* \"#utility.yul\":830:835   */\n      dup7\n        /* \"#utility.yul\":826:842   */\n      add\n        /* \"#utility.yul\":791:856   */\n      tag_36\n      jump\t// in\n    tag_84:\n        /* \"#utility.yul\":881:910   */\n      tag_85\n        /* \"#utility.yul\":903:909   */\n      dup2\n        /* \"#utility.yul\":881:910   */\n      tag_37\n      jump\t// in\n    tag_85:\n        /* \"#utility.yul\":876:879   */\n      dup5\n        /* \"#utility.yul\":872:911   */\n      add\n        /* \"#utility.yul\":865:911   */\n      swap2\n      pop\n        /* \"#utility.yul\":632:917   */\n      pop\n        /* \"#utility.yul\":540:917   */\n      swap3\n      swap2\n      pop\n      pop\n      jump\t// out\n        /* \"#utility.yul\":923:1000   */\n    tag_39:\n        /* \"#utility.yul\":960:967   */\n      0x00\n        /* \"#utility.yul\":989:994   */\n      dup2\n        /* \"#utility.yul\":978:994   */\n      swap1\n      pop\n        /* \"#utility.yul\":923:1000   */\n      swap2\n      swap1\n      pop\n      jump\t// out\n        /* \"#utility.yul\":1006:1124   */\n    tag_40:\n        /* \"#utility.yul\":1093:1117   */\n      tag_88\n        /* \"#utility.yul\":1111:1116   */\n      dup2\n        /* \"#utility.yul\":1093:1117   */\n      tag_39\n      jump\t// in\n    tag_88:\n        /* \"#utility.yul\":1088:1091   */\n      dup3\n        /* \"#utility.yul\":1081:1118   */\n      mstore\n        /* \"#utility.yul\":1006:1124   */\n      pop\n      pop\n      jump\t// out\n        /* \"#utility.yul\":1130:1256   */\n    tag_41:\n        /* \"#utility.yul\":1167:1174   */\n      0x00\n        /* \"#utility.yul\":1207:1249   */\n      0xffffffffffffffffffffffffffffffffffffffff\n        /* \"#utility.yul\":1200:1205   */\n      dup3\n        /* \"#utility.yul\":1196:1250   */\n      and\n        /* \"#utility.yul\":1185:1250   */\n      swap1\n      pop\n        /* \"#utility.yul\":1130:1256   */\n      swap2\n      swap1\n      pop\n      jump\t// out\n        /* \"#utility.yul\":1262:1358   */\n    tag_42:\n        /* \"#utility.yul\":1299:1306   */\n      0x00\n        /* \"#utility.yul\":1328:1352   */\n      tag_91\n        /* \"#utility.yul\":1346:1351   */\n      dup3\n        /* \"#utility.yul\":1328:1352   */\n      tag_41\n      jump\t// in\n    tag_91:\n        /* \"#utility.yul\":1317:1352   */\n      swap1\n      pop\n        /* \"#utility.yul\":1262:1358   */\n      swap2\n      swap1\n      pop\n      jump\t// out\n        /* \"#utility.yul\":1364:1482   */\n    tag_43:\n        /* \"#utility.yul\":1451:1475   */\n      tag_93\n        /* \"#utility.yul\":1469:1474   */\n      dup2\n        /* \"#utility.yul\":1451:1475   */\n      tag_42\n      jump\t// in\n    tag_93:\n        /* \"#utility.yul\":1446:1449   */\n      dup3\n        /* \"#utility.yul\":1439:1476   */\n      mstore\n        /* \"#utility.yul\":1364:1482   */\n      pop\n      pop\n      jump\t// out\n        /* \"#utility.yul\":1488:2021   */\n    tag_9:\n        /* \"#utility.yul\":1657:1661   */\n      0x00\n        /* \"#utility.yul\":1695:1697   */\n      0x60\n        /* \"#utility.yul\":1684:1693   */\n      dup3\n        /* \"#utility.yul\":1680:1698   */\n      add\n        /* \"#utility.yul\":1672:1698   */\n      swap1\n      pop\n        /* \"#utility.yul\":1744:1753   */\n      dup2\n        /* \"#utility.yul\":1738:1742   */\n      dup2\n        /* \"#utility.yul\":1734:1754   */\n      sub\n        /* \"#utility.yul\":1730:1731   */\n      0x00\n        /* \"#utility.yul\":1719:1728   */\n      dup4\n        /* \"#utility.yul\":1715:1732   */\n      add\n        /* \"#utility.yul\":1708:1755   */\n      mstore\n        /* \"#utility.yul\":1772:1850   */\n      tag_95\n        /* \"#utility.yul\":1845:1849   */\n      dup2\n        /* \"#utility.yul\":1836:1842   */\n      dup7\n        /* \"#utility.yul\":1772:1850   */\n      tag_38\n      jump\t// in\n    tag_95:\n        /* \"#utility.yul\":1764:1850   */\n      swap1\n      pop\n        /* \"#utility.yul\":1860:1932   */\n      tag_96\n        /* \"#utility.yul\":1928:1930   */\n      0x20\n        /* \"#utility.yul\":1917:1926   */\n      dup4\n        /* \"#utility.yul\":1913:1931   */\n      add\n        /* \"#utility.yul\":1904:1910   */\n      dup6\n        /* \"#utility.yul\":1860:1932   */\n      tag_40\n      jump\t// in\n    tag_96:\n        /* \"#utility.yul\":1942:2014   */\n      tag_97\n        /* \"#utility.yul\":2010:2012   */\n      0x40\n        /* \"#utility.yul\":1999:2008   */\n      dup4\n        /* \"#utility.yul\":1995:2013   */\n      add\n        /* \"#utility.yul\":1986:1992   */\n      dup5\n        /* \"#utility.yul\":1942:2014   */\n      tag_43\n      jump\t// in\n    tag_97:\n        /* \"#utility.yul\":1488:2021   */\n      swap5\n      swap4\n      pop\n      pop\n      pop\n      pop\n      jump\t// out\n        /* \"#utility.yul\":2027:2102   */\n    tag_44:\n        /* \"#utility.yul\":2060:2066   */\n      0x00\n        /* \"#utility.yul\":2093:2095   */\n      0x40\n        /* \"#utility.yul\":2087:2096   */\n      mload\n        /* \"#utility.yul\":2077:2096   */\n      swap1\n      pop\n        /* \"#utility.yul\":2027:2102   */\n      swap1\n      jump\t// out\n        /* \"#utility.yul\":2108:2225   */\n    tag_45:\n        /* \"#utility.yul\":2217:2218   */\n      0x00\n        /* \"#utility.yul\":2214:2215   */\n      dup1\n        /* \"#utility.yul\":2207:2219   */\n      revert\n        /* \"#utility.yul\":2231:2348   */\n    tag_46:\n        /* \"#utility.yul\":2340:2341   */\n      0x00\n        /* \"#utility.yul\":2337:2338   */\n      dup1\n        /* \"#utility.yul\":2330:2342   */\n      revert\n        /* \"#utility.yul\":2354:2471   */\n    tag_47:\n        /* \"#utility.yul\":2463:2464   */\n      0x00\n        /* \"#utility.yul\":2460:2461   */\n      dup1\n        /* \"#utility.yul\":2453:2465   */\n      revert\n        /* \"#utility.yul\":2477:2594   */\n    tag_48:\n        /* \"#utility.yul\":2586:2587   */\n      0x00\n        /* \"#utility.yul\":2583:2584   */\n      dup1\n        /* \"#utility.yul\":2576:2588   */\n      revert\n        /* \"#utility.yul\":2600:2780   */\n    tag_49:\n        /* \"#utility.yul\":2648:2725   */\n      0x4e487b7100000000000000000000000000000000000000000000000000000000\n        /* \"#utility.yul\":2645:2646   */\n      0x00\n        /* \"#utility.yul\":2638:2726   */\n      mstore\n        /* \"#utility.yul\":2745:2749   */\n      0x41\n        /* \"#utility.yul\":2742:2743   */\n      0x04\n        /* \"#utility.yul\":2735:2750   */\n      mstore\n        /* \"#utility.yul\":2769:2773   */\n      0x24\n        /* \"#utility.yul\":2766:2767   */\n      0x00\n        /* \"#utility.yul\":2759:2774   */\n      revert\n        /* \"#utility.yul\":2786:3067   */\n    tag_50:\n        /* \"#utility.yul\":2869:2896   */\n      tag_105\n        /* \"#utility.yul\":2891:2895   */\n      dup3\n        /* \"#utility.yul\":2869:2896   */\n      tag_37\n      jump\t// in\n    tag_105:\n        /* \"#utility.yul\":2861:2867   */\n      dup2\n        /* \"#utility.yul\":2857:2897   */\n      add\n        /* \"#utility.yul\":2999:3005   */\n      dup2\n        /* \"#utility.yul\":2987:2997   */\n      dup2\n        /* \"#utility.yul\":2984:3006   */\n      lt\n        /* \"#utility.yul\":2963:2981   */\n      0xffffffffffffffff\n        /* \"#utility.yul\":2951:2961   */\n      dup3\n        /* \"#utility.yul\":2948:2982   */\n      gt\n        /* \"#utility.yul\":2945:3007   */\n      or\n        /* \"#utility.yul\":2942:3030   */\n      iszero\n      tag_106\n      jumpi\n        /* \"#utility.yul\":3010:3028   */\n      tag_107\n      tag_49\n      jump\t// in\n    tag_107:\n        /* \"#utility.yul\":2942:3030   */\n    tag_106:\n        /* \"#utility.yul\":3050:3060   */\n      dup1\n        /* \"#utility.yul\":3046:3048   */\n      0x40\n        /* \"#utility.yul\":3039:3061   */\n      mstore\n        /* \"#utility.yul\":2829:3067   */\n      pop\n        /* \"#utility.yul\":2786:3067   */\n      pop\n      pop\n      jump\t// out\n        /* \"#utility.yul\":3073:3202   */\n    tag_51:\n        /* \"#utility.yul\":3107:3113   */\n      0x00\n        /* \"#utility.yul\":3134:3154   */\n      tag_109\n      tag_44\n      jump\t// in\n    tag_109:\n        /* \"#utility.yul\":3124:3154   */\n      swap1\n      pop\n        /* \"#utility.yul\":3163:3196   */\n      tag_110\n        /* \"#utility.yul\":3191:3195   */\n      dup3\n        /* \"#utility.yul\":3183:3189   */\n      dup3\n        /* \"#utility.yul\":3163:3196   */\n      tag_50\n      jump\t// in\n    tag_110:\n        /* \"#utility.yul\":3073:3202   */\n      swap2\n      swap1\n      pop\n      jump\t// out\n        /* \"#utility.yul\":3208:3516   */\n    tag_52:\n        /* \"#utility.yul\":3270:3274   */\n      0x00\n        /* \"#utility.yul\":3360:3378   */\n      0xffffffffffffffff\n        /* \"#utility.yul\":3352:3358   */\n      dup3\n        /* \"#utility.yul\":3349:3379   */\n      gt\n        /* \"#utility.yul\":3346:3402   */\n      iszero\n      tag_112\n      jumpi\n        /* \"#utility.yul\":3382:3400   */\n      tag_113\n      tag_49\n      jump\t// in\n    tag_113:\n        /* \"#utility.yul\":3346:3402   */\n    tag_112:\n        /* \"#utility.yul\":3420:3449   */\n      tag_114\n        /* \"#utility.yul\":3442:3448   */\n      dup3\n        /* \"#utility.yul\":3420:3449   */\n      tag_37\n      jump\t// in\n    tag_114:\n        /* \"#utility.yul\":3412:3449   */\n      swap1\n      pop\n        /* \"#utility.yul\":3504:3508   */\n      0x20\n        /* \"#utility.yul\":3498:3502   */\n      dup2\n        /* \"#utility.yul\":3494:3509   */\n      add\n        /* \"#utility.yul\":3486:3509   */\n      swap1\n      pop\n        /* \"#utility.yul\":3208:3516   */\n      swap2\n      swap1\n      pop\n      jump\t// out\n        /* \"#utility.yul\":3522:3670   */\n    tag_53:\n        /* \"#utility.yul\":3620:3626   */\n      dup3\n        /* \"#utility.yul\":3615:3618   */\n      dup2\n        /* \"#utility.yul\":3610:3613   */\n      dup4\n        /* \"#utility.yul\":3597:3627   */\n      calldatacopy\n        /* \"#utility.yul\":3661:3662   */\n      0x00\n        /* \"#utility.yul\":3652:3658   */\n      dup4\n        /* \"#utility.yul\":3647:3650   */\n      dup4\n        /* \"#utility.yul\":3643:3659   */\n      add\n        /* \"#utility.yul\":3636:3663   */\n      mstore\n        /* \"#utility.yul\":3522:3670   */\n      pop\n      pop\n      pop\n      jump\t// out\n        /* \"#utility.yul\":3676:4101   */\n    tag_54:\n        /* \"#utility.yul\":3754:3759   */\n      0x00\n        /* \"#utility.yul\":3779:3845   */\n      tag_117\n        /* \"#utility.yul\":3795:3844   */\n      tag_118\n        /* \"#utility.yul\":3837:3843   */\n      dup5\n        /* \"#utility.yul\":3795:3844   */\n      tag_52\n      jump\t// in\n    tag_118:\n        /* \"#utility.yul\":3779:3845   */\n      tag_51\n      jump\t// in\n    tag_117:\n        /* \"#utility.yul\":3770:3845   */\n      swap1\n      pop\n        /* \"#utility.yul\":3868:3874   */\n      dup3\n        /* \"#utility.yul\":3861:3866   */\n      dup2\n        /* \"#utility.yul\":3854:3875   */\n      mstore\n        /* \"#utility.yul\":3906:3910   */\n      0x20\n        /* \"#utility.yul\":3899:3904   */\n      dup2\n        /* \"#utility.yul\":3895:3911   */\n      add\n        /* \"#utility.yul\":3944:3947   */\n      dup5\n        /* \"#utility.yul\":3935:3941   */\n      dup5\n        /* \"#utility.yul\":3930:3933   */\n      dup5\n        /* \"#utility.yul\":3926:3942   */\n      add\n        /* \"#utility.yul\":3923:3948   */\n      gt\n        /* \"#utility.yul\":3920:4032   */\n      iszero\n      tag_119\n      jumpi\n        /* \"#utility.yul\":3951:4030   */\n      tag_120\n      tag_48\n      jump\t// in\n    tag_120:\n        /* \"#utility.yul\":3920:4032   */\n    tag_119:\n        /* \"#utility.yul\":4041:4095   */\n      tag_121\n        /* \"#utility.yul\":4088:4094   */\n      dup5\n        /* \"#utility.yul\":4083:4086   */\n      dup3\n        /* \"#utility.yul\":4078:4081   */\n      dup6\n        /* \"#utility.yul\":4041:4095   */\n      tag_53\n      jump\t// in\n    tag_121:\n        /* \"#utility.yul\":3760:4101   */\n      pop\n        /* \"#utility.yul\":3676:4101   */\n      swap4\n      swap3\n      pop\n      pop\n      pop\n      jump\t// out\n        /* \"#utility.yul\":4121:4461   */\n    tag_55:\n        /* \"#utility.yul\":4177:4182   */\n      0x00\n        /* \"#utility.yul\":4226:4229   */\n      dup3\n        /* \"#utility.yul\":4219:4223   */\n      0x1f\n        /* \"#utility.yul\":4211:4217   */\n      dup4\n        /* \"#utility.yul\":4207:4224   */\n      add\n        /* \"#utility.yul\":4203:4230   */\n      slt\n        /* \"#utility.yul\":4193:4315   */\n      tag_123\n      jumpi\n        /* \"#utility.yul\":4234:4313   */\n      tag_124\n      tag_47\n      jump\t// in\n    tag_124:\n        /* \"#utility.yul\":4193:4315   */\n    tag_123:\n        /* \"#utility.yul\":4351:4357   */\n      dup2\n        /* \"#utility.yul\":4338:4358   */\n      calldataload\n        /* \"#utility.yul\":4376:4455   */\n      tag_125\n        /* \"#utility.yul\":4451:4454   */\n      dup5\n        /* \"#utility.yul\":4443:4449   */\n      dup3\n        /* \"#utility.yul\":4436:4440   */\n      0x20\n        /* \"#utility.yul\":4428:4434   */\n      dup7\n        /* \"#utility.yul\":4424:4441   */\n      add\n        /* \"#utility.yul\":4376:4455   */\n      tag_54\n      jump\t// in\n    tag_125:\n        /* \"#utility.yul\":4367:4455   */\n      swap2\n      pop\n        /* \"#utility.yul\":4183:4461   */\n      pop\n        /* \"#utility.yul\":4121:4461   */\n      swap3\n      swap2\n      pop\n      pop\n      jump\t// out\n        /* \"#utility.yul\":4467:4589   */\n    tag_56:\n        /* \"#utility.yul\":4540:4564   */\n      tag_127\n        /* \"#utility.yul\":4558:4563   */\n      dup2\n        /* \"#utility.yul\":4540:4564   */\n      tag_39\n      jump\t// in\n    tag_127:\n        /* \"#utility.yul\":4533:4538   */\n      dup2\n        /* \"#utility.yul\":4530:4565   */\n      eq\n        /* \"#utility.yul\":4520:4583   */\n      tag_128\n      jumpi\n        /* \"#utility.yul\":4579:4580   */\n      0x00\n        /* \"#utility.yul\":4576:4577   */\n      dup1\n        /* \"#utility.yul\":4569:4581   */\n      revert\n        /* \"#utility.yul\":4520:4583   */\n    tag_128:\n        /* \"#utility.yul\":4467:4589   */\n      pop\n      jump\t// out\n        /* \"#utility.yul\":4595:4734   */\n    tag_57:\n        /* \"#utility.yul\":4641:4646   */\n      0x00\n        /* \"#utility.yul\":4679:4685   */\n      dup2\n        /* \"#utility.yul\":4666:4686   */\n      calldataload\n        /* \"#utility.yul\":4657:4686   */\n      swap1\n      pop\n        /* \"#utility.yul\":4695:4728   */\n      tag_130\n        /* \"#utility.yul\":4722:4727   */\n      dup2\n        /* \"#utility.yul\":4695:4728   */\n      tag_56\n      jump\t// in\n    tag_130:\n        /* \"#utility.yul\":4595:4734   */\n      swap3\n      swap2\n      pop\n      pop\n      jump\t// out\n        /* \"#utility.yul\":4740:4862   */\n    tag_58:\n        /* \"#utility.yul\":4813:4837   */\n      tag_132\n        /* \"#utility.yul\":4831:4836   */\n      dup2\n        /* \"#utility.yul\":4813:4837   */\n      tag_42\n      jump\t// in\n    tag_132:\n        /* \"#utility.yul\":4806:4811   */\n      dup2\n        /* \"#utility.yul\":4803:4838   */\n      eq\n        /* \"#utility.yul\":4793:4856   */\n      tag_133\n      jumpi\n        /* \"#utility.yul\":4852:4853   */\n      0x00\n        /* \"#utility.yul\":4849:4850   */\n      dup1\n        /* \"#utility.yul\":4842:4854   */\n      revert\n        /* \"#utility.yul\":4793:4856   */\n    tag_133:\n        /* \"#utility.yul\":4740:4862   */\n      pop\n      jump\t// out\n        /* \"#utility.yul\":4868:5007   */\n    tag_59:\n        /* \"#utility.yul\":4914:4919   */\n      0x00\n        /* \"#utility.yul\":4952:4958   */\n      dup2\n        /* \"#utility.yul\":4939:4959   */\n      calldataload\n        /* \"#utility.yul\":4930:4959   */\n      swap1\n      pop\n        /* \"#utility.yul\":4968:5001   */\n      tag_135\n        /* \"#utility.yul\":4995:5000   */\n      dup2\n        /* \"#utility.yul\":4968:5001   */\n      tag_58\n      jump\t// in\n    tag_135:\n        /* \"#utility.yul\":4868:5007   */\n      swap3\n      swap2\n      pop\n      pop\n      jump\t// out\n        /* \"#utility.yul\":5013:5812   */\n    tag_15:\n        /* \"#utility.yul\":5100:5106   */\n      0x00\n        /* \"#utility.yul\":5108:5114   */\n      dup1\n        /* \"#utility.yul\":5116:5122   */\n      0x00\n        /* \"#utility.yul\":5165:5167   */\n      0x60\n        /* \"#utility.yul\":5153:5162   */\n      dup5\n        /* \"#utility.yul\":5144:5151   */\n      dup7\n        /* \"#utility.yul\":5140:5163   */\n      sub\n        /* \"#utility.yul\":5136:5168   */\n      slt\n        /* \"#utility.yul\":5133:5252   */\n      iszero\n      tag_137\n      jumpi\n        /* \"#utility.yul\":5171:5250   */\n      tag_138\n      tag_45\n      jump\t// in\n    tag_138:\n        /* \"#utility.yul\":5133:5252   */\n    tag_137:\n        /* \"#utility.yul\":5319:5320   */\n      0x00\n        /* \"#utility.yul\":5308:5317   */\n      dup5\n        /* \"#utility.yul\":5304:5321   */\n      add\n        /* \"#utility.yul\":5291:5322   */\n      calldataload\n        /* \"#utility.yul\":5349:5367   */\n      0xffffffffffffffff\n        /* \"#utility.yul\":5341:5347   */\n      dup2\n        /* \"#utility.yul\":5338:5368   */\n      gt\n        /* \"#utility.yul\":5335:5452   */\n      iszero\n      tag_139\n      jumpi\n        /* \"#utility.yul\":5371:5450   */\n      tag_140\n      tag_46\n      jump\t// in\n    tag_140:\n        /* \"#utility.yul\":5335:5452   */\n    tag_139:\n        /* \"#utility.yul\":5476:5539   */\n      tag_141\n        /* \"#utility.yul\":5531:5538   */\n      dup7\n        /* \"#utility.yul\":5522:5528   */\n      dup3\n        /* \"#utility.yul\":5511:5520   */\n      dup8\n        /* \"#utility.yul\":5507:5529   */\n      add\n        /* \"#utility.yul\":5476:5539   */\n      tag_55\n      jump\t// in\n    tag_141:\n        /* \"#utility.yul\":5466:5539   */\n      swap4\n      pop\n        /* \"#utility.yul\":5262:5549   */\n      pop\n        /* \"#utility.yul\":5588:5590   */\n      0x20\n        /* \"#utility.yul\":5614:5667   */\n      tag_142\n        /* \"#utility.yul\":5659:5666   */\n      dup7\n        /* \"#utility.yul\":5650:5656   */\n      dup3\n        /* \"#utility.yul\":5639:5648   */\n      dup8\n        /* \"#utility.yul\":5635:5657   */\n      add\n        /* \"#utility.yul\":5614:5667   */\n      tag_57\n      jump\t// in\n    tag_142:\n        /* \"#utility.yul\":5604:5667   */\n      swap3\n      pop\n        /* \"#utility.yul\":5559:5677   */\n      pop\n        /* \"#utility.yul\":5716:5718   */\n      0x40\n        /* \"#utility.yul\":5742:5795   */\n      tag_143\n        /* \"#utility.yul\":5787:5794   */\n      dup7\n        /* \"#utility.yul\":5778:5784   */\n      dup3\n        /* \"#utility.yul\":5767:5776   */\n      dup8\n        /* \"#utility.yul\":5763:5785   */\n      add\n        /* \"#utility.yul\":5742:5795   */\n      tag_59\n      jump\t// in\n    tag_143:\n        /* \"#utility.yul\":5732:5795   */\n      swap2\n      pop\n        /* \"#utility.yul\":5687:5805   */\n      pop\n        /* \"#utility.yul\":5013:5812   */\n      swap3\n      pop\n      swap3\n      pop\n      swap3\n      jump\t// out\n        /* \"#utility.yul\":5818:5998   */\n    tag_60:\n        /* \"#utility.yul\":5866:5943   */\n      0x4e487b7100000000000000000000000000000000000000000000000000000000\n        /* \"#utility.yul\":5863:5864   */\n      0x00\n        /* \"#utility.yul\":5856:5944   */\n      mstore\n        /* \"#utility.yul\":5963:5967   */\n      0x22\n        /* \"#utility.yul\":5960:5961   */\n      0x04\n        /* \"#utility.yul\":5953:5968   */\n      mstore\n        /* \"#utility.yul\":5987:5991   */\n      0x24\n        /* \"#utility.yul\":5984:5985   */\n      0x00\n        /* \"#utility.yul\":5977:5992   */\n      revert\n        /* \"#utility.yul\":6004:6324   */\n    tag_18:\n        /* \"#utility.yul\":6048:6054   */\n      0x00\n        /* \"#utility.yul\":6085:6086   */\n      0x02\n        /* \"#utility.yul\":6079:6083   */\n      dup3\n        /* \"#utility.yul\":6075:6087   */\n      div\n        /* \"#utility.yul\":6065:6087   */\n      swap1\n      pop\n        /* \"#utility.yul\":6132:6133   */\n      0x01\n        /* \"#utility.yul\":6126:6130   */\n      dup3\n        /* \"#utility.yul\":6122:6134   */\n      and\n        /* \"#utility.yul\":6153:6171   */\n      dup1\n        /* \"#utility.yul\":6143:6224   */\n      tag_146\n      jumpi\n        /* \"#utility.yul\":6209:6213   */\n      0x7f\n        /* \"#utility.yul\":6201:6207   */\n      dup3\n        /* \"#utility.yul\":6197:6214   */\n      and\n        /* \"#utility.yul\":6187:6214   */\n      swap2\n      pop\n        /* \"#utility.yul\":6143:6224   */\n    tag_146:\n        /* \"#utility.yul\":6271:6273   */\n      0x20\n        /* \"#utility.yul\":6263:6269   */\n      dup3\n        /* \"#utility.yul\":6260:6274   */\n      lt\n        /* \"#utility.yul\":6240:6258   */\n      dup2\n        /* \"#utility.yul\":6237:6275   */\n      sub\n        /* \"#utility.yul\":6234:6318   */\n      tag_147\n      jumpi\n        /* \"#utility.yul\":6290:6308   */\n      tag_148\n      tag_60\n      jump\t// in\n    tag_148:\n        /* \"#utility.yul\":6234:6318   */\n    tag_147:\n        /* \"#utility.yul\":6055:6324   */\n      pop\n        /* \"#utility.yul\":6004:6324   */\n      swap2\n      swap1\n      pop\n      jump\t// out\n        /* \"#utility.yul\":6330:6471   */\n    tag_61:\n        /* \"#utility.yul\":6379:6383   */\n      0x00\n        /* \"#utility.yul\":6402:6405   */\n      dup2\n        /* \"#utility.yul\":6394:6405   */\n      swap1\n      pop\n        /* \"#utility.yul\":6425:6428   */\n      dup2\n        /* \"#utility.yul\":6422:6423   */\n      0x00\n        /* \"#utility.yul\":6415:6429   */\n      mstore\n        /* \"#utility.yul\":6459:6463   */\n      0x20\n        /* \"#utility.yul\":6456:6457   */\n      0x00\n        /* \"#utility.yul\":6446:6464   */\n      keccak256\n        /* \"#utility.yul\":6438:6464   */\n      swap1\n      pop\n        /* \"#utility.yul\":6330:6471   */\n      swap2\n      swap1\n      pop\n      jump\t// out\n        /* \"#utility.yul\":6477:6570   */\n    tag_62:\n        /* \"#utility.yul\":6514:6520   */\n      0x00\n        /* \"#utility.yul\":6561:6563   */\n      0x20\n        /* \"#utility.yul\":6556:6558   */\n      0x1f\n        /* \"#utility.yul\":6549:6554   */\n      dup4\n        /* \"#utility.yul\":6545:6559   */\n      add\n        /* \"#utility.yul\":6541:6564   */\n      div\n        /* \"#utility.yul\":6531:6564   */\n      swap1\n      pop\n        /* \"#utility.yul\":6477:6570   */\n      swap2\n      swap1\n      pop\n      jump\t// out\n        /* \"#utility.yul\":6576:6683   */\n    tag_63:\n        /* \"#utility.yul\":6620:6628   */\n      0x00\n        /* \"#utility.yul\":6670:6675   */\n      dup3\n        /* \"#utility.yul\":6664:6668   */\n      dup3\n        /* \"#utility.yul\":6660:6676   */\n      shl\n        /* \"#utility.yul\":6639:6676   */\n      swap1\n      pop\n        /* \"#utility.yul\":6576:6683   */\n      swap3\n      swap2\n      pop\n      pop\n      jump\t// out\n        /* \"#utility.yul\":6689:7082   */\n    tag_64:\n        /* \"#utility.yul\":6758:6764   */\n      0x00\n        /* \"#utility.yul\":6808:6809   */\n      0x08\n        /* \"#utility.yul\":6796:6806   */\n      dup4\n        /* \"#utility.yul\":6792:6810   */\n      mul\n        /* \"#utility.yul\":6831:6928   */\n      tag_153\n        /* \"#utility.yul\":6861:6927   */\n      0xffffffffffffffffffffffffffffffffffffffffffffffffffffffffffffffff\n        /* \"#utility.yul\":6850:6859   */\n      dup3\n        /* \"#utility.yul\":6831:6928   */\n      tag_63\n      jump\t// in\n    tag_153:\n        /* \"#utility.yul\":6949:6988   */\n      tag_154\n        /* \"#utility.yul\":6979:6987   */\n      dup7\n        /* \"#utility.yul\":6968:6977   */\n      dup4\n        /* \"#utility.yul\":6949:6988   */\n      tag_63\n      jump\t// in\n    tag_154:\n        /* \"#utility.yul\":6937:6988   */\n      swap6\n      pop\n        /* \"#utility.yul\":7021:7025   */\n      dup1\n        /* \"#utility.yul\":7017:7026   */\n      not\n        /* \"#utility.yul\":7010:7015   */\n      dup5\n        /* \"#utility.yul\":7006:7027   */\n      and\n        /* \"#utility.yul\":6997:7027   */\n      swap4\n      pop\n        /* \"#utility.yul\":7070:7074   */\n      dup1\n        /* \"#utility.yul\":7060:7068   */\n      dup7\n        /* \"#utility.yul\":7056:7075   */\n      and\n        /* \"#utility.yul\":7049:7054   */\n      dup5\n        /* \"#utility.yul\":7046:7076   */\n      or\n        /* \"#utility.yul\":7036:7076   */\n      swap3\n      pop\n        /* \"#utility.yul\":6765:7082   */\n      pop\n      pop\n        /* \"#utility.yul\":6689:7082   */\n      swap4\n      swap3\n      pop\n      pop\n      pop\n      jump\t// out\n        /* \"#utility.yul\":7088:7148   */\n    tag_65:\n        /* \"#utility.yul\":7116:7119   */\n      0x00\n        /* \"#utility.yul\":7137:7142   */\n      dup2\n        /* \"#utility.yul\":7130:7142   */\n      swap1\n      pop\n        /* \"#utility.yul\":7088:7148   */\n      swap2\n      swap1\n      pop\n      jump\t// out\n        /* \"#utility.yul\":7154:7296   */\n    tag_66:\n        /* \"#utility.yul\":7204:7213   */\n      0x00\n        /* \"#utility.yul\":7237:7290   */\n      tag_157\n        /* \"#utility.yul\":7255:7289   */\n      tag_158\n        /* \"#utility.yul\":7264:7288   */\n      tag_159\n        /* \"#utility.yul\":7282:7287   */\n      dup5\n        /* \"#utility.yul\":7264:7288   */\n      tag_39\n      jump\t// in\n    tag_159:\n        /* \"#utility.yul\":7255:7289   */\n      tag_65\n      jump\t// in\n    tag_158:\n        /* \"#utility.yul\":7237:7290   */\n      tag_39\n      jump\t// in\n    tag_157:\n        /* \"#utility.yul\":7224:7290   */\n      swap1\n      pop\n        /* \"#utility.yul\":7154:7296   */\n      swap2\n      swap1\n      pop\n      jump\t// out\n        /* \"#utility.yul\":7302:7377   */\n    tag_67:\n        /* \"#utility.yul\":7345:7348   */\n      0x00\n        /* \"#utility.yul\":7366:7371   */\n      dup2\n        /* \"#utility.yul\":7359:7371   */\n      swap1\n      pop\n        /* \"#utility.yul\":7302:7377   */\n      swap2\n      swap1\n      pop\n      jump\t// out\n        /* \"#utility.yul\":7383:7652   */\n    tag_68:\n        /* \"#utility.yul\":7493:7532   */\n      tag_162\n        /* \"#utility.yul\":7524:7531   */\n      dup4\n        /* \"#utility.yul\":7493:7532   */\n      tag_66\n      jump\t// in\n    tag_162:\n        /* \"#utility.yul\":7554:7645   */\n      tag_163\n        /* \"#utility.yul\":7603:7644   */\n      tag_164\n        /* \"#utility.yul\":7627:7643   */\n      dup3\n        /* \"#utility.yul\":7603:7644   */\n      tag_67\n      jump\t// in\n    tag_164:\n        /* \"#utility.yul\":7595:7601   */\n      dup5\n        /* \"#utility.yul\":7588:7592   */\n      dup5\n        /* \"#utility.yul\":7582:7593   */\n      sload\n        /* \"#utility.yul\":7554:7645   */\n      tag_64\n      jump\t// in\n    tag_163:\n        /* \"#utility.yul\":7548:7552   */\n      dup3\n        /* \"#utility.yul\":7541:7646   */\n      sstore\n        /* \"#utility.yul\":7459:7652   */\n      pop\n        /* \"#utility.yul\":7383:7652   */\n      pop\n      pop\n      pop\n      jump\t// out\n        /* \"#utility.yul\":7658:7731   */\n    tag_69:\n        /* \"#utility.yul\":7703:7706   */\n      0x00\n        /* \"#utility.yul\":7658:7731   */\n      swap1\n      jump\t// out\n        /* \"#utility.yul\":7737:7926   */\n    tag_70:\n        /* \"#utility.yul\":7814:7846   */\n      tag_167\n      tag_69\n      jump\t// in\n    tag_167:\n        /* \"#utility.yul\":7855:7920   */\n      tag_168\n        /* \"#utility.yul\":7913:7919   */\n      dup2\n        /* \"#utility.yul\":7905:7911   */\n      dup5\n        /* \"#utility.yul\":7899:7903   */\n      dup5\n        /* \"#utility.yul\":7855:7920   */\n      tag_68\n      jump\t// in\n    tag_168:\n        /* \"#utility.yul\":7790:7926   */\n      pop\n        /* \"#utility.yul\":7737:7926   */\n      pop\n      pop\n      jump\t// out\n        /* \"#utility.yul\":7932:8118   */\n    tag_71:\n        /* \"#utility.yul\":7992:8112   */\n    tag_170:\n        /* \"#utility.yul\":8009:8012   */\n      dup2\n        /* \"#utility.yul\":8002:8007   */\n      dup2\n        /* \"#utility.yul\":7999:8013   */\n      lt\n        /* \"#utility.yul\":7992:8112   */\n      iszero\n      tag_172\n      jumpi\n        /* \"#utility.yul\":8063:8102   */\n      tag_173\n        /* \"#utility.yul\":8100:8101   */\n      0x00\n        /* \"#utility.yul\":8093:8098   */\n      dup3\n        /* \"#utility.yul\":8063:8102   */\n      tag_70\n      jump\t// in\n    tag_173:\n        /* \"#utility.yul\":8036:8037   */\n      0x01\n        /* \"#utility.yul\":8029:8034   */\n      dup2\n        /* \"#utility.yul\":8025:8038   */\n      add\n        /* \"#utility.yul\":8016:8038   */\n      swap1\n      pop\n        /* \"#utility.yul\":7992:8112   */\n      jump(tag_170)\n    tag_172:\n        /* \"#utility.yul\":7932:8118   */\n      pop\n      pop\n      jump\t// out\n        /* \"#utility.yul\":8124:8667   */\n    tag_72:\n        /* \"#utility.yul\":8225:8227   */\n      0x1f\n        /* \"#utility.yul\":8220:8223   */\n      dup3\n        /* \"#utility.yul\":8217:8228   */\n      gt\n        /* \"#utility.yul\":8214:8660   */\n      iszero\n      tag_175\n      jumpi\n        /* \"#utility.yul\":8259:8297   */\n      tag_176\n        /* \"#utility.yul\":8291:8296   */\n      dup2\n        /* \"#utility.yul\":8259:8297   */\n      tag_61\n      jump\t// in\n    tag_176:\n        /* \"#utility.yul\":8343:8372   */\n      tag_177\n        /* \"#utility.yul\":8361:8371   */\n      dup5\n        /* \"#utility.yul\":8343:8372   */\n      tag_62\n      jump\t// in\n    tag_177:\n        /* \"#utility.yul\":8333:8341   */\n      dup2\n        /* \"#utility.yul\":8329:8373   */\n      add\n        /* \"#utility.yul\":8526:8528   */\n      0x20\n        /* \"#utility.yul\":8514:8524   */\n      dup6\n        /* \"#utility.yul\":8511:8529   */\n      lt\n        /* \"#utility.yul\":8508:8557   */\n      iszero\n      tag_178\n      jumpi\n        /* \"#utility.yul\":8547:8555   */\n      dup2\n        /* \"#utility.yul\":8532:8555   */\n      swap1\n      pop\n        /* \"#utility.yul\":8508:8557   */\n    tag_178:\n        /* \"#utility.yul\":8570:8650   */\n      tag_179\n        /* \"#utility.yul\":8626:8648   */\n      tag_180\n        /* \"#utility.yul\":8644:8647   */\n      dup6\n        /* \"#utility.yul\":8626:8648   */\n      tag_62\n      jump\t// in\n    tag_180:\n        /* \"#utility.yul\":8616:8624   */\n      dup4\n        /* \"#utility.yul\":8612:8649   */\n      add\n        /* \"#utility.yul\":8599:8610   */\n      dup3\n        /* \"#utility.yul\":8570:8650   */\n      tag_71\n      jump\t// in\n    tag_179:\n        /* \"#utility.yul\":8229:8660   */\n      pop\n      pop\n        /* \"#utility.yul\":8214:8660   */\n    tag_175:\n        /* \"#utility.yul\":8124:8667   */\n      pop\n      pop\n      pop\n      jump\t// out\n        /* \"#utility.yul\":8673:8790   */\n    tag_73:\n        /* \"#utility.yul\":8727:8735   */\n      0x00\n        /* \"#utility.yul\":8777:8782   */\n      dup3\n        /* \"#utility.yul\":8771:8775   */\n      dup3\n        /* \"#utility.yul\":8767:8783   */\n      shr\n        /* \"#utility.yul\":8746:8783   */\n      swap1\n      pop\n        /* \"#utility.yul\":8673:8790   */\n      swap3\n      swap2\n      pop\n      pop\n      jump\t// out\n        /* \"#utility.yul\":8796:8965   */\n    tag_74:\n        /* \"#utility.yul\":8840:8846   */\n      0x00\n        /* \"#utility.yul\":8873:8924   */\n      tag_183\n        /* \"#utility.yul\":8921:8922   */\n      0x00\n        /* \"#utility.yul\":8917:8923   */\n      not\n        /* \"#utility.yul\":8909:8914   */\n      dup5\n        /* \"#utility.yul\":8906:8907   */\n      0x08\n        /* \"#utility.yul\":8902:8915   */\n      mul\n        /* \"#utility.yul\":8873:8924   */\n      tag_73\n      jump\t// in\n    tag_183:\n        /* \"#utility.yul\":8869:8925   */\n      not\n        /* \"#utility.yul\":8954:8958   */\n      dup1\n        /* \"#utility.yul\":8948:8952   */\n      dup4\n        /* \"#utility.yul\":8944:8959   */\n      and\n        /* \"#utility.yul\":8934:8959   */\n      swap2\n      pop\n        /* \"#utility.yul\":8847:8965   */\n      pop\n        /* \"#utility.yul\":8796:8965   */\n      swap3\n      swap2\n      pop\n      pop\n      jump\t// out\n        /* \"#utility.yul\":8970:9265   */\n    tag_75:\n        /* \"#utility.yul\":9046:9050   */\n      0x00\n        /* \"#utility.yul\":9192:9221   */\n      tag_185\n        /* \"#utility.yul\":9217:9220   */\n      dup4\n        /* \"#utility.yul\":9211:9215   */\n      dup4\n        /* \"#utility.yul\":9192:9221   */\n      tag_74\n      jump\t// in\n    tag_185:\n        /* \"#utility.yul\":9184:9221   */\n      swap2\n      pop\n        /* \"#utility.yul\":9254:9257   */\n      dup3\n        /* \"#utility.yul\":9251:9252   */\n      0x02\n        /* \"#utility.yul\":9247:9258   */\n      mul\n        /* \"#utility.yul\":9241:9245   */\n      dup3\n        /* \"#utility.yul\":9238:9259   */\n      or\n        /* \"#utility.yul\":9230:9259   */\n      swap1\n      pop\n        /* \"#utility.yul\":8970:9265   */\n      swap3\n      swap2\n      pop\n      pop\n      jump\t// out\n        /* \"#utility.yul\":9270:10665   */\n    tag_31:\n        /* \"#utility.yul\":9387:9424   */\n      tag_187\n        /* \"#utility.yul\":9420:9423   */\n      dup3\n        /* \"#utility.yul\":9387:9424   */\n      tag_34\n      jump\t// in\n    tag_187:\n        /* \"#utility.yul\":9489:9507   */\n      0xffffffffffffffff\n        /* \"#utility.yul\":9481:9487   */\n      dup2\n        /* \"#utility.yul\":9478:9508   */\n      gt\n        /* \"#utility.yul\":9475:9531   */\n      iszero\n      tag_188\n      jumpi\n        /* \"#utility.yul\":9511:9529   */\n      tag_189\n      tag_49\n      jump\t// in\n    tag_189:\n        /* \"#utility.yul\":9475:9531   */\n    tag_188:\n        /* \"#utility.yul\":9555:9593   */\n      tag_190\n        /* \"#utility.yul\":9587:9591   */\n      dup3\n        /* \"#utility.yul\":9581:9592   */\n      sload\n        /* \"#utility.yul\":9555:9593   */\n      tag_18\n      jump\t// in\n    tag_190:\n        /* \"#utility.yul\":9640:9707   */\n      tag_191\n        /* \"#utility.yul\":9700:9706   */\n      dup3\n        /* \"#utility.yul\":9692:9698   */\n      dup3\n        /* \"#utility.yul\":9686:9690   */\n      dup6\n        /* \"#utility.yul\":9640:9707   */\n      tag_72\n      jump\t// in\n    tag_191:\n        /* \"#utility.yul\":9734:9735   */\n      0x00\n        /* \"#utility.yul\":9758:9762   */\n      0x20\n        /* \"#utility.yul\":9745:9762   */\n      swap1\n      pop\n        /* \"#utility.yul\":9790:9792   */\n      0x1f\n        /* \"#utility.yul\":9782:9788   */\n      dup4\n        /* \"#utility.yul\":9779:9793   */\n      gt\n        /* \"#utility.yul\":9807:9808   */\n      0x01\n        /* \"#utility.yul\":9802:10420   */\n      dup2\n      eq\n      tag_193\n      jumpi\n        /* \"#utility.yul\":10464:10465   */\n      0x00\n        /* \"#utility.yul\":10481:10487   */\n      dup5\n        /* \"#utility.yul\":10478:10555   */\n      iszero\n      tag_194\n      jumpi\n        /* \"#utility.yul\":10530:10539   */\n      dup3\n        /* \"#utility.yul\":10525:10528   */\n      dup8\n        /* \"#utility.yul\":10521:10540   */\n      add\n        /* \"#utility.yul\":10515:10541   */\n      mload\n        /* \"#utility.yul\":10506:10541   */\n      swap1\n      pop\n        /* \"#utility.yul\":10478:10555   */\n    tag_194:\n        /* \"#utility.yul\":10581:10648   */\n      tag_195\n        /* \"#utility.yul\":10641:10647   */\n      dup6\n        /* \"#utility.yul\":10634:10639   */\n      dup3\n        /* \"#utility.yul\":10581:10648   */\n      tag_75\n      jump\t// in\n    tag_195:\n        /* \"#utility.yul\":10575:10579   */\n      dup7\n        /* \"#utility.yul\":10568:10649   */\n      sstore\n        /* \"#utility.yul\":10437:10659   */\n      pop\n        /* \"#utility.yul\":9772:10659   */\n      jump(tag_192)\n        /* \"#utility.yul\":9802:10420   */\n    tag_193:\n        /* \"#utility.yul\":9854:9858   */\n      0x1f\n        /* \"#utility.yul\":9850:9859   */\n      not\n        /* \"#utility.yul\":9842:9848   */\n      dup5\n        /* \"#utility.yul\":9838:9860   */\n      and\n        /* \"#utility.yul\":9888:9925   */\n      tag_196\n        /* \"#utility.yul\":9920:9924   */\n      dup7\n        /* \"#utility.yul\":9888:9925   */\n      tag_61\n      jump\t// in\n    tag_196:\n        /* \"#utility.yul\":9947:9948   */\n      0x00\n        /* \"#utility.yul\":9961:10169   */\n    tag_197:\n        /* \"#utility.yul\":9975:9982   */\n      dup3\n        /* \"#utility.yul\":9972:9973   */\n      dup2\n        /* \"#utility.yul\":9969:9983   */\n      lt\n        /* \"#utility.yul\":9961:10169   */\n      iszero\n      tag_199\n      jumpi\n        /* \"#utility.yul\":10054:10063   */\n      dup5\n        /* \"#utility.yul\":10049:10052   */\n      dup10\n        /* \"#utility.yul\":10045:10064   */\n      add\n        /* \"#utility.yul\":10039:10065   */\n      mload\n        /* \"#utility.yul\":10031:10037   */\n      dup3\n        /* \"#utility.yul\":10024:10066   */\n      sstore\n        /* \"#utility.yul\":10105:10106   */\n      0x01\n        /* \"#utility.yul\":10097:10103   */\n      dup3\n        /* \"#utility.yul\":10093:10107   */\n      add\n        /* \"#utility.yul\":10083:10107   */\n      swap2\n      pop\n        /* \"#utility.yul\":10152:10154   */\n      0x20\n        /* \"#utility.yul\":10141:10150   */\n      dup6\n        /* \"#utility.yul\":10137:10155   */\n      add\n        /* \"#utility.yul\":10124:10155   */\n      swap5\n      pop\n        /* \"#utility.yul\":9998:10002   */\n      0x20\n        /* \"#utility.yul\":9995:9996   */\n      dup2\n        /* \"#utility.yul\":9991:10003   */\n      add\n        /* \"#utility.yul\":9986:10003   */\n      swap1\n      pop\n        /* \"#utility.yul\":9961:10169   */\n      jump(tag_197)\n    tag_199:\n        /* \"#utility.yul\":10197:10203   */\n      dup7\n        /* \"#utility.yul\":10188:10195   */\n      dup4\n        /* \"#utility.yul\":10185:10204   */\n      lt\n        /* \"#utility.yul\":10182:10361   */\n      iszero\n      tag_200\n      jumpi\n        /* \"#utility.yul\":10255:10264   */\n      dup5\n        /* \"#utility.yul\":10250:10253   */\n      dup10\n        /* \"#utility.yul\":10246:10265   */\n      add\n        /* \"#utility.yul\":10240:10266   */\n      mload\n        /* \"#utility.yul\":10298:10346   */\n      tag_201\n        /* \"#utility.yul\":10340:10344   */\n      0x1f\n        /* \"#utility.yul\":10332:10338   */\n      dup10\n        /* \"#utility.yul\":10328:10345   */\n      and\n        /* \"#utility.yul\":10317:10326   */\n      dup3\n        /* \"#utility.yul\":10298:10346   */\n      tag_74\n      jump\t// in\n    tag_201:\n        /* \"#utility.yul\":10290:10296   */\n      dup4\n        /* \"#utility.yul\":10283:10347   */\n      sstore\n        /* \"#utility.yul\":10205:10361   */\n      pop\n        /* \"#utility.yul\":10182:10361   */\n    tag_200:\n        /* \"#utility.yul\":10407:10408   */\n      0x01\n        /* \"#utility.yul\":10403:10404   */\n      0x02\n        /* \"#utility.yul\":10395:10401   */\n      dup9\n        /* \"#utility.yul\":10391:10405   */\n      mul\n        /* \"#utility.yul\":10387:10409   */\n      add\n        /* \"#utility.yul\":10381:10385   */\n      dup9\n        /* \"#utility.yul\":10374:10410   */\n      sstore\n        /* \"#utility.yul\":9809:10420   */\n      pop\n      pop\n      pop\n        /* \"#utility.yul\":9772:10659   */\n    tag_192:\n      pop\n        /* \"#utility.yul\":9362:10665   */\n      pop\n      pop\n      pop\n        /* \"#utility.yul\":9270:10665   */\n      pop\n      pop\n      jump\t// out\n        /* \"#utility.yul\":10671:11094   */\n    tag_33:\n        /* \"#utility.yul\":10812:10816   */\n      0x00\n        /* \"#utility.yul\":10850:10852   */\n      0x40\n        /* \"#utility.yul\":10839:10848   */\n      dup3\n        /* \"#utility.yul\":10835:10853   */\n      add\n        /* \"#utility.yul\":10827:10853   */\n      swap1\n      pop\n        /* \"#utility.yul\":10899:10908   */\n      dup2\n        /* \"#utility.yul\":10893:10897   */\n      dup2\n        /* \"#utility.yul\":10889:10909   */\n      sub\n        /* \"#utility.yul\":10885:10886   */\n      0x00\n        /* \"#utility.yul\":10874:10883   */\n      dup4\n        /* \"#utility.yul\":10870:10887   */\n      add\n        /* \"#utility.yul\":10863:10910   */\n      mstore\n        /* \"#utility.yul\":10927:11005   */\n      tag_203\n        /* \"#utility.yul\":11000:11004   */\n      dup2\n        /* \"#utility.yul\":10991:10997   */\n      dup6\n        /* \"#utility.yul\":10927:11005   */\n      tag_38\n      jump\t// in\n    tag_203:\n        /* \"#utility.yul\":10919:11005   */\n      swap1\n      pop\n        /* \"#utility.yul\":11015:11087   */\n      tag_204\n        /* \"#utility.yul\":11083:11085   */\n      0x20\n        /* \"#utility.yul\":11072:11081   */\n      dup4\n        /* \"#utility.yul\":11068:11086   */\n      add\n        /* \"#utility.yul\":11059:11065   */\n      dup5\n        /* \"#utility.yul\":11015:11087   */\n      tag_40\n      jump\t// in\n    tag_204:\n        /* \"#utility.yul\":10671:11094   */\n      swap4\n      swap3\n      pop\n      pop\n      pop\n      jump\t// out\n\n    auxdata: 0xa2646970667358221220a649221723853191e8113da9e9331092abc9ab242cd8bb918f86d6c4febd359964736f6c634300081a0033\n}\n",
				"bytecode": {
					"linkReferences": {},
					"object": "6080604052348015600e575f80fd5b506108ff8061001c5f395ff3fe608060405234801561000f575f80fd5b506004361061003f575f3560e01c8063291c7f7e146100435780638ec4dc9514610063578063cd4161ec14610083575b5f80fd5b61004b61009f565b60405161005a93929190610399565b60405180910390f35b61006b61015a565b60405161007a93929190610399565b60405180910390f35b61009d60048036038101906100989190610566565b61021f565b005b5f805f0180546100ae906105ff565b80601f01602080910402602001604051908101604052809291908181526020018280546100da906105ff565b80156101255780601f106100fc57610100808354040283529160200191610125565b820191905f5260205f20905b81548152906001019060200180831161010857829003601f168201915b505050505090806001015490806002015f9054906101000a900473ffffffffffffffffffffffffffffffffffffffff16905083565b60605f805f80015f600101545f6002015f9054906101000a900473ffffffffffffffffffffffffffffffffffffffff16828054610196906105ff565b80601f01602080910402602001604051908101604052809291908181526020018280546101c2906105ff565b801561020d5780601f106101e45761010080835404028352916020019161020d565b820191905f5260205f20905b8154815290600101906020018083116101f057829003601f168201915b50505050509250925092509250909192565b5f83815f01908161023091906107cc565b5082816001018190555081816002015f6101000a81548173ffffffffffffffffffffffffffffffffffffffff021916908373ffffffffffffffffffffffffffffffffffffffff1602179055508173ffffffffffffffffffffffffffffffffffffffff167f979e29b97f38d8117533efa6c94b3ae34dc288e8f4d317f60d52eb37e0c716a185856040516102c492919061089b565b60405180910390a250505050565b5f81519050919050565b5f82825260208201905092915050565b8281835e5f83830152505050565b5f601f19601f8301169050919050565b5f610314826102d2565b61031e81856102dc565b935061032e8185602086016102ec565b610337816102fa565b840191505092915050565b5f819050919050565b61035481610342565b82525050565b5f73ffffffffffffffffffffffffffffffffffffffff82169050919050565b5f6103838261035a565b9050919050565b61039381610379565b82525050565b5f6060820190508181035f8301526103b1818661030a565b90506103c0602083018561034b565b6103cd604083018461038a565b949350505050565b5f604051905090565b5f80fd5b5f80fd5b5f80fd5b5f80fd5b7f4e487b71000000000000000000000000000000000000000000000000000000005f52604160045260245ffd5b610424826102fa565b810181811067ffffffffffffffff82111715610443576104426103ee565b5b80604052505050565b5f6104556103d5565b9050610461828261041b565b919050565b5f67ffffffffffffffff8211156104805761047f6103ee565b5b610489826102fa565b9050602081019050919050565b828183375f83830152505050565b5f6104b66104b184610466565b61044c565b9050828152602081018484840111156104d2576104d16103ea565b5b6104dd848285610496565b509392505050565b5f82601f8301126104f9576104f86103e6565b5b81356105098482602086016104a4565b91505092915050565b61051b81610342565b8114610525575f80fd5b50565b5f8135905061053681610512565b92915050565b61054581610379565b811461054f575f80fd5b50565b5f813590506105608161053c565b92915050565b5f805f6060848603121561057d5761057c6103de565b5b5f84013567ffffffffffffffff81111561059a576105996103e2565b5b6105a6868287016104e5565b93505060206105b786828701610528565b92505060406105c886828701610552565b9150509250925092565b7f4e487b71000000000000000000000000000000000000000000000000000000005f52602260045260245ffd5b5f600282049050600182168061061657607f821691505b602082108103610629576106286105d2565b5b50919050565b5f819050815f5260205f209050919050565b5f6020601f8301049050919050565b5f82821b905092915050565b5f6008830261068b7fffffffffffffffffffffffffffffffffffffffffffffffffffffffffffffffff82610650565b6106958683610650565b95508019841693508086168417925050509392505050565b5f819050919050565b5f6106d06106cb6106c684610342565b6106ad565b610342565b9050919050565b5f819050919050565b6106e9836106b6565b6106fd6106f5826106d7565b84845461065c565b825550505050565b5f90565b610711610705565b61071c8184846106e0565b505050565b5b8181101561073f576107345f82610709565b600181019050610722565b5050565b601f821115610784576107558161062f565b61075e84610641565b8101602085101561076d578190505b61078161077985610641565b830182610721565b50505b505050565b5f82821c905092915050565b5f6107a45f1984600802610789565b1980831691505092915050565b5f6107bc8383610795565b9150826002028217905092915050565b6107d5826102d2565b67ffffffffffffffff8111156107ee576107ed6103ee565b5b6107f882546105ff565b610803828285610743565b5f60209050601f831160018114610834575f8415610822578287015190505b61082c85826107b1565b865550610893565b601f1984166108428661062f565b5f5b8281101561086957848901518255600182019150602085019450602081019050610844565b868310156108865784890151610882601f891682610795565b8355505b6001600288020188555050505b505050505050565b5f6040820190508181035f8301526108b3818561030a565b90506108c2602083018461034b565b939250505056fea2646970667358221220a649221723853191e8113da9e9331092abc9ab242cd8bb918f86d6c4febd359964736f6c634300081a0033",
					"opcodes": "PUSH1 0x80 PUSH1 0x40 MSTORE CALLVALUE DUP1 ISZERO PUSH1 0xE JUMPI PUSH0 DUP1 REVERT JUMPDEST POP PUSH2 0x8FF DUP1 PUSH2 0x1C PUSH0 CODECOPY PUSH0 RETURN INVALID PUSH1 0x80 PUSH1 0x40 MSTORE CALLVALUE DUP1 ISZERO PUSH2 0xF JUMPI PUSH0 DUP1 REVERT JUMPDEST POP PUSH1 0x4 CALLDATASIZE LT PUSH2 0x3F JUMPI PUSH0 CALLDATALOAD PUSH1 0xE0 SHR DUP1 PUSH4 0x291C7F7E EQ PUSH2 0x43 JUMPI DUP1 PUSH4 0x8EC4DC95 EQ PUSH2 0x63 JUMPI DUP1 PUSH4 0xCD4161EC EQ PUSH2 0x83 JUMPI JUMPDEST PUSH0 DUP1 REVERT JUMPDEST PUSH2 0x4B PUSH2 0x9F JUMP JUMPDEST PUSH1 0x40 MLOAD PUSH2 0x5A SWAP4 SWAP3 SWAP2 SWAP1 PUSH2 0x399 JUMP JUMPDEST PUSH1 0x40 MLOAD DUP1 SWAP2 SUB SWAP1 RETURN JUMPDEST PUSH2 0x6B PUSH2 0x15A JUMP JUMPDEST PUSH1 0x40 MLOAD PUSH2 0x7A SWAP4 SWAP3 SWAP2 SWAP1 PUSH2 0x399 JUMP JUMPDEST PUSH1 0x40 MLOAD DUP1 SWAP2 SUB SWAP1 RETURN JUMPDEST PUSH2 0x9D PUSH1 0x4 DUP1 CALLDATASIZE SUB DUP2 ADD SWAP1 PUSH2 0x98 SWAP2 SWAP1 PUSH2 0x566 JUMP JUMPDEST PUSH2 0x21F JUMP JUMPDEST STOP JUMPDEST PUSH0 DUP1 PUSH0 ADD DUP1 SLOAD PUSH2 0xAE SWAP1 PUSH2 0x5FF JUMP JUMPDEST DUP1 PUSH1 0x1F ADD PUSH1 0x20 DUP1 SWAP2 DIV MUL PUSH1 0x20 ADD PUSH1 0x40 MLOAD SWAP1 DUP2 ADD PUSH1 0x40 MSTORE DUP1 SWAP3 SWAP2 SWAP1 DUP2 DUP2 MSTORE PUSH1 0x20 ADD DUP3 DUP1 SLOAD PUSH2 0xDA SWAP1 PUSH2 0x5FF JUMP JUMPDEST DUP1 ISZERO PUSH2 0x125 JUMPI DUP1 PUSH1 0x1F LT PUSH2 0xFC JUMPI PUSH2 0x100 DUP1 DUP4 SLOAD DIV MUL DUP4 MSTORE SWAP2 PUSH1 0x20 ADD SWAP2 PUSH2 0x125 JUMP JUMPDEST DUP3 ADD SWAP2 SWAP1 PUSH0 MSTORE PUSH1 0x20 PUSH0 KECCAK256 SWAP1 JUMPDEST DUP2 SLOAD DUP2 MSTORE SWAP1 PUSH1 0x1 ADD SWAP1 PUSH1 0x20 ADD DUP1 DUP4 GT PUSH2 0x108 JUMPI DUP3 SWAP1 SUB PUSH1 0x1F AND DUP3 ADD SWAP2 JUMPDEST POP POP POP POP POP SWAP1 DUP1 PUSH1 0x1 ADD SLOAD SWAP1 DUP1 PUSH1 0x2 ADD PUSH0 SWAP1 SLOAD SWAP1 PUSH2 0x100 EXP SWAP1 DIV PUSH20 0xFFFFFFFFFFFFFFFFFFFFFFFFFFFFFFFFFFFFFFFF AND SWAP1 POP DUP4 JUMP JUMPDEST PUSH1 0x60 PUSH0 DUP1 PUSH0 DUP1 ADD PUSH0 PUSH1 0x1 ADD SLOAD PUSH0 PUSH1 0x2 ADD PUSH0 SWAP1 SLOAD SWAP1 PUSH2 0x100 EXP SWAP1 DIV PUSH20 0xFFFFFFFFFFFFFFFFFFFFFFFFFFFFFFFFFFFFFFFF AND DUP3 DUP1 SLOAD PUSH2 0x196 SWAP1 PUSH2 0x5FF JUMP JUMPDEST DUP1 PUSH1 0x1F ADD PUSH1 0x20 DUP1 SWAP2 DIV MUL PUSH1 0x20 ADD PUSH1 0x40 MLOAD SWAP1 DUP2 ADD PUSH1 0x40 MSTORE DUP1 SWAP3 SWAP2 SWAP1 DUP2 DUP2 MSTORE PUSH1 0x20 ADD DUP3 DUP1 SLOAD PUSH2 0x1C2 SWAP1 PUSH2 0x5FF JUMP JUMPDEST DUP1 ISZERO PUSH2 0x20D JUMPI DUP1 PUSH1 0x1F LT PUSH2 0x1E4 JUMPI PUSH2 0x100 DUP1 DUP4 SLOAD DIV MUL DUP4 MSTORE SWAP2 PUSH1 0x20 ADD SWAP2 PUSH2 0x20D JUMP JUMPDEST DUP3 ADD SWAP2 SWAP1 PUSH0 MSTORE PUSH1 0x20 PUSH0 KECCAK256 SWAP1 JUMPDEST DUP2 SLOAD DUP2 MSTORE SWAP1 PUSH1 0x1 ADD SWAP1 PUSH1 0x20 ADD DUP1 DUP4 GT PUSH2 0x1F0 JUMPI DUP3 SWAP1 SUB PUSH1 0x1F AND DUP3 ADD SWAP2 JUMPDEST POP POP POP POP POP SWAP3 POP SWAP3 POP SWAP3 POP SWAP3 POP SWAP1 SWAP2 SWAP3 JUMP JUMPDEST PUSH0 DUP4 DUP2 PUSH0 ADD SWAP1 DUP2 PUSH2 0x230 SWAP2 SWAP1 PUSH2 0x7CC JUMP JUMPDEST POP DUP3 DUP2 PUSH1 0x1 ADD DUP2 SWAP1 SSTORE POP DUP2 DUP2 PUSH1 0x2 ADD PUSH0 PUSH2 0x100 EXP DUP2 SLOAD DUP2 PUSH20 0xFFFFFFFFFFFFFFFFFFFFFFFFFFFFFFFFFFFFFFFF MUL NOT AND SWAP1 DUP4 PUSH20 0xFFFFFFFFFFFFFFFFFFFFFFFFFFFFFFFFFFFFFFFF AND MUL OR SWAP1 SSTORE POP DUP2 PUSH20 0xFFFFFFFFFFFFFFFFFFFFFFFFFFFFFFFFFFFFFFFF AND PUSH32 0x979E29B97F38D8117533EFA6C94B3AE34DC288E8F4D317F60D52EB37E0C716A1 DUP6 DUP6 PUSH1 0x40 MLOAD PUSH2 0x2C4 SWAP3 SWAP2 SWAP1 PUSH2 0x89B JUMP JUMPDEST PUSH1 0x40 MLOAD DUP1 SWAP2 SUB SWAP1 LOG2 POP POP POP POP JUMP JUMPDEST PUSH0 DUP2 MLOAD SWAP1 POP SWAP2 SWAP1 POP JUMP JUMPDEST PUSH0 DUP3 DUP3 MSTORE PUSH1 0x20 DUP3 ADD SWAP1 POP SWAP3 SWAP2 POP POP JUMP JUMPDEST DUP3 DUP2 DUP4 MCOPY PUSH0 DUP4 DUP4 ADD MSTORE POP POP POP JUMP JUMPDEST PUSH0 PUSH1 0x1F NOT PUSH1 0x1F DUP4 ADD AND SWAP1 POP SWAP2 SWAP1 POP JUMP JUMPDEST PUSH0 PUSH2 0x314 DUP3 PUSH2 0x2D2 JUMP JUMPDEST PUSH2 0x31E DUP2 DUP6 PUSH2 0x2DC JUMP JUMPDEST SWAP4 POP PUSH2 0x32E DUP2 DUP6 PUSH1 0x20 DUP7 ADD PUSH2 0x2EC JUMP JUMPDEST PUSH2 0x337 DUP2 PUSH2 0x2FA JUMP JUMPDEST DUP5 ADD SWAP2 POP POP SWAP3 SWAP2 POP POP JUMP JUMPDEST PUSH0 DUP2 SWAP1 POP SWAP2 SWAP1 POP JUMP JUMPDEST PUSH2 0x354 DUP2 PUSH2 0x342 JUMP JUMPDEST DUP3 MSTORE POP POP JUMP JUMPDEST PUSH0 PUSH20 0xFFFFFFFFFFFFFFFFFFFFFFFFFFFFFFFFFFFFFFFF DUP3 AND SWAP1 POP SWAP2 SWAP1 POP JUMP JUMPDEST PUSH0 PUSH2 0x383 DUP3 PUSH2 0x35A JUMP JUMPDEST SWAP1 POP SWAP2 SWAP1 POP JUMP JUMPDEST PUSH2 0x393 DUP2 PUSH2 0x379 JUMP JUMPDEST DUP3 MSTORE POP POP JUMP JUMPDEST PUSH0 PUSH1 0x60 DUP3 ADD SWAP1 POP DUP2 DUP2 SUB PUSH0 DUP4 ADD MSTORE PUSH2 0x3B1 DUP2 DUP7 PUSH2 0x30A JUMP JUMPDEST SWAP1 POP PUSH2 0x3C0 PUSH1 0x20 DUP4 ADD DUP6 PUSH2 0x34B JUMP JUMPDEST PUSH2 0x3CD PUSH1 0x40 DUP4 ADD DUP5 PUSH2 0x38A JUMP JUMPDEST SWAP5 SWAP4 POP POP POP POP JUMP JUMPDEST PUSH0 PUSH1 0x40 MLOAD SWAP1 POP SWAP1 JUMP JUMPDEST PUSH0 DUP1 REVERT JUMPDEST PUSH0 DUP1 REVERT JUMPDEST PUSH0 DUP1 REVERT JUMPDEST PUSH0 DUP1 REVERT JUMPDEST PUSH32 0x4E487B7100000000000000000000000000000000000000000000000000000000 PUSH0 MSTORE PUSH1 0x41 PUSH1 0x4 MSTORE PUSH1 0x24 PUSH0 REVERT JUMPDEST PUSH2 0x424 DUP3 PUSH2 0x2FA JUMP JUMPDEST DUP2 ADD DUP2 DUP2 LT PUSH8 0xFFFFFFFFFFFFFFFF DUP3 GT OR ISZERO PUSH2 0x443 JUMPI PUSH2 0x442 PUSH2 0x3EE JUMP JUMPDEST JUMPDEST DUP1 PUSH1 0x40 MSTORE POP POP POP JUMP JUMPDEST PUSH0 PUSH2 0x455 PUSH2 0x3D5 JUMP JUMPDEST SWAP1 POP PUSH2 0x461 DUP3 DUP3 PUSH2 0x41B JUMP JUMPDEST SWAP2 SWAP1 POP JUMP JUMPDEST PUSH0 PUSH8 0xFFFFFFFFFFFFFFFF DUP3 GT ISZERO PUSH2 0x480 JUMPI PUSH2 0x47F PUSH2 0x3EE JUMP JUMPDEST JUMPDEST PUSH2 0x489 DUP3 PUSH2 0x2FA JUMP JUMPDEST SWAP1 POP PUSH1 0x20 DUP2 ADD SWAP1 POP SWAP2 SWAP1 POP JUMP JUMPDEST DUP3 DUP2 DUP4 CALLDATACOPY PUSH0 DUP4 DUP4 ADD MSTORE POP POP POP JUMP JUMPDEST PUSH0 PUSH2 0x4B6 PUSH2 0x4B1 DUP5 PUSH2 0x466 JUMP JUMPDEST PUSH2 0x44C JUMP JUMPDEST SWAP1 POP DUP3 DUP2 MSTORE PUSH1 0x20 DUP2 ADD DUP5 DUP5 DUP5 ADD GT ISZERO PUSH2 0x4D2 JUMPI PUSH2 0x4D1 PUSH2 0x3EA JUMP JUMPDEST JUMPDEST PUSH2 0x4DD DUP5 DUP3 DUP6 PUSH2 0x496 JUMP JUMPDEST POP SWAP4 SWAP3 POP POP POP JUMP JUMPDEST PUSH0 DUP3 PUSH1 0x1F DUP4 ADD SLT PUSH2 0x4F9 JUMPI PUSH2 0x4F8 PUSH2 0x3E6 JUMP JUMPDEST JUMPDEST DUP2 CALLDATALOAD PUSH2 0x509 DUP5 DUP3 PUSH1 0x20 DUP7 ADD PUSH2 0x4A4 JUMP JUMPDEST SWAP2 POP POP SWAP3 SWAP2 POP POP JUMP JUMPDEST PUSH2 0x51B DUP2 PUSH2 0x342 JUMP JUMPDEST DUP2 EQ PUSH2 0x525 JUMPI PUSH0 DUP1 REVERT JUMPDEST POP JUMP JUMPDEST PUSH0 DUP2 CALLDATALOAD SWAP1 POP PUSH2 0x536 DUP2 PUSH2 0x512 JUMP JUMPDEST SWAP3 SWAP2 POP POP JUMP JUMPDEST PUSH2 0x545 DUP2 PUSH2 0x379 JUMP JUMPDEST DUP2 EQ PUSH2 0x54F JUMPI PUSH0 DUP1 REVERT JUMPDEST POP JUMP JUMPDEST PUSH0 DUP2 CALLDATALOAD SWAP1 POP PUSH2 0x560 DUP2 PUSH2 0x53C JUMP JUMPDEST SWAP3 SWAP2 POP POP JUMP JUMPDEST PUSH0 DUP1 PUSH0 PUSH1 0x60 DUP5 DUP7 SUB SLT ISZERO PUSH2 0x57D JUMPI PUSH2 0x57C PUSH2 0x3DE JUMP JUMPDEST JUMPDEST PUSH0 DUP5 ADD CALLDATALOAD PUSH8 0xFFFFFFFFFFFFFFFF DUP2 GT ISZERO PUSH2 0x59A JUMPI PUSH2 0x599 PUSH2 0x3E2 JUMP JUMPDEST JUMPDEST PUSH2 0x5A6 DUP7 DUP3 DUP8 ADD PUSH2 0x4E5 JUMP JUMPDEST SWAP4 POP POP PUSH1 0x20 PUSH2 0x5B7 DUP7 DUP3 DUP8 ADD PUSH2 0x528 JUMP JUMPDEST SWAP3 POP POP PUSH1 0x40 PUSH2 0x5C8 DUP7 DUP3 DUP8 ADD PUSH2 0x552 JUMP JUMPDEST SWAP2 POP POP SWAP3 POP SWAP3 POP SWAP3 JUMP JUMPDEST PUSH32 0x4E487B7100000000000000000000000000000000000000000000000000000000 PUSH0 MSTORE PUSH1 0x22 PUSH1 0x4 MSTORE PUSH1 0x24 PUSH0 REVERT JUMPDEST PUSH0 PUSH1 0x2 DUP3 DIV SWAP1 POP PUSH1 0x1 DUP3 AND DUP1 PUSH2 0x616 JUMPI PUSH1 0x7F DUP3 AND SWAP2 POP JUMPDEST PUSH1 0x20 DUP3 LT DUP2 SUB PUSH2 0x629 JUMPI PUSH2 0x628 PUSH2 0x5D2 JUMP JUMPDEST JUMPDEST POP SWAP2 SWAP1 POP JUMP JUMPDEST PUSH0 DUP2 SWAP1 POP DUP2 PUSH0 MSTORE PUSH1 0x20 PUSH0 KECCAK256 SWAP1 POP SWAP2 SWAP1 POP JUMP JUMPDEST PUSH0 PUSH1 0x20 PUSH1 0x1F DUP4 ADD DIV SWAP1 POP SWAP2 SWAP1 POP JUMP JUMPDEST PUSH0 DUP3 DUP3 SHL SWAP1 POP SWAP3 SWAP2 POP POP JUMP JUMPDEST PUSH0 PUSH1 0x8 DUP4 MUL PUSH2 0x68B PUSH32 0xFFFFFFFFFFFFFFFFFFFFFFFFFFFFFFFFFFFFFFFFFFFFFFFFFFFFFFFFFFFFFFFF DUP3 PUSH2 0x650 JUMP JUMPDEST PUSH2 0x695 DUP7 DUP4 PUSH2 0x650 JUMP JUMPDEST SWAP6 POP DUP1 NOT DUP5 AND SWAP4 POP DUP1 DUP7 AND DUP5 OR SWAP3 POP POP POP SWAP4 SWAP3 POP POP POP JUMP JUMPDEST PUSH0 DUP2 SWAP1 POP SWAP2 SWAP1 POP JUMP JUMPDEST PUSH0 PUSH2 0x6D0 PUSH2 0x6CB PUSH2 0x6C6 DUP5 PUSH2 0x342 JUMP JUMPDEST PUSH2 0x6AD JUMP JUMPDEST PUSH2 0x342 JUMP JUMPDEST SWAP1 POP SWAP2 SWAP1 POP JUMP JUMPDEST PUSH0 DUP2 SWAP1 POP SWAP2 SWAP1 POP JUMP JUMPDEST PUSH2 0x6E9 DUP4 PUSH2 0x6B6 JUMP JUMPDEST PUSH2 0x6FD PUSH2 0x6F5 DUP3 PUSH2 0x6D7 JUMP JUMPDEST DUP5 DUP5 SLOAD PUSH2 0x65C JUMP JUMPDEST DUP3 SSTORE POP POP POP POP JUMP JUMPDEST PUSH0 SWAP1 JUMP JUMPDEST PUSH2 0x711 PUSH2 0x705 JUMP JUMPDEST PUSH2 0x71C DUP2 DUP5 DUP5 PUSH2 0x6E0 JUMP JUMPDEST POP POP POP JUMP JUMPDEST JUMPDEST DUP2 DUP2 LT ISZERO PUSH2 0x73F JUMPI PUSH2 0x734 PUSH0 DUP3 PUSH2 0x709 JUMP JUMPDEST PUSH1 0x1 DUP2 ADD SWAP1 POP PUSH2 0x722 JUMP JUMPDEST POP POP JUMP JUMPDEST PUSH1 0x1F DUP3 GT ISZERO PUSH2 0x784 JUMPI PUSH2 0x755 DUP2 PUSH2 0x62F JUMP JUMPDEST PUSH2 0x75E DUP5 PUSH2 0x641 JUMP JUMPDEST DUP2 ADD PUSH1 0x20 DUP6 LT ISZERO PUSH2 0x76D JUMPI DUP2 SWAP1 POP JUMPDEST PUSH2 0x781 PUSH2 0x779 DUP6 PUSH2 0x641 JUMP JUMPDEST DUP4 ADD DUP3 PUSH2 0x721 JUMP JUMPDEST POP POP JUMPDEST POP POP POP JUMP JUMPDEST PUSH0 DUP3 DUP3 SHR SWAP1 POP SWAP3 SWAP2 POP POP JUMP JUMPDEST PUSH0 PUSH2 0x7A4 PUSH0 NOT DUP5 PUSH1 0x8 MUL PUSH2 0x789 JUMP JUMPDEST NOT DUP1 DUP4 AND SWAP2 POP POP SWAP3 SWAP2 POP POP JUMP JUMPDEST PUSH0 PUSH2 0x7BC DUP4 DUP4 PUSH2 0x795 JUMP JUMPDEST SWAP2 POP DUP3 PUSH1 0x2 MUL DUP3 OR SWAP1 POP SWAP3 SWAP2 POP POP JUMP JUMPDEST PUSH2 0x7D5 DUP3 PUSH2 0x2D2 JUMP JUMPDEST PUSH8 0xFFFFFFFFFFFFFFFF DUP2 GT ISZERO PUSH2 0x7EE JUMPI PUSH2 0x7ED PUSH2 0x3EE JUMP JUMPDEST JUMPDEST PUSH2 0x7F8 DUP3 SLOAD PUSH2 0x5FF JUMP JUMPDEST PUSH2 0x803 DUP3 DUP3 DUP6 PUSH2 0x743 JUMP JUMPDEST PUSH0 PUSH1 0x20 SWAP1 POP PUSH1 0x1F DUP4 GT PUSH1 0x1 DUP2 EQ PUSH2 0x834 JUMPI PUSH0 DUP5 ISZERO PUSH2 0x822 JUMPI DUP3 DUP8 ADD MLOAD SWAP1 POP JUMPDEST PUSH2 0x82C DUP6 DUP3 PUSH2 0x7B1 JUMP JUMPDEST DUP7 SSTORE POP PUSH2 0x893 JUMP JUMPDEST PUSH1 0x1F NOT DUP5 AND PUSH2 0x842 DUP7 PUSH2 0x62F JUMP JUMPDEST PUSH0 JUMPDEST DUP3 DUP2 LT ISZERO PUSH2 0x869 JUMPI DUP5 DUP10 ADD MLOAD DUP3 SSTORE PUSH1 0x1 DUP3 ADD SWAP2 POP PUSH1 0x20 DUP6 ADD SWAP5 POP PUSH1 0x20 DUP2 ADD SWAP1 POP PUSH2 0x844 JUMP JUMPDEST DUP7 DUP4 LT ISZERO PUSH2 0x886 JUMPI DUP5 DUP10 ADD MLOAD PUSH2 0x882 PUSH1 0x1F DUP10 AND DUP3 PUSH2 0x795 JUMP JUMPDEST DUP4 SSTORE POP JUMPDEST PUSH1 0x1 PUSH1 0x2 DUP9 MUL ADD DUP9 SSTORE POP POP POP JUMPDEST POP POP POP POP POP POP JUMP JUMPDEST PUSH0 PUSH1 0x40 DUP3 ADD SWAP1 POP DUP2 DUP2 SUB PUSH0 DUP4 ADD MSTORE PUSH2 0x8B3 DUP2 DUP6 PUSH2 0x30A JUMP JUMPDEST SWAP1 POP PUSH2 0x8C2 PUSH1 0x20 DUP4 ADD DUP5 PUSH2 0x34B JUMP JUMPDEST SWAP4 SWAP3 POP POP POP JUMP INVALID LOG2 PUSH5 0x6970667358 0x22 SLT KECCAK256 0xA6 BLOBHASH 0x22 OR 0x23 DUP6 BALANCE SWAP2 0xE8 GT RETURNDATASIZE 0xA9 0xE9 CALLER LT SWAP3 0xAB 0xC9 0xAB 0x24 0x2C 0xD8 0xBB SWAP2 DUP16 DUP7 0xD6 0xC4 INVALID 0xBD CALLDATALOAD SWAP10 PUSH5 0x736F6C6343 STOP ADDMOD BYTE STOP CALLER "
				},
				"gasEstimates": {
					"creation": {
						"codeDepositCost": "460600",
						"executionCost": "491",
						"totalCost": "461091"
					},
					"external": {
						"getPerson()": "infinite",
						"person_sample()": "infinite",
						"setPerson(string,uint256,address)": "infinite"
					}
				},
				"methodIdentifiers": {
					"getPerson()": "8ec4dc95",
					"person_sample()": "291c7f7e",
					"setPerson(string,uint256,address)": "cd4161ec"
				}
			},
			"storageLayout": {
				"storage": [
					{
						"astId": 11,
						"contract": "contracts/structs/sample.sol:Person",
						"label": "person_sample",
						"offset": 0,
						"slot": "0",
						"type": "t_struct(Person_Data)8_storage"
					}
				],
				"types": {
					"t_address": {
						"encoding": "inplace",
						"label": "address",
						"numberOfBytes": "20"
					},
					"t_string_storage": {
						"encoding": "bytes",
						"label": "string",
						"numberOfBytes": "32"
					},
					"t_struct(Person_Data)8_storage": {
						"encoding": "inplace",
						"label": "struct Person.Person_Data",
						"members": [
							{
								"astId": 3,
								"contract": "contracts/structs/sample.sol:Person",
								"label": "name",
								"offset": 0,
								"slot": "0",
								"type": "t_string_storage"
							},
							{
								"astId": 5,
								"contract": "contracts/structs/sample.sol:Person",
								"label": "age",
								"offset": 0,
								"slot": "1",
								"type": "t_uint256"
							},
							{
								"astId": 7,
								"contract": "contracts/structs/sample.sol:Person",
								"label": "addr",
								"offset": 0,
								"slot": "2",
								"type": "t_address"
							}
						],
						"numberOfBytes": "96"
					},
					"t_uint256": {
						"encoding": "inplace",
						"label": "uint256",
						"numberOfBytes": "32"
					}
				}
			},
			"userdoc": {
				"kind": "user",
				"methods": {},
				"version": 1
			}
		}
	}
}